{
  "contractName": "UniV3TradingPair",
  "abi": [
    {
      "inputs": [
        {
          "internalType": "address",
          "name": "pool_address",
          "type": "address"
        },
        {
          "internalType": "address",
          "name": "_nftManager",
          "type": "address"
        },
        {
          "internalType": "address",
          "name": "_treasury",
          "type": "address"
        },
        {
          "internalType": "address",
          "name": "_settlerInit",
          "type": "address"
        }
      ],
      "stateMutability": "nonpayable",
      "type": "constructor"
    },
    {
      "anonymous": false,
      "inputs": [
        {
          "indexed": false,
          "internalType": "uint256",
          "name": "positionId",
          "type": "uint256"
        }
      ],
      "name": "Close",
      "type": "event"
    },
    {
      "anonymous": false,
      "inputs": [
        {
          "indexed": false,
          "internalType": "uint256",
          "name": "positionId",
          "type": "uint256"
        },
        {
          "indexed": false,
          "internalType": "address",
          "name": "trader",
          "type": "address"
        },
        {
          "indexed": false,
          "internalType": "bool",
          "name": "side",
          "type": "bool"
        },
        {
          "indexed": false,
          "internalType": "uint160",
          "name": "sqrtPriceX96",
          "type": "uint160"
        },
        {
          "indexed": false,
          "internalType": "uint256",
          "name": "quantity",
          "type": "uint256"
        }
      ],
      "name": "Open",
      "type": "event"
    },
    {
      "anonymous": false,
      "inputs": [
        {
          "indexed": false,
          "internalType": "bool",
          "name": "side",
          "type": "bool"
        },
        {
          "indexed": false,
          "internalType": "uint256",
          "name": "positionId",
          "type": "uint256"
        },
        {
          "indexed": false,
          "internalType": "address",
          "name": "trader",
          "type": "address"
        },
        {
          "indexed": false,
          "internalType": "uint256",
          "name": "executionPrice",
          "type": "uint256"
        },
        {
          "indexed": false,
          "internalType": "uint256",
          "name": "quantity",
          "type": "uint256"
        }
      ],
      "name": "Settled",
      "type": "event"
    },
    {
      "anonymous": false,
      "inputs": [
        {
          "indexed": false,
          "internalType": "uint256",
          "name": "positionId",
          "type": "uint256"
        },
        {
          "indexed": false,
          "internalType": "uint256",
          "name": "newQuantity",
          "type": "uint256"
        }
      ],
      "name": "SizeChanged",
      "type": "event"
    },
    {
      "inputs": [],
      "name": "FEE",
      "outputs": [
        {
          "internalType": "uint24",
          "name": "",
          "type": "uint24"
        }
      ],
      "stateMutability": "view",
      "type": "function",
      "constant": true
    },
    {
      "inputs": [],
      "name": "nftManager",
      "outputs": [
        {
          "internalType": "contract INonfungiblePositionManager",
          "name": "",
          "type": "address"
        }
      ],
      "stateMutability": "view",
      "type": "function",
      "constant": true
    },
    {
      "inputs": [],
      "name": "owner",
      "outputs": [
        {
          "internalType": "address",
          "name": "",
          "type": "address"
        }
      ],
      "stateMutability": "view",
      "type": "function",
      "constant": true
    },
    {
      "inputs": [],
      "name": "pairName",
      "outputs": [
        {
          "internalType": "string",
          "name": "",
          "type": "string"
        }
      ],
      "stateMutability": "view",
      "type": "function",
      "constant": true
    },
    {
      "inputs": [],
      "name": "pool",
      "outputs": [
        {
          "internalType": "contract IUniswapV3Pool",
          "name": "",
          "type": "address"
        }
      ],
      "stateMutability": "view",
      "type": "function",
      "constant": true
    },
    {
      "inputs": [],
      "name": "poolToken0",
      "outputs": [
        {
          "internalType": "address",
          "name": "",
          "type": "address"
        }
      ],
      "stateMutability": "view",
      "type": "function",
      "constant": true
    },
    {
      "inputs": [],
      "name": "poolToken1",
      "outputs": [
        {
          "internalType": "address",
          "name": "",
          "type": "address"
        }
      ],
      "stateMutability": "view",
      "type": "function",
      "constant": true
    },
    {
      "inputs": [],
      "name": "protocolFee",
      "outputs": [
        {
          "internalType": "uint256",
          "name": "",
          "type": "uint256"
        }
      ],
      "stateMutability": "view",
      "type": "function",
      "constant": true
    },
    {
      "inputs": [],
      "name": "settlerFee",
      "outputs": [
        {
          "internalType": "uint256",
          "name": "",
          "type": "uint256"
        }
      ],
      "stateMutability": "view",
      "type": "function",
      "constant": true
    },
    {
      "inputs": [],
      "name": "settlerInit",
      "outputs": [
        {
          "internalType": "address",
          "name": "",
          "type": "address"
        }
      ],
      "stateMutability": "view",
      "type": "function",
      "constant": true
    },
    {
      "inputs": [],
      "name": "treasury",
      "outputs": [
        {
          "internalType": "address",
          "name": "",
          "type": "address"
        }
      ],
      "stateMutability": "view",
      "type": "function",
      "constant": true
    },
    {
      "inputs": [
        {
          "internalType": "address",
          "name": "operator",
          "type": "address"
        },
        {
          "internalType": "address",
          "name": "from",
          "type": "address"
        },
        {
          "internalType": "uint256",
          "name": "tokenId",
          "type": "uint256"
        },
        {
          "internalType": "bytes",
          "name": "",
          "type": "bytes"
        }
      ],
      "name": "onERC721Received",
      "outputs": [
        {
          "internalType": "bytes4",
          "name": "",
          "type": "bytes4"
        }
      ],
      "stateMutability": "nonpayable",
      "type": "function"
    },
    {
      "inputs": [
        {
          "internalType": "bytes",
          "name": "checkData",
          "type": "bytes"
        }
      ],
      "name": "checkUpkeep",
      "outputs": [
        {
          "internalType": "bool",
          "name": "upkeepNeeded",
          "type": "bool"
        },
        {
          "internalType": "bytes",
          "name": "performData",
          "type": "bytes"
        }
      ],
      "stateMutability": "view",
      "type": "function",
      "constant": true
    },
    {
      "inputs": [
        {
          "internalType": "bytes",
          "name": "performData",
          "type": "bytes"
        }
      ],
      "name": "performUpkeep",
      "outputs": [],
      "stateMutability": "nonpayable",
      "type": "function"
    },
    {
      "inputs": [
        {
          "internalType": "bool",
          "name": "side",
          "type": "bool"
        },
        {
          "internalType": "uint160",
          "name": "sqrtPriceX96",
          "type": "uint160"
        },
        {
          "internalType": "uint256",
          "name": "quantity",
          "type": "uint256"
        }
      ],
      "name": "createOrder",
      "outputs": [
        {
          "internalType": "uint256",
          "name": "positionId",
          "type": "uint256"
        }
      ],
      "stateMutability": "payable",
      "type": "function",
      "payable": true
    },
    {
      "inputs": [
        {
          "internalType": "uint256",
          "name": "positionId",
          "type": "uint256"
        },
        {
          "internalType": "uint256",
          "name": "quantity",
          "type": "uint256"
        }
      ],
      "name": "increaseSize",
      "outputs": [],
      "stateMutability": "nonpayable",
      "type": "function"
    },
    {
      "inputs": [
        {
          "internalType": "uint256",
          "name": "positionId",
          "type": "uint256"
        },
        {
          "internalType": "uint256",
          "name": "quantity",
          "type": "uint256"
        }
      ],
      "name": "decreaseSize",
      "outputs": [],
      "stateMutability": "nonpayable",
      "type": "function"
    },
    {
      "inputs": [
        {
          "internalType": "uint256",
          "name": "positionId",
          "type": "uint256"
        }
      ],
      "name": "closePositionOwner",
      "outputs": [],
      "stateMutability": "nonpayable",
      "type": "function"
    },
    {
      "inputs": [
        {
          "internalType": "uint256",
          "name": "positionId",
          "type": "uint256"
        },
        {
          "internalType": "uint256",
          "name": "userAmount0",
          "type": "uint256"
        },
        {
          "internalType": "uint256",
          "name": "userAmount1",
          "type": "uint256"
        }
      ],
      "name": "getExecutionPrice",
      "outputs": [
        {
          "internalType": "uint256",
          "name": "price",
          "type": "uint256"
        }
      ],
      "stateMutability": "view",
      "type": "function",
      "constant": true
    },
    {
      "inputs": [
        {
          "internalType": "uint256",
          "name": "positionId",
          "type": "uint256"
        }
      ],
      "name": "getTicks",
      "outputs": [
        {
          "internalType": "int24",
          "name": "tickLower",
          "type": "int24"
        },
        {
          "internalType": "int24",
          "name": "tickUpper",
          "type": "int24"
        }
      ],
      "stateMutability": "view",
      "type": "function",
      "constant": true
    },
    {
      "inputs": [
        {
          "internalType": "bool",
          "name": "side",
          "type": "bool"
        },
        {
          "internalType": "uint160",
          "name": "sqrtPriceX96",
          "type": "uint160"
        }
      ],
      "name": "getTicksFromPrice",
      "outputs": [
        {
          "internalType": "int24",
          "name": "tickLower",
          "type": "int24"
        },
        {
          "internalType": "int24",
          "name": "tickUpper",
          "type": "int24"
        }
      ],
      "stateMutability": "view",
      "type": "function",
      "constant": true
    },
    {
      "inputs": [
        {
          "internalType": "int24",
          "name": "tickLower",
          "type": "int24"
        },
        {
          "internalType": "int24",
          "name": "tickUpper",
          "type": "int24"
        }
      ],
      "name": "getPriceFromTicks",
      "outputs": [
        {
          "internalType": "uint160",
          "name": "sqrtPriceX96",
          "type": "uint160"
        }
      ],
      "stateMutability": "view",
      "type": "function",
      "constant": true
    },
    {
      "inputs": [
        {
          "internalType": "int24",
          "name": "tick",
          "type": "int24"
        }
      ],
      "name": "getPriceFromTick",
      "outputs": [
        {
          "internalType": "uint160",
          "name": "",
          "type": "uint160"
        }
      ],
      "stateMutability": "pure",
      "type": "function",
      "constant": true
    },
    {
      "inputs": [],
      "name": "getCurrentPoolTick",
      "outputs": [
        {
          "internalType": "int24",
          "name": "tick",
          "type": "int24"
        }
      ],
      "stateMutability": "view",
      "type": "function",
      "constant": true
    },
    {
      "inputs": [
        {
          "internalType": "uint256",
          "name": "positionId",
          "type": "uint256"
        }
      ],
      "name": "getPositionLiquidity",
      "outputs": [
        {
          "internalType": "uint128",
          "name": "liquidity",
          "type": "uint128"
        }
      ],
      "stateMutability": "view",
      "type": "function",
      "constant": true
    },
    {
      "inputs": [],
      "name": "getPoolPrice",
      "outputs": [
        {
          "internalType": "uint160",
          "name": "price",
          "type": "uint160"
        }
      ],
      "stateMutability": "view",
      "type": "function",
      "constant": true
    },
    {
      "inputs": [
        {
          "internalType": "uint256",
          "name": "positionId",
          "type": "uint256"
        }
      ],
      "name": "getSide",
      "outputs": [
        {
          "internalType": "bool",
          "name": "side",
          "type": "bool"
        }
      ],
      "stateMutability": "view",
      "type": "function",
      "constant": true
    },
    {
      "inputs": [
        {
          "internalType": "uint256",
          "name": "positionId",
          "type": "uint256"
        }
      ],
      "name": "getTickLower",
      "outputs": [
        {
          "internalType": "int24",
          "name": "tickLower",
          "type": "int24"
        }
      ],
      "stateMutability": "view",
      "type": "function",
      "constant": true
    },
    {
      "inputs": [
        {
          "internalType": "uint256",
          "name": "positionId",
          "type": "uint256"
        }
      ],
      "name": "getTickUpper",
      "outputs": [
        {
          "internalType": "int24",
          "name": "tickUpper",
          "type": "int24"
        }
      ],
      "stateMutability": "view",
      "type": "function",
      "constant": true
    },
    {
      "inputs": [
        {
          "internalType": "uint256",
          "name": "positionId",
          "type": "uint256"
        }
      ],
      "name": "getQuantity",
      "outputs": [
        {
          "internalType": "uint256",
          "name": "quantity",
          "type": "uint256"
        }
      ],
      "stateMutability": "view",
      "type": "function",
      "constant": true
    },
    {
      "inputs": [
        {
          "internalType": "uint256",
          "name": "positionId",
          "type": "uint256"
        }
      ],
      "name": "getOwner",
      "outputs": [
        {
          "internalType": "address",
          "name": "_owner",
          "type": "address"
        }
      ],
      "stateMutability": "view",
      "type": "function",
      "constant": true
    },
    {
      "inputs": [
        {
          "internalType": "uint256",
          "name": "positionId",
          "type": "uint256"
        }
      ],
      "name": "getActivityStatus",
      "outputs": [
        {
          "internalType": "bool",
          "name": "active",
          "type": "bool"
        }
      ],
      "stateMutability": "view",
      "type": "function",
      "constant": true
    },
    {
      "inputs": [
        {
          "internalType": "uint256",
          "name": "feeBips",
          "type": "uint256"
        }
      ],
      "name": "setProtocolFee",
      "outputs": [],
      "stateMutability": "nonpayable",
      "type": "function"
    },
    {
      "inputs": [
        {
          "internalType": "uint256",
          "name": "feeBips",
          "type": "uint256"
        }
      ],
      "name": "setSettlerFee",
      "outputs": [],
      "stateMutability": "nonpayable",
      "type": "function"
    },
    {
      "inputs": [
        {
          "internalType": "string",
          "name": "_name",
          "type": "string"
        }
      ],
      "name": "setPairName",
      "outputs": [],
      "stateMutability": "nonpayable",
      "type": "function"
    }
  ],
  "bytecode": "0x610180604052600560005560006001553480156200001c57600080fd5b50604051620050da380380620050da8339810160408190526200003f9162000312565b606084811b6001600160601b03199081166101605284821b166101405233901b60805260408051630dfe168160e01b815290516001600160a01b03861691630dfe1681916004808301926020929190829003018186803b158015620000a357600080fd5b505afa158015620000b8573d6000803e3d6000fd5b505050506040513d601f19601f82011682018060405250810190620000de9190620002ec565b6001600160a01b031660a0816001600160a01b031660601b81525050836001600160a01b031663d21220a76040518163ffffffff1660e01b815260040160206040518083038186803b1580156200013457600080fd5b505afa15801562000149573d6000803e3d6000fd5b505050506040513d601f19601f820116820180604052508101906200016f9190620002ec565b6001600160a01b031660c0816001600160a01b031660601b81525050836001600160a01b031663ddca3f436040518163ffffffff1660e01b815260040160206040518083038186803b158015620001c557600080fd5b505afa158015620001da573d6000803e3d6000fd5b505050506040513d601f19601f8201168201806040525081019062000200919062000425565b60e81b6001600160e81b03191660e0908152606083811b6001600160601b0319908116610100529083901b166101205260408051633850c7bd60e01b815290516001600160a01b03871692633850c7bd9260048082019391829003018186803b1580156200026d57600080fd5b505afa15801562000282573d6000803e3d6000fd5b505050506040513d601f19601f82011682018060405250810190620002a8919062000379565b50506002805494810b62ffffff1662ffffff199095169490941790935550620004639650505050505050565b805161ffff81168114620002e757600080fd5b919050565b600060208284031215620002fe578081fd5b81516200030b816200044a565b9392505050565b6000806000806080858703121562000328578283fd5b845162000335816200044a565b602086015190945062000348816200044a565b60408601519093506200035b816200044a565b60608601519092506200036e816200044a565b939692955090935050565b600080600080600080600060e0888a03121562000394578283fd5b8751620003a1816200044a565b8097505060208801518060020b8114620003b9578384fd5b9550620003c960408901620002d4565b9450620003d960608901620002d4565b9350620003e960808901620002d4565b925060a088015160ff81168114620003ff578283fd5b60c0890151909250801515811462000415578182fd5b8091505092959891949750929550565b60006020828403121562000437578081fd5b815162ffffff811681146200030b578182fd5b6001600160a01b03811681146200046057600080fd5b50565b60805160601c60a05160601c60c05160601c60e05160e81c6101005160601c6101205160601c6101405160601c6101605160601c614b57620005836000398061069052806109745280611193528061161052806116c052508061084f52806109d65280610ed85280611b0d5280611ce0528061208f5280612860528061372b5280613831525080610daa525080610e2652806134f85280613559525080611cbc5280612920525080610d805280610e7852806119d45280611dca52806128e45280612ab45280613493528061353752806135d9525080610e52528061197e5280611c285280611da352806128a85280612a66528061343752806134d65280613598525080611512528061158652806117b65280611d1a5250614b576000f3fe6080604052600436106102345760003560e01c8063787dce3d11610138578063a6068b3b116100b0578063c41a360a1161007f578063e88b91ea11610064578063e88b91ea14610637578063ec12ff4f1461064c578063f9a1f17f1461066c57610234565b8063c41a360a146105f5578063c57981b51461061557610234565b8063a6068b3b1461058b578063a73bf6df146105ab578063a875a0f3146105c0578063b0e21e8a146105e057610234565b80638c5a9281116101075780639859f805116100ec5780639859f8051461052b5780639ce288cb1461054b5780639d4ad6f11461056b57610234565b80638c5a9281146104e85780638da5cb5b1461051657610234565b8063787dce3d146104735780638438f2b01461049357806386991a1d146104b3578063885a08e0146104d357610234565b80634758af8a116101cb5780635cc1a5d01161019a57806361d027b31161017f57806361d027b31461041d578063623efcbe146104325780636e04ff0d1461044557610234565b80635cc1a5d0146103d05780635ebd9ded146103fd57610234565b80634758af8a146103645780634e9e325214610379578063592a16791461039b57806359e0fe18146103b057610234565b806316f0115b1161020757806316f0115b146102d35780631efeed33146102f557806340794c3b146103225780634585e33b1461034457610234565b80630159d8471461023957806304f8fe9b146102645780630965182714610286578063150b7a02146102a6575b600080fd5b34801561024557600080fd5b5061024e61068c565b60405161025b919061466b565b60405180910390f35b34801561027057600080fd5b5061028461027f366004614383565b610738565b005b34801561029257600080fd5b506102846102a1366004614330565b610928565b3480156102b257600080fd5b506102c66102c1366004614014565b610948565b60405161025b919061463e565b3480156102df57600080fd5b506102e8610972565b60405161025b9190614564565b34801561030157600080fd5b50610315610310366004614330565b610996565b60405161025b91906149ef565b34801561032e57600080fd5b50610337610a6e565b60405161025b919061468d565b34801561035057600080fd5b5061028461035f3660046141cd565b610b1a565b34801561037057600080fd5b506102e8610d7e565b34801561038557600080fd5b5061038e610da2565b60405161025b9190614a1c565b3480156103a757600080fd5b506102e8610da8565b3480156103bc57600080fd5b506102e86103cb366004614201565b610dcc565b3480156103dc57600080fd5b506103f06103eb366004614330565b610ddf565b60405161025b91906145dd565b34801561040957600080fd5b5061038e610418366004614330565b610e0f565b34801561042957600080fd5b506102e8610e24565b61038e61044036600461418d565b610e48565b34801561045157600080fd5b506104656104603660046141cd565b61117f565b60405161025b9291906145e8565b34801561047f57600080fd5b5061028461048e366004614330565b6114fa565b34801561049f57600080fd5b506102846104ae3660046141cd565b61156e565b3480156104bf57600080fd5b5061024e6104ce366004614330565b6115ee565b3480156104df57600080fd5b506102e861160b565b3480156104f457600080fd5b50610508610503366004614155565b6116b9565b60405161025b929190614679565b34801561052257600080fd5b506102e86117b4565b34801561053757600080fd5b50610284610546366004614383565b6117d8565b34801561055757600080fd5b5061024e610566366004614330565b611aee565b34801561057757600080fd5b50610508610586366004614330565b611b08565b34801561059757600080fd5b5061038e6105a63660046143c7565b611bca565b3480156105b757600080fd5b506102e8611c26565b3480156105cc57600080fd5b506102e86105db366004614239565b611c4a565b3480156105ec57600080fd5b5061038e611c89565b34801561060157600080fd5b506102e8610610366004614330565b611c8f565b34801561062157600080fd5b5061062a611cba565b60405161025b9190614a0c565b34801561064357600080fd5b506102e8611cde565b34801561065857600080fd5b50610284610667366004614330565b611d02565b34801561067857600080fd5b506103f0610687366004614330565b611d76565b60007f000000000000000000000000000000000000000000000000000000000000000073ffffffffffffffffffffffffffffffffffffffff16633850c7bd6040518163ffffffff1660e01b815260040160e06040518083038186803b1580156106f457600080fd5b505afa158015610708573d6000803e3d6000fd5b505050506040513d601f19601f8201168201806040525081019061072c919061429a565b50939695505050505050565b60008281526006602052604090206003015473ffffffffffffffffffffffffffffffffffffffff1633146107a1576040517f08c379a000000000000000000000000000000000000000000000000000000000815260040161079890614821565b60405180910390fd5b60008281526006602052604090206003015474010000000000000000000000000000000000000000900460ff16610804576040517f08c379a0000000000000000000000000000000000000000000000000000000008152600401610798906147ea565b600061080f83611d8b565b905061083373ffffffffffffffffffffffffffffffffffffffff8216333085611dee565b61087473ffffffffffffffffffffffffffffffffffffffff82167f000000000000000000000000000000000000000000000000000000000000000084611e89565b6000806000610884868587611fd6565b91945092509050610895828261221a565b600087815260066020526040908190206001810183905560020180547fffffffffffffffffffffffffffffffff00000000000000000000000000000000166fffffffffffffffffffffffffffffffff8716179055517f7d1114a92a206d9f21c8d18a4861689f9c82fad6213ca107aa3e11406a119bb89161091891899190614a60565b60405180910390a1505050505050565b60008181526006602052604090206001015461094482826117d8565b5050565b7f150b7a020000000000000000000000000000000000000000000000000000000095945050505050565b7f000000000000000000000000000000000000000000000000000000000000000081565b6040517f99fbab8800000000000000000000000000000000000000000000000000000000815260009073ffffffffffffffffffffffffffffffffffffffff7f000000000000000000000000000000000000000000000000000000000000000016906399fbab8890610a0b908590600401614a1c565b6101806040518083038186803b158015610a2457600080fd5b505afa158015610a38573d6000803e3d6000fd5b505050506040513d601f19601f82011682018060405250810190610a5c91906143f2565b50929c9b505050505050505050505050565b6005805460408051602060026001851615610100027fffffffffffffffffffffffffffffffffffffffffffffffffffffffffffffffff0190941693909304601f81018490048402820184019092528181529291830182828015610b125780601f10610ae757610100808354040283529160200191610b12565b820191906000526020600020905b815481529060010190602001808311610af557829003601f168201915b505050505081565b60008080610b2a84860186614085565b60028054939650919450925083810b91810b900b14610b75576040517f08c379a00000000000000000000000000000000000000000000000000000000081526004016107989061470e565b6000610b7f61068c565b90508260020b8260020b13610b9d578060020b8260020b1215610ba8565b8060020b8260020b13155b610bde576040517f08c379a000000000000000000000000000000000000000000000000000000000815260040161079890614745565b60005b8451811015610d405760066000868381518110610bfa57fe5b6020026020010151815260200190815260200160002060030160149054906101000a900460ff1615610d385760066000868381518110610c3657fe5b60209081029190910181015182528101919091526040016000205460ff168015610c9b57508160020b60066000878481518110610c6f57fe5b6020026020010151815260200190815260200160002060000160019054906101000a900460020b60020b135b80610d17575060066000868381518110610cb157fe5b60209081029190910181015182528101919091526040016000205460ff16158015610d1757508160020b60066000878481518110610ceb57fe5b6020026020010151815260200190815260200160002060000160049054906101000a900460020b60020b125b15610d3857610d38858281518110610d2b57fe5b6020026020010151612297565b600101610be1565b50506002805491810b62ffffff167fffffffffffffffffffffffffffffffffffffffffffffffffffffffffff00000090921691909117905550505050565b7f000000000000000000000000000000000000000000000000000000000000000081565b60015481565b7f000000000000000000000000000000000000000000000000000000000000000081565b6000610dd7826124a1565b90505b919050565b60009081526006602052604090206003015474010000000000000000000000000000000000000000900460ff1690565b60009081526006602052604090206001015490565b7f000000000000000000000000000000000000000000000000000000000000000081565b60008084610e76577f0000000000000000000000000000000000000000000000000000000000000000610e98565b7f00000000000000000000000000000000000000000000000000000000000000005b9050610ebc73ffffffffffffffffffffffffffffffffffffffff8216333086611dee565b610efd73ffffffffffffffffffffffffffffffffffffffff82167f000000000000000000000000000000000000000000000000000000000000000085611e89565b600080610f0a87876116b9565b9250905060008080610f1e8a85878b612834565b6040805160e0810182528f1515815260028a810b60208301528b900b91810191909152939a509195509350915060608101610f59848461221a565b81526fffffffffffffffffffffffffffffffff8581166020808401919091523360408085018290526001606095860181905260008e8152600685528290208751815495890151938901517fffffffffffffffffffffffffffffffffffffffffffffffffffffffffffffff00909616901515177fffffffffffffffffffffffffffffffffffffffffffffffffffffffff000000ff16610100600294850b62ffffff90811691909102919091177fffffffffffffffffffffffffffffffffffffffffffffffffff000000ffffffff1664010000000096850b91909116959095029490941784559486015194830194909455608085015193820180547fffffffffffffffffffffffffffffffff0000000000000000000000000000000016949093169390931790915560a08301516003909101805460c0909401517fffffffffffffffffffffffff000000000000000000000000000000000000000090941673ffffffffffffffffffffffffffffffffffffffff909216919091177fffffffffffffffffffffff00ffffffffffffffffffffffffffffffffffffffff167401000000000000000000000000000000000000000093151593909302929092179091557f6c40f5ef74fd79b0dad7fa3da61f0a6a8ef8bf63b75eae10782c62baa2baf1bb9088908c611146888a611c4a565b60008c8152600660205260409081902060010154905161116a959493929190614a25565b60405180910390a15050505050509392505050565b60006060600061118d61068c565b905060007f000000000000000000000000000000000000000000000000000000000000000073ffffffffffffffffffffffffffffffffffffffff1663d0c93a7c6040518163ffffffff1660e01b815260040160206040518083038186803b1580156111f757600080fd5b505afa15801561120b573d6000803e3d6000fd5b505050506040513d601f19601f8201168201806040525081019061122f919061421d565b60028054919250606091810b810b9084900b141561124c57600094505b6002805484820b90820b90910b121561139a576002805460009161127391900b8585612aea565b915050806112845760009550611398565b6001955060008167ffffffffffffffff811180156112a157600080fd5b506040519080825280602002602001820160405280156112cb578160200160208202803683370190505b5060028054919250600091900b5b8660020b8160020b12156113695760005b600282810b900b600090815260046020526040902054811015611361578483101561135957600282810b900b600090815260046020526040902080548290811061133057fe5b906000526020600020015484848151811061134757fe5b60209081029190910101526001909201915b6001016112ea565b5085016112d9565b5060028054604051611384928592900b908990602001614585565b604051602081830303815290604052935050505b505b6002805484820b90820b90910b13156114ed57600280546000916113c591868601910b850185612aea565b509050806113d657600095506114eb565b6001955060008167ffffffffffffffff811180156113f357600080fd5b5060405190808252806020026020018201604052801561141d578160200160208202803683370190505b50905060008585015b60028054810b8701810b9082900b12156114bc5760005b600282810b900b6000908152600360205260409020548110156114b457848310156114ac57600282810b900b600090815260036020526040902080548290811061148357fe5b906000526020600020015484848151811061149a57fe5b60209081029190910101526001909201915b60010161143d565b508501611426565b50600280546040516114d7928592900b908990602001614585565b604051602081830303815290604052935050505b505b8093505050509250929050565b3373ffffffffffffffffffffffffffffffffffffffff7f00000000000000000000000000000000000000000000000000000000000000001614611569576040517f08c379a0000000000000000000000000000000000000000000000000000000008152600401610798906147b3565b600055565b3373ffffffffffffffffffffffffffffffffffffffff7f000000000000000000000000000000000000000000000000000000000000000016146115dd576040517f08c379a0000000000000000000000000000000000000000000000000000000008152600401610798906147b3565b6115e960058383613ea8565b505050565b600090815260066020526040902054640100000000900460020b90565b6000807f000000000000000000000000000000000000000000000000000000000000000073ffffffffffffffffffffffffffffffffffffffff16633850c7bd6040518163ffffffff1660e01b815260040160e06040518083038186803b15801561167457600080fd5b505afa158015611688573d6000803e3d6000fd5b505050506040513d601f19601f820116820180604052508101906116ac919061429a565b5094965050505050505090565b60008060007f000000000000000000000000000000000000000000000000000000000000000073ffffffffffffffffffffffffffffffffffffffff1663d0c93a7c6040518163ffffffff1660e01b815260040160206040518083038186803b15801561172457600080fd5b505afa158015611738573d6000803e3d6000fd5b505050506040513d601f19601f8201168201806040525081019061175c919061421d565b9050600061176985612b4d565b9050851561178f578160020b8160020b8161178057fe5b078103925081830393506117ab565b818260020b8260020b8161179f57fe5b07820301935081840192505b50509250929050565b7f000000000000000000000000000000000000000000000000000000000000000081565b60008281526006602052604090206003015473ffffffffffffffffffffffffffffffffffffffff163314611838576040517f08c379a000000000000000000000000000000000000000000000000000000000815260040161079890614821565b600082815260066020526040902060010154811115611883576040517f08c379a0000000000000000000000000000000000000000000000000000000008152600401610798906146a0565b60008281526006602052604090206003015474010000000000000000000000000000000000000000900460ff166118e6576040517f08c379a0000000000000000000000000000000000000000000000000000000008152600401610798906147ea565b6000806000806118f68686612f19565b60008a81526006602052604090206001018054858501900390559296509094509250905061192386610996565b600087815260066020526040902060020180547fffffffffffffffffffffffffffffffff00000000000000000000000000000000166fffffffffffffffffffffffffffffffff929092169190911790558184018184016119ba7f000000000000000000000000000000000000000000000000000000000000000073ffffffffffffffffffffffffffffffffffffffff163384612fc7565b6119fb73ffffffffffffffffffffffffffffffffffffffff7f0000000000000000000000000000000000000000000000000000000000000000163383612fc7565b6000888152600660205260409020600201546fffffffffffffffffffffffffffffffff16611a97576000888152600660205260409081902060030180547fffffffffffffffffffffff00ffffffffffffffffffffffffffffffffffffffff169055517fbf67515a38ee520223d32c1266d52101c30d936ed1f3e436c8caeb0a43cb06bf90611a8a908a90614a1c565b60405180910390a1611ae4565b600088815260066020526040908190206001015490517f7d1114a92a206d9f21c8d18a4861689f9c82fad6213ca107aa3e11406a119bb891611adb918b9190614a60565b60405180910390a15b5050505050505050565b600090815260066020526040902054610100900460020b90565b6000807f000000000000000000000000000000000000000000000000000000000000000073ffffffffffffffffffffffffffffffffffffffff166399fbab88846040518263ffffffff1660e01b8152600401611b649190614a1c565b6101806040518083038186803b158015611b7d57600080fd5b505afa158015611b91573d6000803e3d6000fd5b505050506040513d601f19601f82011682018060405250810190611bb591906143f2565b50949d939c50929a5050505050505050505050565b60008381526006602052604081205460ff16611c0157600084815260066020526040902060010154611bfc9083613054565b611c1e565b600084815260066020526040902060010154611c1e908490613054565b949350505050565b7f000000000000000000000000000000000000000000000000000000000000000081565b600080611c56846124a1565b90506000611c63846124a1565b6002920173ffffffffffffffffffffffffffffffffffffffff1691909104949350505050565b60005481565b60009081526006602052604090206003015473ffffffffffffffffffffffffffffffffffffffff1690565b7f000000000000000000000000000000000000000000000000000000000000000081565b7f000000000000000000000000000000000000000000000000000000000000000081565b3373ffffffffffffffffffffffffffffffffffffffff7f00000000000000000000000000000000000000000000000000000000000000001614611d71576040517f08c379a0000000000000000000000000000000000000000000000000000000008152600401610798906147b3565b600155565b60009081526006602052604090205460ff1690565b60008181526006602052604081205460ff16611dc7577f0000000000000000000000000000000000000000000000000000000000000000610dd7565b507f0000000000000000000000000000000000000000000000000000000000000000919050565b6040805173ffffffffffffffffffffffffffffffffffffffff80861660248301528416604482015260648082018490528251808303909101815260849091019091526020810180517bffffffffffffffffffffffffffffffffffffffffffffffffffffffff167f23b872dd00000000000000000000000000000000000000000000000000000000179052611e839085906130d5565b50505050565b6000611f46828573ffffffffffffffffffffffffffffffffffffffff1663dd62ed3e30876040518363ffffffff1660e01b8152600401808373ffffffffffffffffffffffffffffffffffffffff1681526020018273ffffffffffffffffffffffffffffffffffffffff1681526020019250505060206040518083038186803b158015611f1457600080fd5b505afa158015611f28573d6000803e3d6000fd5b505050506040513d6020811015611f3e57600080fd5b50519061221a565b6040805173ffffffffffffffffffffffffffffffffffffffff8616602482015260448082018490528251808303909101815260649091019091526020810180517bffffffffffffffffffffffffffffffffffffffffffffffffffffffff167f095ea7b300000000000000000000000000000000000000000000000000000000179052909150611e839085906130d5565b6000806000806000611fe788611b08565b915091506000611ff561068c565b90508060020b8260020b1415801561201357508060020b8360020b14155b612049576040517f08c379a0000000000000000000000000000000000000000000000000000000008152600401610798906146d7565b60008981526006602052604081205460ff166120655787612068565b60005b60008b8152600660205260408120549192509060ff1661208957600061208b565b885b90507f000000000000000000000000000000000000000000000000000000000000000073ffffffffffffffffffffffffffffffffffffffff1663219f5d176040518060c001604052808e81526020018581526020018481526020016121046120fd60c88861305490919063ffffffff16565b87906131ad565b815260200161211e6121178660c8613054565b86906131ad565b8152602001428152506040518263ffffffff1660e01b815260040161214391906148fd565b606060405180830381600087803b15801561215d57600080fd5b505af1158015612171573d6000803e3d6000fd5b505050506040513d601f19601f820116820180604052508101906121959190614266565b60008e815260066020526040812054939b5091995097509060ff166121d05760008c81526006602052604090206001015483018890036121e8565b60008c81526006602052604090206001015482018790035b905061220b73ffffffffffffffffffffffffffffffffffffffff8c163383612fc7565b50505050505093509350939050565b60008282018381101561228e57604080517f08c379a000000000000000000000000000000000000000000000000000000000815260206004820152601b60248201527f536166654d6174683a206164646974696f6e206f766572666c6f770000000000604482015290519081900360640190fd5b90505b92915050565b60006122a161068c565b60008381526006602052604090205490915060ff166122e2576000828152600660205260409020546401000000009004600290810b810b9082900b13612303565b6000828152600660205260409020546101009004600290810b810b9082900b125b612339576040517f08c379a00000000000000000000000000000000000000000000000000000000081526004016107989061477c565b60008281526006602052604090206003015474010000000000000000000000000000000000000000900460ff1661239c576040517f08c379a0000000000000000000000000000000000000000000000000000000008152600401610798906147ea565b6000806000806123c2866006600089815260200190815260200160002060010154612f19565b929650909450925090506123d98685858585613224565b600086815260066020526040812060030180547fffffffffffffffffffffff00ffffffffffffffffffffffffffffffffffffffff16905561241f87868501868501611bca565b600088815260066020526040908190208054600382015460019092015492519394507f7e953f96ae54ab2378a31227b9077cac6e9fa627cb10e333065cb7883c1df776936124909360ff909216928c9273ffffffffffffffffffffffffffffffffffffffff90911691879190614603565b60405180910390a150505050505050565b60008060008360020b126124b8578260020b6124c0565b8260020b6000035b9050620d89e881111561253457604080517f08c379a000000000000000000000000000000000000000000000000000000000815260206004820152600160248201527f5400000000000000000000000000000000000000000000000000000000000000604482015290519081900360640190fd5b60006001821661255557700100000000000000000000000000000000612567565b6ffffcb933bd6fad37aa2d162d1a5940015b70ffffffffffffffffffffffffffffffffff169050600282161561259b576ffff97272373d413259a46990580e213a0260801c5b60048216156125ba576ffff2e50f5f656932ef12357cf3c7fdcc0260801c5b60088216156125d9576fffe5caca7e10e4e61c3624eaa0941cd00260801c5b60108216156125f8576fffcb9843d60f6159c9db58835c9266440260801c5b6020821615612617576fff973b41fa98c081472e6896dfb254c00260801c5b6040821615612636576fff2ea16466c96a3843ec78b326b528610260801c5b6080821615612655576ffe5dee046a99a2a811c461f1969c30530260801c5b610100821615612675576ffcbe86c7900a88aedcffc83b479aa3a40260801c5b610200821615612695576ff987a7253ac413176f2b074cf7815e540260801c5b6104008216156126b5576ff3392b0822b70005940c7a398e4b70f30260801c5b6108008216156126d5576fe7159475a2c29b7443b29c7fa6e889d90260801c5b6110008216156126f5576fd097f3bdfd2022b8845ad8f792aa58250260801c5b612000821615612715576fa9f746462d870fdf8a65dc1f90e061e50260801c5b614000821615612735576f70d869a156d2a1b890bb3df62baf32f70260801c5b618000821615612755576f31be135f97d08fd981231505542fcfa60260801c5b62010000821615612776576f09aa508b5b7a84e1c677de54f3e99bc90260801c5b62020000821615612796576e5d6af8dedb81196699c329225ee6040260801c5b620400008216156127b5576d2216e584f5fa1ea926041bedfe980260801c5b620800008216156127d2576b048a170391f7dc42444e8fa20260801c5b60008460020b131561280b57807fffffffffffffffffffffffffffffffffffffffffffffffffffffffffffffffff8161280757fe5b0490505b64010000000081061561281f576001612822565b60005b60ff16602082901c0192505050919050565b600080600080600088612847578561284a565b60005b905060008961285a57600061285c565b865b90507f000000000000000000000000000000000000000000000000000000000000000073ffffffffffffffffffffffffffffffffffffffff1663883164566040518061016001604052807f000000000000000000000000000000000000000000000000000000000000000073ffffffffffffffffffffffffffffffffffffffff1681526020017f000000000000000000000000000000000000000000000000000000000000000073ffffffffffffffffffffffffffffffffffffffff1681526020017f000000000000000000000000000000000000000000000000000000000000000062ffffff1681526020018c60020b81526020018b60020b815260200185815260200184815260200161298561297e60c88a61305490919063ffffffff16565b89906131ad565b815260200161299f6129988860c8613054565b88906131ad565b815230602082015242604091820152517fffffffff0000000000000000000000000000000000000000000000000000000060e084901b1681526129e59190600401614941565b608060405180830381600087803b1580156129ff57600080fd5b505af1158015612a13573d6000803e3d6000fd5b505050506040513d601f19601f82011682018060405250810190612a379190614348565b9298509096509450925083821115612a8f57838203612a8d73ffffffffffffffffffffffffffffffffffffffff7f0000000000000000000000000000000000000000000000000000000000000000163383612fc7565b505b82811115612add57828103612adb73ffffffffffffffffffffffffffffffffffffffff7f0000000000000000000000000000000000000000000000000000000000000000163383612fc7565b505b5050945094509450949050565b6000808360020b8560020b1315612afd57fe5b506000905080845b8460020b8160020b1215612b4457600281810b900b60009081526003602090815260408083205460049092529091205493019291909101908301612b05565b50935093915050565b60006401000276a373ffffffffffffffffffffffffffffffffffffffff831610801590612ba3575073fffd8963efd1fc6a506488495d951d5263988d2673ffffffffffffffffffffffffffffffffffffffff8316105b612c0e57604080517f08c379a000000000000000000000000000000000000000000000000000000000815260206004820152600160248201527f5200000000000000000000000000000000000000000000000000000000000000604482015290519081900360640190fd5b77ffffffffffffffffffffffffffffffffffffffff00000000602083901b166fffffffffffffffffffffffffffffffff811160071b81811c67ffffffffffffffff811160061b90811c63ffffffff811160051b90811c61ffff811160041b90811c60ff8111600390811b91821c600f811160021b90811c918211600190811b92831c97908811961790941790921717909117171760808110612cb857607f810383901c9150612cc2565b80607f0383901b91505b908002607f81811c60ff83811c9190911c800280831c81831c1c800280841c81841c1c800280851c81851c1c800280861c81861c1c800280871c81871c1c800280881c81881c1c800280891c81891c1c8002808a1c818a1c1c8002808b1c818b1c1c8002808c1c818c1c1c8002808d1c818d1c1c8002808e1c9c81901c9c909c1c80029c8d901c9e9d7fffffffffffffffffffffffffffffffffffffffffffffffffffffffffffffff808f0160401b60c09190911c678000000000000000161760c19b909b1c674000000000000000169a909a1760c29990991c672000000000000000169890981760c39790971c671000000000000000169690961760c49590951c670800000000000000169490941760c59390931c670400000000000000169290921760c69190911c670200000000000000161760c79190911c670100000000000000161760c89190911c6680000000000000161760c99190911c6640000000000000161760ca9190911c6620000000000000161760cb9190911c6610000000000000161760cc9190911c6608000000000000161760cd9190911c66040000000000001617693627a301d71055774c8581027ffffffffffffffffffffffffffffffffffd709b7e5480fba5a50fed5e62ffc5568101608090811d906fdb2df09e81959a81455e260799a0632f8301901d600281810b9083900b14612f0a578873ffffffffffffffffffffffffffffffffffffffff16612ee1826124a1565b73ffffffffffffffffffffffffffffffffffffffff161115612f035781612f05565b805b612f0c565b815b9998505050505050505050565b6000806000806000612f2b878761360e565b9050612f3687610996565b6fffffffffffffffffffffffffffffffff16816fffffffffffffffffffffffffffffffff161115612f93576040517f08c379a0000000000000000000000000000000000000000000000000000000008152600401610798906146a0565b612f9c87613650565b9093509150612fab8782613678565b9095509350612fbb8585896137be565b50505092959194509250565b6040805173ffffffffffffffffffffffffffffffffffffffff8416602482015260448082018490528251808303909101815260649091019091526020810180517bffffffffffffffffffffffffffffffffffffffffffffffffffffffff167fa9059cbb000000000000000000000000000000000000000000000000000000001790526115e99084906130d5565b60008082116130c457604080517f08c379a000000000000000000000000000000000000000000000000000000000815260206004820152601a60248201527f536166654d6174683a206469766973696f6e206279207a65726f000000000000604482015290519081900360640190fd5b8183816130cd57fe5b049392505050565b6000613137826040518060400160405280602081526020017f5361666545524332303a206c6f772d6c6576656c2063616c6c206661696c65648152508573ffffffffffffffffffffffffffffffffffffffff166138c29092919063ffffffff16565b8051909150156115e95780806020019051602081101561315657600080fd5b50516115e9576040517f08c379a000000000000000000000000000000000000000000000000000000000815260040180806020018281038252602a815260200180614af8602a913960400191505060405180910390fd5b60008282111561321e57604080517f08c379a000000000000000000000000000000000000000000000000000000000815260206004820152601e60248201527f536166654d6174683a207375627472616374696f6e206f766572666c6f770000604482015290519081900360640190fd5b50900390565b600085815260066020526040812054612710919060ff166132715761326c61326561325c60015460005461221a90919063ffffffff16565b60005490613054565b85906138d1565b613292565b6000546132929061328c846132868a8961221a565b90613054565b906138d1565b6000888152600660205260408120549192509060ff166132c6576000546132c19061328c856132868a8961221a565b6132e3565b6132e361326561325c60015460005461221a90919063ffffffff16565b6000898152600660205260408120549192509060ff1661332f5761332a61332361331a60015460005461221a90919063ffffffff16565b60015490613054565b87906138d1565b613344565b6001546133449061328c866132868c8b61221a565b60008a8152600660205260408120549192509060ff16613378576001546133739061328c876132868c8b61221a565b613395565b61339561332361331a60015460005461221a90919063ffffffff16565b60008b8152600660205260408120549192509060ff166133b65760006133d3565b6133d36133c3868561221a565b6133cd8c8b61221a565b906131ad565b60008c8152600660205260408120549192509060ff166133ff576133fa6133c3868561221a565b613402565b60005b905081156134605760008c8152600660205260409020600301546134609073ffffffffffffffffffffffffffffffffffffffff7f00000000000000000000000000000000000000000000000000000000000000008116911684612fc7565b80156134bc5760008c8152600660205260409020600301546134bc9073ffffffffffffffffffffffffffffffffffffffff7f00000000000000000000000000000000000000000000000000000000000000008116911683612fc7565b61351d73ffffffffffffffffffffffffffffffffffffffff7f0000000000000000000000000000000000000000000000000000000000000000167f000000000000000000000000000000000000000000000000000000000000000088612fc7565b61357e73ffffffffffffffffffffffffffffffffffffffff7f0000000000000000000000000000000000000000000000000000000000000000167f000000000000000000000000000000000000000000000000000000000000000087612fc7565b6135bf73ffffffffffffffffffffffffffffffffffffffff7f0000000000000000000000000000000000000000000000000000000000000000163386612fc7565b61360073ffffffffffffffffffffffffffffffffffffffff7f0000000000000000000000000000000000000000000000000000000000000000163385612fc7565b505050505050505050505050565b6000828152600660205260408120600181015460029091015461364991906132869085906fffffffffffffffffffffffffffffffff166138d1565b9392505050565b60008061366e6fffffffffffffffffffffffffffffffff80856137be565b9094909350915050565b60008060008061368786611b08565b915091506000806136b161369961160b565b6136a286610dcc565b6136ab86610dcc565b8a613944565b6040805160a0810182528b81526fffffffffffffffffffffffffffffffff8b1660208201528082018490526060810183905242608082015290517f0c49ccbe00000000000000000000000000000000000000000000000000000000815292945090925073ffffffffffffffffffffffffffffffffffffffff7f00000000000000000000000000000000000000000000000000000000000000001691630c49ccbe9161375e916004016148b1565b6040805180830381600087803b15801561377757600080fd5b505af115801561378b573d6000803e3d6000fd5b505050506040513d601f19601f820116820180604052508101906137af91906143a4565b90999098509650505050505050565b604080516080810182528281523060208201526fffffffffffffffffffffffffffffffff808616828401528416606082015290517ffc6f7865000000000000000000000000000000000000000000000000000000008152600091829173ffffffffffffffffffffffffffffffffffffffff7f0000000000000000000000000000000000000000000000000000000000000000169163fc6f7865916138659190600401614858565b6040805180830381600087803b15801561387e57600080fd5b505af1158015613892573d6000803e3d6000fd5b505050506040513d601f19601f820116820180604052508101906138b691906143a4565b90969095509350505050565b6060611c1e8484600085613a2e565b6000826138e057506000612291565b828202828482816138ed57fe5b041461228e576040517f08c379a0000000000000000000000000000000000000000000000000000000008152600401808060200182810382526021815260200180614ad76021913960400191505060405180910390fd5b6000808373ffffffffffffffffffffffffffffffffffffffff168573ffffffffffffffffffffffffffffffffffffffff16111561397f579293925b8473ffffffffffffffffffffffffffffffffffffffff168673ffffffffffffffffffffffffffffffffffffffff16116139c4576139bd858585613be8565b9150613a25565b8373ffffffffffffffffffffffffffffffffffffffff168673ffffffffffffffffffffffffffffffffffffffff161015613a1757613a03868585613be8565b9150613a10858785613c9b565b9050613a25565b613a22858585613c9b565b90505b94509492505050565b606082471015613a89576040517f08c379a0000000000000000000000000000000000000000000000000000000008152600401808060200182810382526026815260200180614ab16026913960400191505060405180910390fd5b613a9285613d17565b613afd57604080517f08c379a000000000000000000000000000000000000000000000000000000000815260206004820152601d60248201527f416464726573733a2063616c6c20746f206e6f6e2d636f6e7472616374000000604482015290519081900360640190fd5b6000808673ffffffffffffffffffffffffffffffffffffffff1685876040518082805190602001908083835b60208310613b6657805182527fffffffffffffffffffffffffffffffffffffffffffffffffffffffffffffffe09092019160209182019101613b29565b6001836020036101000a03801982511681845116808217855250505050505090500191505060006040518083038185875af1925050503d8060008114613bc8576040519150601f19603f3d011682016040523d82523d6000602084013e613bcd565b606091505b5091509150613bdd828286613d1d565b979650505050505050565b60008273ffffffffffffffffffffffffffffffffffffffff168473ffffffffffffffffffffffffffffffffffffffff161115613c22579192915b8373ffffffffffffffffffffffffffffffffffffffff16613c8b606060ff16846fffffffffffffffffffffffffffffffff16901b86860373ffffffffffffffffffffffffffffffffffffffff168673ffffffffffffffffffffffffffffffffffffffff16613ddb565b81613c9257fe5b04949350505050565b60008273ffffffffffffffffffffffffffffffffffffffff168473ffffffffffffffffffffffffffffffffffffffff161115613cd5579192915b611c1e826fffffffffffffffffffffffffffffffff1685850373ffffffffffffffffffffffffffffffffffffffff166c01000000000000000000000000613ddb565b3b151590565b60608315613d2c575081613649565b825115613d3c5782518084602001fd5b816040517f08c379a00000000000000000000000000000000000000000000000000000000081526004018080602001828103825283818151815260200191508051906020019080838360005b83811015613da0578181015183820152602001613d88565b50505050905090810190601f168015613dcd5780820380516001836020036101000a031916815260200191505b509250505060405180910390fd5b600080807fffffffffffffffffffffffffffffffffffffffffffffffffffffffffffffffff85870986860292508281109083900303905080613e2f5760008411613e2457600080fd5b508290049050613649565b808411613e3b57600080fd5b6000848688096000868103871696879004966002600389028118808a02820302808a02820302808a02820302808a02820302808a02820302808a02909103029181900381900460010186841190950394909402919094039290920491909117919091029150509392505050565b828054600181600116156101000203166002900490600052602060002090601f016020900481019282613ede5760008555613f42565b82601f10613f15578280017fffffffffffffffffffffffffffffffffffffffffffffffffffffffffffffff00823516178555613f42565b82800160010185558215613f42579182015b82811115613f42578235825591602001919060010190613f27565b50613f4e929150613f52565b5090565b5b80821115613f4e5760008155600101613f53565b8051610dda81614a6e565b60008083601f840112613f83578182fd5b50813567ffffffffffffffff811115613f9a578182fd5b602083019150836020828501011115613fb257600080fd5b9250929050565b8035610dda81614aa1565b8051610dda81614aa1565b80516fffffffffffffffffffffffffffffffff81168114610dda57600080fd5b805161ffff81168114610dda57600080fd5b805162ffffff81168114610dda57600080fd5b60008060008060006080868803121561402b578081fd5b853561403681614a6e565b9450602086013561404681614a6e565b935060408601359250606086013567ffffffffffffffff811115614068578182fd5b61407488828901613f72565b969995985093965092949392505050565b600080600060608486031215614099578283fd5b833567ffffffffffffffff808211156140b0578485fd5b818601915086601f8301126140c3578485fd5b81356020828211156140d157fe5b808202604051828282010181811086821117156140ea57fe5b604052838152828101945085830182870184018c101561410857898afd5b8996505b8487101561412a57803586526001969096019594830194830161410c565b50975061413a9050888201613fb9565b95505050505061414c60408501613fb9565b90509250925092565b60008060408385031215614167578182fd5b823561417281614a93565b9150602083013561418281614a6e565b809150509250929050565b6000806000606084860312156141a1578283fd5b83356141ac81614a93565b925060208401356141bc81614a6e565b929592945050506040919091013590565b600080602083850312156141df578182fd5b823567ffffffffffffffff8111156141f5578283fd5b6138b685828601613f72565b600060208284031215614212578081fd5b813561228e81614aa1565b60006020828403121561422e578081fd5b815161228e81614aa1565b6000806040838503121561424b578182fd5b823561425681614aa1565b9150602083013561418281614aa1565b60008060006060848603121561427a578081fd5b61428384613fcf565b925060208401519150604084015190509250925092565b600080600080600080600060e0888a0312156142b4578485fd5b87516142bf81614a6e565b60208901519097506142d081614aa1565b95506142de60408901613fef565b94506142ec60608901613fef565b93506142fa60808901613fef565b925060a088015160ff8116811461430f578283fd5b60c089015190925061432081614a93565b8091505092959891949750929550565b600060208284031215614341578081fd5b5035919050565b6000806000806080858703121561435d578182fd5b8451935061436d60208601613fcf565b6040860151606090960151949790965092505050565b60008060408385031215614395578182fd5b50508035926020909101359150565b600080604083850312156143b6578182fd5b505080516020909101519092909150565b6000806000606084860312156143db578081fd5b505081359360208301359350604090920135919050565b6000806000806000806000806000806000806101808d8f031215614414578586fd5b8c516bffffffffffffffffffffffff8116811461442f578687fd5b9b5061443d60208e01613f67565b9a5061444b60408e01613f67565b995061445960608e01613f67565b985061446760808e01614001565b975061447560a08e01613fc4565b965061448360c08e01613fc4565b955061449160e08e01613fcf565b94506101008d015193506101208d015192506144b06101408e01613fcf565b91506144bf6101608e01613fcf565b90509295989b509295989b509295989b565b73ffffffffffffffffffffffffffffffffffffffff169052565b60008151808452815b81811015614510576020818501810151868301820152016144f4565b818111156145215782602083870101525b50601f017fffffffffffffffffffffffffffffffffffffffffffffffffffffffffffffffe0169290920160200192915050565b60020b9052565b62ffffff169052565b73ffffffffffffffffffffffffffffffffffffffff91909116815260200190565b606080825284519082018190526000906020906080840190828801845b828110156145be578151845292840192908401906001016145a2565b505050600295860b918401919091529290930b60409091015292915050565b901515815260200190565b6000831515825260406020830152611c1e60408301846144eb565b9415158552602085019390935273ffffffffffffffffffffffffffffffffffffffff9190911660408401526060830152608082015260a00190565b7fffffffff0000000000000000000000000000000000000000000000000000000091909116815260200190565b60029190910b815260200190565b600292830b8152910b602082015260400190565b60006020825261364960208301846144eb565b60208082526003908201527f4e45460000000000000000000000000000000000000000000000000000000000604082015260600190565b60208082526003908201527f4c50410000000000000000000000000000000000000000000000000000000000604082015260600190565b6020808252600f908201527f75706b6565702066726f6e7472616e0000000000000000000000000000000000604082015260600190565b6020808252601d908201527f75706b656570206f62736f6c6574653a207072696365206368616e6765000000604082015260600190565b60208082526003908201527f4f4e460000000000000000000000000000000000000000000000000000000000604082015260600190565b6020808252600d908201527f4e6f7420746865206f776e657200000000000000000000000000000000000000604082015260600190565b60208082526002908201527f4e41000000000000000000000000000000000000000000000000000000000000604082015260600190565b60208082526003908201527f4e544f0000000000000000000000000000000000000000000000000000000000604082015260600190565b8151815260208083015173ffffffffffffffffffffffffffffffffffffffff16908201526040808301516fffffffffffffffffffffffffffffffff90811691830191909152606092830151169181019190915260800190565b600060a082019050825182526fffffffffffffffffffffffffffffffff602084015116602083015260408301516040830152606083015160608301526080830151608083015292915050565b600060c082019050825182526020830151602083015260408301516040830152606083015160608301526080830151608083015260a083015160a083015292915050565b6000610160820190506149558284516144d1565b602083015161496760208401826144d1565b50604083015161497a604084018261455b565b50606083015161498d6060840182614554565b5060808301516149a06080840182614554565b5060a083015160a083015260c083015160c083015260e083015160e0830152610100808401518184015250610120808401516149de828501826144d1565b505061014092830151919092015290565b6fffffffffffffffffffffffffffffffff91909116815260200190565b62ffffff91909116815260200190565b90815260200190565b94855273ffffffffffffffffffffffffffffffffffffffff938416602086015291151560408501529091166060830152608082015260a00190565b918252602082015260400190565b73ffffffffffffffffffffffffffffffffffffffff81168114614a9057600080fd5b50565b8015158114614a9057600080fd5b8060020b8114614a9057600080fdfe416464726573733a20696e73756666696369656e742062616c616e636520666f722063616c6c536166654d6174683a206d756c7469706c69636174696f6e206f766572666c6f775361666545524332303a204552433230206f7065726174696f6e20646964206e6f742073756363656564a264697066735822122078747513e241291dbbcbf05023884176b53aec970eae60413dbd9976cff5f2d364736f6c63430007060033",
  "immutableReferences": {
    "3133": [
      {
        "length": 32,
        "start": 5394
      },
      {
        "length": 32,
        "start": 5510
      },
      {
        "length": 32,
        "start": 6070
      },
      {
        "length": 32,
        "start": 7450
      }
    ],
    "3135": [
      {
        "length": 32,
        "start": 3666
      },
      {
        "length": 32,
        "start": 6526
      },
      {
        "length": 32,
        "start": 7208
      },
      {
        "length": 32,
        "start": 7587
      },
      {
        "length": 32,
        "start": 10408
      },
      {
        "length": 32,
        "start": 10854
      },
      {
        "length": 32,
        "start": 13367
      },
      {
        "length": 32,
        "start": 13526
      },
      {
        "length": 32,
        "start": 13720
      }
    ],
    "3137": [
      {
        "length": 32,
        "start": 3456
      },
      {
        "length": 32,
        "start": 3704
      },
      {
        "length": 32,
        "start": 6612
      },
      {
        "length": 32,
        "start": 7626
      },
      {
        "length": 32,
        "start": 10468
      },
      {
        "length": 32,
        "start": 10932
      },
      {
        "length": 32,
        "start": 13459
      },
      {
        "length": 32,
        "start": 13623
      },
      {
        "length": 32,
        "start": 13785
      }
    ],
    "3139": [
      {
        "length": 32,
        "start": 7356
      },
      {
        "length": 32,
        "start": 10528
      }
    ],
    "3141": [
      {
        "length": 32,
        "start": 3622
      },
      {
        "length": 32,
        "start": 13560
      },
      {
        "length": 32,
        "start": 13657
      }
    ],
    "3143": [
      {
        "length": 32,
        "start": 3498
      }
    ],
    "3168": [
      {
        "length": 32,
        "start": 2127
      },
      {
        "length": 32,
        "start": 2518
      },
      {
        "length": 32,
        "start": 3800
      },
      {
        "length": 32,
        "start": 6925
      },
      {
        "length": 32,
        "start": 7392
      },
      {
        "length": 32,
        "start": 8335
      },
      {
        "length": 32,
        "start": 10336
      },
      {
        "length": 32,
        "start": 14123
      },
      {
        "length": 32,
        "start": 14385
      }
    ],
    "3170": [
      {
        "length": 32,
        "start": 1680
      },
      {
        "length": 32,
        "start": 2420
      },
      {
        "length": 32,
        "start": 4499
      },
      {
        "length": 32,
        "start": 5648
      },
      {
        "length": 32,
        "start": 5824
      }
    ]
  },
  "source": "// SPDX-License-Identifier: MIT\npragma solidity 0.7.6;\npragma abicoder v2; \n\nimport \"@openzeppelin/contracts/math/SafeMath.sol\";\nimport \"@openzeppelin/contracts/token/ERC20/SafeERC20.sol\";\nimport \"@openzeppelin/contracts/token/ERC20/IERC20.sol\";\n\n//import \"@openzeppelin/contracts/token/ERC20/ERC20.sol\";\nimport \"@uniswap/v3-periphery/contracts/interfaces/INonfungiblePositionManager.sol\";\nimport \"@uniswap/v3-periphery/contracts/libraries/LiquidityAmounts.sol\";\n\nimport \"@uniswap/v3-core/contracts/interfaces/IUniswapV3Factory.sol\";\nimport \"@uniswap/v3-core/contracts/interfaces/IUniswapV3Pool.sol\";\nimport \"@uniswap/v3-core/contracts/libraries/TickMath.sol\";\n\nimport \"@openzeppelin/contracts/token/ERC721/IERC721Receiver.sol\";\n/*import \"@openzeppelin/contracts/token/ERC721/IERC721.sol\";\nimport \"@openzeppelin/contracts/token/ERC721/ERC721Holder.sol\";\n\nimport \"@openzeppelin/master/contracts/introspection/ERC165.sol\";*/\n\ncontract UniV3TradingPair is IERC721Receiver {\n    \n    //using SafeMath for uint160;\n    using SafeMath for uint256;\n    using SafeERC20 for IERC20;\n\n    address public immutable owner;\n    address public immutable poolToken0;\n    address public immutable poolToken1;\n    uint24 public immutable FEE;\n    address public immutable treasury;\n    address public immutable settlerInit;\n\n    uint256 private constant MINT_BURN_SLIPPAGE = 200; // .5% max slippage on order creation\n    \n    uint256 public protocolFee = 5; //protocol fee share in bps\n    uint256 public settlerFee = 0; //settlerFee in bps\n\n    //Upkeep variables\n    int24 private lastCheckedTick; \n    mapping(int24 => uint256[]) activeBuys;\n    mapping(int24 => uint256[]) activeSells;\n    //! Upkeep variables \n\n    string public pairName;\n\n    INonfungiblePositionManager public immutable nftManager;\n    IUniswapV3Pool public immutable pool;\n\n    struct Order {\n        bool side; // true buy 0 for 1, false buy 1 for 0\n        int24 tickLower; // lower price tick for position\n        int24 tickUpper; // higher price tick for position\n        uint256 quantity;\n        uint128 liquidity;\n        address owner;\n        bool active;\n    }\n\n    mapping(uint256 => Order) orders;\n    \n    constructor(\n        address pool_address,\n        address _nftManager,\n        address _treasury,\n        address _settlerInit\n    ) {\n        //pool = _pool;\n        //nftManager = _nftManager;\n        pool = IUniswapV3Pool(pool_address);\n        nftManager = INonfungiblePositionManager(_nftManager);\n        owner = msg.sender;\n        poolToken0 = IUniswapV3Pool(pool_address).token0();\n        poolToken1 = IUniswapV3Pool(pool_address).token1();\n        FEE = IUniswapV3Pool(pool_address).fee();\n        treasury = _treasury;\n        settlerInit = _settlerInit;\n        (, lastCheckedTick , , , , , ) = IUniswapV3Pool(pool_address).slot0();\n    }\n\n    /*----------------------------------------------------------*/\n    /*                     ERC721 ENABLER                       */\n    /*----------------------------------------------------------*/\n\n    function onERC721Received(\n        address operator,\n        address from,\n        uint256 tokenId,\n        bytes calldata\n    ) public override returns (bytes4) {\n        return this.onERC721Received.selector;\n    }\n\n    /*----------------------------------------------------------*/\n    /*                          EVENTS                          */\n    /*----------------------------------------------------------*/\n\n    event Open(\n        uint256 positionId,\n        address trader,\n        bool side,\n        uint160 sqrtPriceX96,\n        uint256 quantity\n    );\n\n    event Close(\n        uint256 positionId\n    );\n\n    event SizeChanged(\n        uint256 positionId,\n        uint256 newQuantity\n    );\n\n    event Settled(\n            bool side,\n            uint256 positionId,\n            address trader,\n            uint256 executionPrice,\n            uint256 quantity\n    );\n\n\n    /*----------------------------------------------------------*/\n    /*                     KEEPER FUNCTIONS                     */\n    /*----------------------------------------------------------*/\n\n    function checkUpkeep(\n        bytes calldata checkData\n    ) public view returns (\n        bool upkeepNeeded,\n        bytes memory performData\n    ){\n        \n        int24 currentTick = getCurrentPoolTick();\n        int24 tickSpacing = pool.tickSpacing(); \n\n        bytes memory pos;\n\n        if(lastCheckedTick == currentTick) {\n            // Price didn't change since last time >> No need to check orders\n            upkeepNeeded = false;\n        }\n        \n        if(lastCheckedTick < currentTick) {\n            // Price is higher than last check: \n            //  We need to check if there are ticks \n            //  with active sell orders to settle\n\n            //Check the number of active positions between our ticks\n            ( ,uint256 totalSellPositions) = noActivePositionsBetweenTicks(lastCheckedTick, currentTick, tickSpacing);\n\n            if (totalSellPositions == 0){\n                //If no position => no upkeep needed\n                upkeepNeeded = false;\n            }\n            else{\n                //Else, upkeep needed and initiate an array to store all positions\n                upkeepNeeded = true;\n                uint256[] memory positions = new uint256[](totalSellPositions);\n\n                //Fill in the array\n                uint256 iter = 0;\n                for (int24 i = lastCheckedTick; i < currentTick; i += tickSpacing){\n                    for (uint j = 0; j < activeSells[i].length; j++){\n                        if(iter < totalSellPositions){ //to avoid array overflow\n                            positions[iter] = activeSells[i][j];\n                            iter++;\n                        }\n                    }\n                }\n\n                pos = abi.encode(positions, lastCheckedTick, currentTick);\n            }       \n        }\n\n        if(lastCheckedTick > currentTick) {\n            // Price is lower than last check: \n            //  We need to check if there are ticks \n            //  with active sell orders to settle\n\n            //Check the number of active positions between our ticks\n            (uint256 totalBuyPositions, ) = noActivePositionsBetweenTicks(currentTick + tickSpacing, lastCheckedTick + tickSpacing, tickSpacing);\n\n            if (totalBuyPositions == 0){\n                //If no position => no upkeep needed\n                upkeepNeeded = false;\n            }\n            else{\n                //Else, upkeep needed and initiate an array to store all positions\n                upkeepNeeded = true;\n                uint256[] memory positions = new uint256[](totalBuyPositions);\n\n                //Fill in the array\n                uint256 iter = 0;\n                for (int24 i = currentTick + tickSpacing; i < lastCheckedTick + tickSpacing; i += tickSpacing){\n                    for (uint j = 0; j < activeBuys[i].length; j++){\n                        if(iter < totalBuyPositions){ //to avoid array overflow\n                            positions[iter] = activeBuys[i][j];\n                            iter++;\n                        }\n                    }\n                }\n\n                pos = abi.encode(positions, lastCheckedTick, currentTick);\n            }  \n        }\n\n        performData = pos;\n\n    }\n\n    function performUpkeep(bytes calldata performData) external {\n\n        (uint256[] memory _positions, int24 _lastCheckedTick, int24 _currentTick) = abi.decode(performData,(uint256[], int24, int24));\n\n        //Check that last checked tick is equal\n        require(_lastCheckedTick == lastCheckedTick, \"upkeep frontran\");\n\n        //Check that current Tick didn't change since checkUpkeep:\n        // If the price continued to trend in the same direction as it was trending since last checkUpkeep, it's fine, the positions \n        // passed to settle are a subset of the total settlable positions. \n\n        int24 currentTick = getCurrentPoolTick();\n\n        require(\n            _currentTick > _lastCheckedTick ?   //currentTick != lastCheckedTick else performUpkeed wouldn't be called\n            _currentTick <= currentTick :       //currentTick kept going up?\n            _currentTick >= currentTick         //currentTick kept going down?\n\n            , \"upkeep obsolete: price change\"\n        );\n\n        for(uint256 p = 0; p < _positions.length; p++){\n            \n            //ensure position is still active\n            if(orders[_positions[p]].active){\n                //recheck that order is closable : price is below lower tick (if buy) or above upper tick (if sell) \n                if(\n                    orders[_positions[p]].side && orders[_positions[p]].tickLower > currentTick \n                    || orders[_positions[p]].side == false && orders[_positions[p]].tickUpper < currentTick\n                ){\n                    settleOrder(_positions[p]);\n                }\n            }\n        }\n\n        //update last checked tick\n        lastCheckedTick = _currentTick;\n    }\n\n    function noActivePositionsBetweenTicks(\n        int24 tickLower, \n        int24 tickUpper,\n        int24 tickSpacing\n    ) \n    private \n    view\n    returns (\n        uint256 noBuyPositions,\n        uint256 noSellPositions\n    ){\n        assert(tickLower <= tickUpper);\n\n        noBuyPositions = 0;\n        noSellPositions = 0;\n\n        for(int24 i = tickLower; i < tickUpper; i += tickSpacing) {\n            noBuyPositions += activeBuys[i].length;\n            noSellPositions += activeSells[i].length;\n        }\n    }\n\n    /*----------------------------------------------------------*/\n    /*                  USER FACING FUNCTIONS                   */\n    /*----------------------------------------------------------*/\n\n    /// notice: Opens a limit order my minting a LP position on the 0.3% Uniswap v3 Pair\n    function createOrder(\n        bool side,\n        uint160 sqrtPriceX96, \n        uint256 quantity\n    ) public payable returns (uint256 positionId) {\n\n        address token = side ? poolToken1 : poolToken0; \n\n        IERC20(token).safeTransferFrom(\n            msg.sender,\n            address(this),\n            quantity\n        );\n\n        IERC20(token).safeIncreaseAllowance(\n            address(nftManager),\n            quantity\n        );\n\n        int24 tickUpper;\n        int24 tickLower;\n        ( tickLower, tickUpper) = getTicksFromPrice(side, sqrtPriceX96);\n\n        uint128 _liquidity;\n        uint256 _amount0;\n        uint256 _amount1;\n\n        (\n            positionId,\n            _liquidity,\n            _amount0,\n            _amount1\n        ) = mintNewPosition(side, tickLower, tickUpper, quantity);\n\n        orders[positionId] = Order({\n            side: side,\n            tickLower: tickLower,\n            tickUpper: tickUpper,\n            quantity: _amount0.add(_amount1),\n            liquidity: _liquidity,\n            owner: msg.sender,\n            active: true\n        });\n\n        emit Open(\n            positionId,\n            msg.sender,\n            side,\n            getPriceFromTicks(tickLower, tickUpper),\n            orders[positionId].quantity\n        );\n    }\n\n    function increaseSize(\n        uint256 positionId,\n        uint256 quantity\n    ) external {\n        require(\n            orders[positionId].owner == msg.sender,\n            \"NTO\" //not the owner\n        );\n        require(\n            orders[positionId].active,\n            \"NA\" //not active\n        );\n\n        address token = getLiquidityToken(positionId);\n        \n        IERC20(token).safeTransferFrom(\n            msg.sender,\n            address(this),\n            quantity\n        );\n\n        IERC20(token).safeIncreaseAllowance(\n            address(nftManager),\n            quantity\n        );\n        \n        uint128 _liquidity;\n        uint256 _amount0;\n        uint256 _amount1;\n\n        (_liquidity, _amount0, _amount1) = increaseLiquidityCurrentRange(positionId, token, quantity);\n        \n        orders[positionId].quantity = _amount0.add(_amount1);\n        orders[positionId].liquidity = _liquidity;\n        \n        emit SizeChanged(\n            positionId,\n            orders[positionId].quantity\n        );\n    }\n\n    /// notice: Decreases the order size of a limit order position\n    function decreaseSize(\n        uint256 positionId,\n        uint256 quantity\n    ) public {\n        require(\n            orders[positionId].owner == msg.sender,\n            \"NTO\" //not the owner\n        );\n        require(\n            orders[positionId].quantity >= quantity,\n            \"NEF\" //not enough funds\n        );\n        require(\n            orders[positionId].active,\n            \"NA\" //not active\n        );\n        \n        uint256 _amount0;\n        uint256 _amount1;\n        uint256 fees0;\n        uint256 fees1;\n\n        (_amount0, _amount1, fees0, fees1) = withdraw(positionId, quantity);\n\n        //update liquidity values\n        orders[positionId].quantity -= _amount0 + _amount1;\n        orders[positionId].liquidity = getPositionLiquidity(positionId);\n        \n        \n        //transfer back the tokens to the msg.sender\n        uint256 refund0 = _amount0 + fees0;\n        uint256 refund1 = _amount1 + fees1;\n\n        IERC20(poolToken0).safeTransfer(msg.sender, refund0);\n        IERC20(poolToken1).safeTransfer(msg.sender, refund1);\n\n        //decreased position to zero\n        if(orders[positionId].liquidity<=0) {\n            orders[positionId].active = false;\n            emit Close(positionId);\n        }\n        else{\n            emit SizeChanged(\n                positionId,\n                orders[positionId].quantity\n            );\n        }\n        \n    }\n\n    /// notice: Closes a limit order position, has to be triggered by the owner of the position\n    function closePositionOwner(uint256 positionId) external {\n        uint256 _quantity = orders[positionId].quantity;\n        decreaseSize(positionId,_quantity); //decrease by the total position Size\n    }\n\n    function settleOrder(\n        uint256 positionId\n    ) private {\n        int24 poolTick = getCurrentPoolTick();\n\n        //Check that the position is fully out of range\n        require(\n            orders[positionId].side ? \n            poolTick < orders[positionId].tickLower :\n            poolTick > orders[positionId].tickUpper\n            ,\"ONF\" // order not filled\n        );\n\n        //check that the position is active\n        require(\n            orders[positionId].active,\n            \"NA\" //not active\n        );\n\n        uint256 _amount0;\n        uint256 _amount1;\n        uint256 positionFee0;\n        uint256 positionFee1;\n\n        (_amount0, _amount1, positionFee0, positionFee1) = withdraw(\n            positionId\n            ,orders[positionId].quantity //withdraw function handles conversion of quantity to liquidity --> no worries\n        );\n\n        //handles tokens distribution between user, treasury and settler\n        settle(positionId, _amount0, _amount1, positionFee0, positionFee1);\n\n        //update position\n        orders[positionId].active = false;\n\n        //calculate executionPrice as token0/token1 -- for USDC/WETH pool: amount of USDC sent/received divided by amount of WETH sent/received\n        uint256 executionPrice = getExecutionPrice(positionId, _amount0 + positionFee0, _amount1 + positionFee1);\n\n        emit Settled(\n            orders[positionId].side,\n            positionId,\n            orders[positionId].owner,\n            executionPrice,\n            orders[positionId].quantity\n        );\n    }\n\n    function settle(\n        uint256 positionId,\n        uint256 amount0,\n        uint256 amount1,\n        uint256 positionFee0,\n        uint256 positionFee1\n    ) private {\n        //Gas optimisation possibility: keep settler fees and add a claimFees() function\n        uint256 bpsDivide = 10000; // 100*100\n        \n        /*uint256 userAmount0;\n        uint256 userAmount1;\n        uint256 protocolFees0;\n        uint256 protocolFees1;\n        uint256 settlerFees0;\n        uint256 settlerFees1;\n        */\n\n        //calc protocol + settler fees\n        uint256 protocolFees0 = orders[positionId].side ? (amount0.add(positionFee0)).div(bpsDivide).mul(protocolFee) : positionFee0.mul(protocolFee.div(protocolFee.add(settlerFee)));\n        uint256 protocolFees1 = orders[positionId].side ? positionFee1.mul(protocolFee.div(protocolFee.add(settlerFee))) : (amount1.add(positionFee1)).div(bpsDivide).mul(protocolFee);\n        uint256 settlerFees0 = orders[positionId].side ? (amount0.add(positionFee0)).div(bpsDivide).mul(settlerFee) : positionFee0.mul(settlerFee.div(protocolFee.add(settlerFee)));\n        uint256 settlerFees1 = orders[positionId].side ? positionFee1.mul(settlerFee.div(protocolFee.add(settlerFee))) : (amount1.add(positionFee1)).div(bpsDivide).mul(settlerFee);\n\n        //all that remains goes to the user\n        uint256 userAmount0 = orders[positionId].side ? (amount0.add(positionFee0)).sub(protocolFees0.add(settlerFees0)) : 0 ;\n        uint256 userAmount1 = orders[positionId].side ? 0 : (amount1.add(positionFee1)).sub(protocolFees1.add(settlerFees1)) ;\n\n        //settle user amounts, here we choose not to send dust (accumulated Uniswap fees on the other side of the trade) to the user\n        if (userAmount0 > 0) {\n            IERC20(poolToken0).safeTransfer(orders[positionId].owner, userAmount0);\n        }\n        \n        if (userAmount1 > 0) {\n            IERC20(poolToken1).safeTransfer(orders[positionId].owner, userAmount1);\n        }\n\n        //settle treasury amounts\n        IERC20(poolToken0).safeTransfer(treasury, protocolFees0);\n        IERC20(poolToken1).safeTransfer(treasury, protocolFees1);\n\n        //settle settler amounts\n        IERC20(poolToken0).safeTransfer(msg.sender, settlerFees0);\n        IERC20(poolToken1).safeTransfer(msg.sender, settlerFees1);\n\n    }\n\n    function getExecutionPrice(\n        uint256 positionId,\n        uint256 userAmount0,\n        uint256 userAmount1\n    ) public view returns(\n        uint256 price\n    ) {\n        price = orders[positionId].side ? userAmount0.div(orders[positionId].quantity) : orders[positionId].quantity.div(userAmount1);\n    }\n\n    /*----------------------------------------------------------*/\n    /*          UNISWAP POSITION MANAGER FUNCTIONS              */\n    /*----------------------------------------------------------*/\n\n    function mintNewPosition(\n        bool side,\n        int24 tickLower,\n        int24 tickUpper,\n        uint256 quantity\n    ) private returns(\n        uint256 tokenId,\n        uint128 liquidity,\n        uint256 amount0,\n        uint256 amount1\n    ){\n        \n        uint256 amount0ToMint = side ? 0 : quantity;\n        uint256 amount1ToMint = side ? quantity : 0;\n        \n        (tokenId, liquidity, amount0, amount1) = nftManager.mint(\n            INonfungiblePositionManager.MintParams({\n                token0: poolToken0,\n                token1: poolToken1,\n                fee: FEE,\n                tickLower: tickLower,\n                tickUpper: tickUpper,\n                amount0Desired: amount0ToMint,\n                amount1Desired: amount1ToMint,\n                amount0Min: amount0.sub(amount0.div(MINT_BURN_SLIPPAGE)),\n                amount1Min: amount1.sub(amount1.div(MINT_BURN_SLIPPAGE)),\n                recipient: address(this),\n                deadline: block.timestamp\n            })\n        );\n\n        //refund unused tokens -- this should be optimized for gas: first calculated the amount to send, then take it from the user\n        if(amount0ToMint > amount0){\n            uint256 refund0 = amount0ToMint - amount0;\n            IERC20(poolToken0).safeTransfer(msg.sender, refund0);\n        }\n\n        if(amount1ToMint > amount1){\n            uint256 refund1 = amount1ToMint - amount1;\n            IERC20(poolToken1).safeTransfer(msg.sender, refund1);\n        }\n\n    }\n\n    function increaseLiquidityCurrentRange(\n        uint256 positionId,\n        address token,\n        uint256 quantity\n    ) private returns(\n        uint128 newLiquidity,\n        uint256 newAmount0,\n        uint256 newAmount1\n    ){\n        (int24 tickLower, int24 tickUpper) = getTicks(positionId);\n\n        //require that pool price is outside of order range\n        int24 currentTick = getCurrentPoolTick();\n        require(\n            tickUpper != currentTick && tickLower != currentTick, // ticks are always next to each other so that's enough\n            \"LPA\" // Liquidity position is active\n        );\n\n        uint256 amount0toAdd = orders[positionId].side ? 0 : quantity;\n        uint256 amount1toAdd = orders[positionId].side ? quantity : 0;\n\n        //add liquidity\n        (newLiquidity, newAmount0, newAmount1) = nftManager.increaseLiquidity(\n            INonfungiblePositionManager.IncreaseLiquidityParams({\n                tokenId: positionId,\n                amount0Desired: amount0toAdd,\n                amount1Desired: amount1toAdd,\n                amount0Min: amount0toAdd.sub(\n                    amount0toAdd.div(MINT_BURN_SLIPPAGE)\n                ),\n                amount1Min: amount1toAdd.sub(\n                    amount1toAdd.div(MINT_BURN_SLIPPAGE)\n                ),\n                deadline: block.timestamp\n            })\n        );\n\n        //refund unspent tokens to the user\n        uint256 refund = orders[positionId].side ? amount1toAdd + orders[positionId].quantity - newAmount1 : amount0toAdd + orders[positionId].quantity - newAmount0; \n        IERC20(token).safeTransfer(msg.sender, refund);\n    }\n\n    function decreaseLiquidityCurrentRange(\n        uint256 positionId,\n        uint128 liquidity\n    ) private returns (uint256 amount0, uint256 amount1){\n        \n        (int24 tickLower, int24 tickUpper) = getTicks(positionId);\n\n        uint256 _amount0;\n        uint256 _amount1;\n\n        (_amount0, _amount1) = LiquidityAmounts.getAmountsForLiquidity(\n            getPoolPrice(),\n            getPriceFromTick(tickLower),\n            getPriceFromTick(tickUpper),\n            liquidity\n        );\n\n        (amount0, amount1) = nftManager.decreaseLiquidity(\n            INonfungiblePositionManager.DecreaseLiquidityParams({\n                tokenId: positionId,\n                liquidity: liquidity,\n                amount0Min: _amount0,\n                amount1Min: _amount1,\n                deadline: block.timestamp\n            })\n        );\n    }\n\n    function withdraw(\n        uint256 positionId,\n        uint256 amount \n    ) private returns (\n        uint256 _amount0,\n        uint256 _amount1,\n        uint256 feesCollected0,\n        uint256 feesCollected1\n    ) {\n        //translate amount requested into Uni pool's liquidity value\n        uint128 _liquidity = getLiquidityFromAmount(positionId,amount);\n        require(_liquidity<=getPositionLiquidity(positionId), \"NEF\"); \n\n        //collect accrued fees\n        (feesCollected0, feesCollected1) = collect(positionId); // collected by the contract\n\n        //decrease Liq\n        (_amount0, _amount1) = decreaseLiquidityCurrentRange(positionId,_liquidity);\n\n        //harvest total position\n        collectPosition(uint128(_amount0), uint128(_amount1), positionId);\n\n        // !!! At the end of the operation, the position's tokens are still held by the contract\n        // If the withdraw function is triggered from decreaseSize() or closePositionOwner(), the \n        // full balance is returned to the user (see each functions).\n        // If the withdraw function is triggered from settleOrder(), the balance harvested is returned\n        // to the user minus service fee. \n    }\n\n\n\n    function getLiquidityFromAmount(uint256 positionId, uint256 amount) private view returns (uint128 _liquidity) {\n        _liquidity = uint128(amount.mul(orders[positionId].liquidity).div(orders[positionId].quantity));\n    }\n\n    \n\n\n    function getTicks(\n        uint256 positionId\n    ) public view returns (int24 tickLower, int24 tickUpper) {\n        (, , , , , tickLower, tickUpper, , , , , ) = nftManager.positions(\n            positionId\n        );\n    }\n\n    function burn(uint256 tokenId) private {\n        nftManager.burn(tokenId);\n    }\n    \n    // Collect fees\n    function collect(\n        uint256 positionId\n    ) private returns (uint256 collected0, uint256 collected1) {\n        (collected0, collected1) = collectPosition(\n            type(uint128).max,\n            type(uint128).max,\n            positionId\n        );\n    }\n\n    function getLiquidityToken(uint256 positionId) private view returns(address token) {\n        return orders[positionId].side ? poolToken1 : poolToken0;\n    }\n\n    //Collect token amounts from pool position -- tokens need to have been withdrawn with decreaseLiquidity\n    function collectPosition(\n        uint128 amount0,\n        uint128 amount1,\n        uint256 positionId\n    ) private returns (uint256 collected0, uint256 collected1) {\n\n        (collected0, collected1) = nftManager.collect(\n            INonfungiblePositionManager.CollectParams({\n                tokenId: positionId,\n                recipient: address(this),\n                amount0Max: amount0,\n                amount1Max: amount1\n            })\n        );\n    }\n\n    function getTicksFromPrice(bool side, uint160 sqrtPriceX96) public view returns(\n        int24 tickLower,\n        int24 tickUpper\n    ) {\n        int24 tickSpacing = pool.tickSpacing();\n        int24 closestTick = TickMath.getTickAtSqrtRatio(sqrtPriceX96);\n\n        if(side) {\n            tickUpper = closestTick - (closestTick % tickSpacing);\n            tickLower = tickUpper - tickSpacing;\n        } else {\n            tickLower = closestTick - (closestTick % tickSpacing) + tickSpacing;\n            tickUpper = tickLower + tickSpacing;\n        }\n    }\n\n    function getPriceFromTicks(int24 tickLower, int24 tickUpper) public view returns(uint160 sqrtPriceX96){\n        uint160 p1 = TickMath.getSqrtRatioAtTick(tickLower);\n        uint160 p2 = TickMath.getSqrtRatioAtTick(tickUpper);\n\n        sqrtPriceX96 = (p1 + p2) / 2;\n    }\n\n    /*----------------------------------------------------------*/\n    /*                      UNISWAP UTILS                       */\n    /*----------------------------------------------------------*/\n\n    function getPriceFromTick(int24 tick) public pure returns (uint160) {\n        return TickMath.getSqrtRatioAtTick(tick);\n    }\n\n    function getCurrentPoolTick() public view returns (int24 tick){\n        (, tick , , , , , ) = pool.slot0();\n    }\n\n    function getPositionLiquidity(\n        uint256 positionId\n    ) public view returns (uint128 liquidity) {\n        (, , , , , , , liquidity, , , , ) = nftManager.positions(positionId);\n    }\n\n    function getPoolPrice() public view returns (uint160 price) {\n        (uint160 sqrtRatioX96, , , , , , ) = pool.slot0();\n        return sqrtRatioX96;\n    }\n\n\n    /*----------------------------------------------------------*/\n    /*                    POSITION GETTERS                      */\n    /*----------------------------------------------------------*/\n\n   function getSide(uint256 positionId) public view returns (bool side) {\n        side = orders[positionId].side;\n    }\n    function getTickLower(uint256 positionId) public view returns (int24 tickLower) {\n        tickLower = orders[positionId].tickLower;\n    }\n    function getTickUpper(uint256 positionId) public view returns (int24 tickUpper) {\n        tickUpper = orders[positionId].tickUpper;\n    }\n    function getQuantity(uint256 positionId) public view returns (uint256 quantity) {\n        quantity = orders[positionId].quantity;\n    }\n    function getOwner(uint256 positionId) public view returns (address _owner) {\n        _owner = orders[positionId].owner;\n    }\n    function getActivityStatus(uint256 positionId) public view returns (bool active) {\n        active = orders[positionId].active;\n    }\n    \n    /*function getPosition(uint256 positionId) public view returns(Order order) {\n        order = orders[positionId];\n    }*/\n\n    \n    /*receive() external payable {\n        //If someone sends gas to the contract, account it uner their address\n        gasProvision[msg.sender]+=msg.value; \n    }*/\n\n    /*----------------------------------------------------------*/\n    /*                         SETTERS                          */\n    /*----------------------------------------------------------*/\n\n    function setProtocolFee(uint256 feeBips) public {\n        require(msg.sender == owner, \"Not the owner\");\n        protocolFee = feeBips;\n    }\n\n    function setSettlerFee(uint256 feeBips) public {\n        require(msg.sender == owner, \"Not the owner\");\n        settlerFee = feeBips;\n    }\n\n    function setPairName(string calldata _name) public {\n        require(msg.sender == owner, \"Not the owner\");\n        pairName = _name;\n    }\n}",
  "sourcePath": "C:\\Users\\LeoDu\\Documents\\UniLimit\\contracts\\UniV3TradingPair.sol",
  "compiler": {
    "name": "solc",
    "version": "0.7.6+commit.7338295f.Emscripten.clang"
  },
  "schemaVersion": "3.4.10",
  "updatedAt": "2022-11-30T11:47:30.697Z",
  "networkType": "ethereum",
  "devdoc": {
    "kind": "dev",
    "methods": {},
    "version": 1
  },
  "userdoc": {
    "kind": "user",
    "methods": {
      "closePositionOwner(uint256)": {
        "notice": "notice: Closes a limit order position, has to be triggered by the owner of the position"
      },
      "createOrder(bool,uint160,uint256)": {
        "notice": "notice: Opens a limit order my minting a LP position on the 0.3% Uniswap v3 Pair"
      },
      "decreaseSize(uint256,uint256)": {
        "notice": "notice: Decreases the order size of a limit order position"
      }
    },
    "version": 1
  }
}