{
  "contractName": "UniV3TradingPair",
  "abi": [
    {
      "inputs": [
        {
          "internalType": "address",
          "name": "pool_address",
          "type": "address"
        },
        {
          "internalType": "address",
          "name": "_nftManager",
          "type": "address"
        },
        {
          "internalType": "address",
          "name": "_treasury",
          "type": "address"
        }
      ],
      "stateMutability": "nonpayable",
      "type": "constructor"
    },
    {
      "anonymous": false,
      "inputs": [
        {
          "indexed": false,
          "internalType": "uint256",
          "name": "positionId",
          "type": "uint256"
        }
      ],
      "name": "Close",
      "type": "event"
    },
    {
      "anonymous": false,
      "inputs": [
        {
          "indexed": false,
          "internalType": "uint256",
          "name": "positionId",
          "type": "uint256"
        },
        {
          "indexed": true,
          "internalType": "address",
          "name": "trader",
          "type": "address"
        },
        {
          "indexed": false,
          "internalType": "bool",
          "name": "side",
          "type": "bool"
        },
        {
          "indexed": false,
          "internalType": "uint160",
          "name": "sqrtPriceX96",
          "type": "uint160"
        },
        {
          "indexed": false,
          "internalType": "uint256",
          "name": "quantity",
          "type": "uint256"
        }
      ],
      "name": "Open",
      "type": "event"
    },
    {
      "anonymous": false,
      "inputs": [
        {
          "indexed": false,
          "internalType": "bool",
          "name": "side",
          "type": "bool"
        },
        {
          "indexed": false,
          "internalType": "uint256",
          "name": "positionId",
          "type": "uint256"
        },
        {
          "indexed": true,
          "internalType": "address",
          "name": "trader",
          "type": "address"
        },
        {
          "indexed": false,
          "internalType": "uint256",
          "name": "executionPrice",
          "type": "uint256"
        },
        {
          "indexed": false,
          "internalType": "uint256",
          "name": "quantity",
          "type": "uint256"
        }
      ],
      "name": "Settled",
      "type": "event"
    },
    {
      "anonymous": false,
      "inputs": [
        {
          "indexed": false,
          "internalType": "uint256",
          "name": "positionId",
          "type": "uint256"
        },
        {
          "indexed": false,
          "internalType": "uint256",
          "name": "newQuantity",
          "type": "uint256"
        }
      ],
      "name": "SizeChanged",
      "type": "event"
    },
    {
      "inputs": [],
      "name": "FEE",
      "outputs": [
        {
          "internalType": "uint24",
          "name": "",
          "type": "uint24"
        }
      ],
      "stateMutability": "view",
      "type": "function",
      "constant": true
    },
    {
      "inputs": [],
      "name": "nftManager",
      "outputs": [
        {
          "internalType": "contract INonfungiblePositionManager",
          "name": "",
          "type": "address"
        }
      ],
      "stateMutability": "view",
      "type": "function",
      "constant": true
    },
    {
      "inputs": [],
      "name": "owner",
      "outputs": [
        {
          "internalType": "address",
          "name": "",
          "type": "address"
        }
      ],
      "stateMutability": "view",
      "type": "function",
      "constant": true
    },
    {
      "inputs": [],
      "name": "pool",
      "outputs": [
        {
          "internalType": "contract IUniswapV3Pool",
          "name": "",
          "type": "address"
        }
      ],
      "stateMutability": "view",
      "type": "function",
      "constant": true
    },
    {
      "inputs": [],
      "name": "poolToken0",
      "outputs": [
        {
          "internalType": "address",
          "name": "",
          "type": "address"
        }
      ],
      "stateMutability": "view",
      "type": "function",
      "constant": true
    },
    {
      "inputs": [],
      "name": "poolToken1",
      "outputs": [
        {
          "internalType": "address",
          "name": "",
          "type": "address"
        }
      ],
      "stateMutability": "view",
      "type": "function",
      "constant": true
    },
    {
      "inputs": [],
      "name": "protocolFee",
      "outputs": [
        {
          "internalType": "uint256",
          "name": "",
          "type": "uint256"
        }
      ],
      "stateMutability": "view",
      "type": "function",
      "constant": true
    },
    {
      "inputs": [],
      "name": "settlerFee",
      "outputs": [
        {
          "internalType": "uint256",
          "name": "",
          "type": "uint256"
        }
      ],
      "stateMutability": "view",
      "type": "function",
      "constant": true
    },
    {
      "inputs": [],
      "name": "treasury",
      "outputs": [
        {
          "internalType": "address",
          "name": "",
          "type": "address"
        }
      ],
      "stateMutability": "view",
      "type": "function",
      "constant": true
    },
    {
      "inputs": [
        {
          "internalType": "address",
          "name": "operator",
          "type": "address"
        },
        {
          "internalType": "address",
          "name": "from",
          "type": "address"
        },
        {
          "internalType": "uint256",
          "name": "tokenId",
          "type": "uint256"
        },
        {
          "internalType": "bytes",
          "name": "",
          "type": "bytes"
        }
      ],
      "name": "onERC721Received",
      "outputs": [
        {
          "internalType": "bytes4",
          "name": "",
          "type": "bytes4"
        }
      ],
      "stateMutability": "nonpayable",
      "type": "function"
    },
    {
      "inputs": [
        {
          "internalType": "bool",
          "name": "side",
          "type": "bool"
        },
        {
          "internalType": "uint160",
          "name": "sqrtPriceX96",
          "type": "uint160"
        },
        {
          "internalType": "uint256",
          "name": "quantity",
          "type": "uint256"
        }
      ],
      "name": "createOrder",
      "outputs": [
        {
          "internalType": "uint256",
          "name": "positionId",
          "type": "uint256"
        }
      ],
      "stateMutability": "payable",
      "type": "function",
      "payable": true
    },
    {
      "inputs": [
        {
          "internalType": "uint256",
          "name": "positionId",
          "type": "uint256"
        },
        {
          "internalType": "uint256",
          "name": "quantity",
          "type": "uint256"
        }
      ],
      "name": "increaseSize",
      "outputs": [],
      "stateMutability": "nonpayable",
      "type": "function"
    },
    {
      "inputs": [
        {
          "internalType": "uint256",
          "name": "positionId",
          "type": "uint256"
        },
        {
          "internalType": "uint256",
          "name": "quantity",
          "type": "uint256"
        }
      ],
      "name": "decreaseSize",
      "outputs": [],
      "stateMutability": "nonpayable",
      "type": "function"
    },
    {
      "inputs": [
        {
          "internalType": "uint256",
          "name": "positionId",
          "type": "uint256"
        }
      ],
      "name": "closePositionOwner",
      "outputs": [],
      "stateMutability": "nonpayable",
      "type": "function"
    },
    {
      "inputs": [
        {
          "internalType": "uint256",
          "name": "positionId",
          "type": "uint256"
        }
      ],
      "name": "settleOrder",
      "outputs": [],
      "stateMutability": "nonpayable",
      "type": "function"
    },
    {
      "inputs": [
        {
          "internalType": "uint256",
          "name": "positionId",
          "type": "uint256"
        },
        {
          "internalType": "uint256",
          "name": "userAmount0",
          "type": "uint256"
        },
        {
          "internalType": "uint256",
          "name": "userAmount1",
          "type": "uint256"
        }
      ],
      "name": "getExecutionPrice",
      "outputs": [
        {
          "internalType": "uint256",
          "name": "price",
          "type": "uint256"
        }
      ],
      "stateMutability": "view",
      "type": "function",
      "constant": true
    },
    {
      "inputs": [
        {
          "internalType": "int24",
          "name": "tick",
          "type": "int24"
        }
      ],
      "name": "getPriceFromTick",
      "outputs": [
        {
          "internalType": "uint160",
          "name": "",
          "type": "uint160"
        }
      ],
      "stateMutability": "pure",
      "type": "function",
      "constant": true
    },
    {
      "inputs": [],
      "name": "getCurrentPoolTick",
      "outputs": [
        {
          "internalType": "int24",
          "name": "tick",
          "type": "int24"
        }
      ],
      "stateMutability": "view",
      "type": "function",
      "constant": true
    },
    {
      "inputs": [
        {
          "internalType": "uint256",
          "name": "positionId",
          "type": "uint256"
        }
      ],
      "name": "getPositionLiquidity",
      "outputs": [
        {
          "internalType": "uint128",
          "name": "liquidity",
          "type": "uint128"
        }
      ],
      "stateMutability": "view",
      "type": "function",
      "constant": true
    },
    {
      "inputs": [],
      "name": "getPoolPrice",
      "outputs": [
        {
          "internalType": "uint160",
          "name": "price",
          "type": "uint160"
        }
      ],
      "stateMutability": "view",
      "type": "function",
      "constant": true
    },
    {
      "inputs": [
        {
          "internalType": "uint256",
          "name": "positionId",
          "type": "uint256"
        }
      ],
      "name": "getTicks",
      "outputs": [
        {
          "internalType": "int24",
          "name": "tickLower",
          "type": "int24"
        },
        {
          "internalType": "int24",
          "name": "tickUpper",
          "type": "int24"
        }
      ],
      "stateMutability": "view",
      "type": "function",
      "constant": true
    },
    {
      "inputs": [
        {
          "internalType": "int24",
          "name": "tickLower",
          "type": "int24"
        },
        {
          "internalType": "int24",
          "name": "tickUpper",
          "type": "int24"
        }
      ],
      "name": "getPriceFromTicks",
      "outputs": [
        {
          "internalType": "uint160",
          "name": "sqrtPriceX96",
          "type": "uint160"
        }
      ],
      "stateMutability": "view",
      "type": "function",
      "constant": true
    },
    {
      "inputs": [
        {
          "internalType": "bool",
          "name": "side",
          "type": "bool"
        },
        {
          "internalType": "uint160",
          "name": "sqrtPriceX96",
          "type": "uint160"
        }
      ],
      "name": "getTicksFromPrice",
      "outputs": [
        {
          "internalType": "int24",
          "name": "tickLower",
          "type": "int24"
        },
        {
          "internalType": "int24",
          "name": "tickUpper",
          "type": "int24"
        }
      ],
      "stateMutability": "view",
      "type": "function",
      "constant": true
    },
    {
      "inputs": [
        {
          "internalType": "uint256",
          "name": "positionId",
          "type": "uint256"
        }
      ],
      "name": "getSide",
      "outputs": [
        {
          "internalType": "bool",
          "name": "side",
          "type": "bool"
        }
      ],
      "stateMutability": "view",
      "type": "function",
      "constant": true
    },
    {
      "inputs": [
        {
          "internalType": "uint256",
          "name": "positionId",
          "type": "uint256"
        }
      ],
      "name": "getTickLower",
      "outputs": [
        {
          "internalType": "int24",
          "name": "tickLower",
          "type": "int24"
        }
      ],
      "stateMutability": "view",
      "type": "function",
      "constant": true
    },
    {
      "inputs": [
        {
          "internalType": "uint256",
          "name": "positionId",
          "type": "uint256"
        }
      ],
      "name": "getTickUpper",
      "outputs": [
        {
          "internalType": "int24",
          "name": "tickUpper",
          "type": "int24"
        }
      ],
      "stateMutability": "view",
      "type": "function",
      "constant": true
    },
    {
      "inputs": [
        {
          "internalType": "uint256",
          "name": "positionId",
          "type": "uint256"
        }
      ],
      "name": "getQuantity",
      "outputs": [
        {
          "internalType": "uint256",
          "name": "quantity",
          "type": "uint256"
        }
      ],
      "stateMutability": "view",
      "type": "function",
      "constant": true
    },
    {
      "inputs": [
        {
          "internalType": "uint256",
          "name": "positionId",
          "type": "uint256"
        }
      ],
      "name": "getOwner",
      "outputs": [
        {
          "internalType": "address",
          "name": "_owner",
          "type": "address"
        }
      ],
      "stateMutability": "view",
      "type": "function",
      "constant": true
    },
    {
      "inputs": [
        {
          "internalType": "uint256",
          "name": "positionId",
          "type": "uint256"
        }
      ],
      "name": "getActivityStatus",
      "outputs": [
        {
          "internalType": "bool",
          "name": "active",
          "type": "bool"
        }
      ],
      "stateMutability": "view",
      "type": "function",
      "constant": true
    },
    {
      "inputs": [
        {
          "internalType": "uint256",
          "name": "feeBips",
          "type": "uint256"
        }
      ],
      "name": "setProtocolFee",
      "outputs": [],
      "stateMutability": "nonpayable",
      "type": "function"
    },
    {
      "inputs": [
        {
          "internalType": "uint256",
          "name": "feeBips",
          "type": "uint256"
        }
      ],
      "name": "setSettlerFee",
      "outputs": [],
      "stateMutability": "nonpayable",
      "type": "function"
    }
  ],
  "bytecode": "0x610160604052600560005560006001553480156200001c57600080fd5b506040516200439c3803806200439c8339810160408190526200003f916200026b565b606083811b6001600160601b03199081166101405283821b166101205233901b60805260408051630dfe168160e01b815290516001600160a01b03851691630dfe1681916004808301926020929190829003018186803b158015620000a357600080fd5b505afa158015620000b8573d6000803e3d6000fd5b505050506040513d601f19601f82011682018060405250810190620000de919062000247565b6001600160a01b031660a0816001600160a01b031660601b81525050826001600160a01b031663d21220a76040518163ffffffff1660e01b815260040160206040518083038186803b1580156200013457600080fd5b505afa15801562000149573d6000803e3d6000fd5b505050506040513d601f19601f820116820180604052508101906200016f919062000247565b6001600160a01b031660c0816001600160a01b031660601b81525050826001600160a01b031663ddca3f436040518163ffffffff1660e01b815260040160206040518083038186803b158015620001c557600080fd5b505afa158015620001da573d6000803e3d6000fd5b505050506040513d601f19601f82011682018060405250810190620002009190620002b4565b60e81b6001600160e81b03191660e05260601b6001600160601b0319166101005250620002d99050565b80516001600160a01b03811681146200024257600080fd5b919050565b60006020828403121562000259578081fd5b62000264826200022a565b9392505050565b60008060006060848603121562000280578182fd5b6200028b846200022a565b92506200029b602085016200022a565b9150620002ab604085016200022a565b90509250925092565b600060208284031215620002c6578081fd5b815162ffffff8116811462000264578182fd5b60805160601c60a05160601c60c05160601c60e05160e81c6101005160601c6101205160601c6101405160601c613fba620003e2600039806105af52806109565280610ebf5280610f6f52508061076e52806109b85280610b8652806113b952806117815280611b3052806120f75280612ed75280613171525080610ad45280612b675280612bce52508061175d52806121b7525080610a525280610b265280611288528061186b528061217b528061234b5280612afc5280612bac5280612c5a525080610b00528061124152806114d45280611844528061213f52806122fd5280612aa05280612b455280612c13525080610e3f528061106552806117bb5250613fba6000f3fe6080604052600436106101d85760003560e01c8063885a08e011610102578063a875a0f311610095578063c57981b511610064578063c57981b514610534578063e88b91ea14610556578063ec12ff4f1461056b578063f9a1f17f1461058b576101d8565b8063a875a0f3146104bf578063b0e21e8a146104df578063b50e801d146104f4578063c41a360a14610514576101d8565b80639ce288cb116100d15780639ce288cb1461044a5780639d4ad6f11461046a578063a6068b3b1461048a578063a73bf6df146104aa576101d8565b8063885a08e0146103d25780638c5a9281146103e75780638da5cb5b146104155780639859f8051461042a576101d8565b80634e9e32521161017a57806361d027b31161014957806361d027b31461036a578063623efcbe1461037f578063787dce3d1461039257806386991a1d146103b2576101d8565b80634e9e3252146102db57806359e0fe18146102fd5780635cc1a5d01461031d5780635ebd9ded1461034a576101d8565b8063150b7a02116101b6578063150b7a021461024a57806316f0115b146102775780631efeed33146102995780634758af8a146102c6576101d8565b80630159d847146101dd57806304f8fe9b14610208578063096518271461022a575b600080fd5b3480156101e957600080fd5b506101f26105ab565b6040516101ff9190613b59565b60405180910390f35b34801561021457600080fd5b5061022861022336600461396b565b610657565b005b34801561023657600080fd5b50610228610245366004613918565b610847565b34801561025657600080fd5b5061026a6102653660046136d7565b61092a565b6040516101ff9190613b2c565b34801561028357600080fd5b5061028c610954565b6040516101ff9190613ae3565b3480156102a557600080fd5b506102b96102b4366004613918565b610978565b6040516101ff9190613e5c565b3480156102d257600080fd5b5061028c610a50565b3480156102e757600080fd5b506102f0610a74565b6040516101ff9190613e89565b34801561030957600080fd5b5061028c6103183660046137e9565b610a7a565b34801561032957600080fd5b5061033d610338366004613918565b610a8d565b6040516101ff9190613b04565b34801561035657600080fd5b506102f0610365366004613918565b610abd565b34801561037657600080fd5b5061028c610ad2565b6102f061038d3660046137a9565b610af6565b34801561039e57600080fd5b506102286103ad366004613918565b610e27565b3480156103be57600080fd5b506101f26103cd366004613918565b610e9b565b3480156103de57600080fd5b5061028c610eba565b3480156103f357600080fd5b50610407610402366004613771565b610f68565b6040516101ff929190613b67565b34801561042157600080fd5b5061028c611063565b34801561043657600080fd5b5061022861044536600461396b565b611087565b34801561045657600080fd5b506101f2610465366004613918565b611398565b34801561047657600080fd5b50610407610485366004613918565b6113b4565b34801561049657600080fd5b506102f06104a53660046139af565b611476565b3480156104b657600080fd5b5061028c6114d2565b3480156104cb57600080fd5b5061028c6104da366004613821565b6114f6565b3480156104eb57600080fd5b506102f0611535565b34801561050057600080fd5b5061022861050f366004613918565b61153b565b34801561052057600080fd5b5061028c61052f366004613918565b611730565b34801561054057600080fd5b5061054961175b565b6040516101ff9190613e79565b34801561056257600080fd5b5061028c61177f565b34801561057757600080fd5b50610228610586366004613918565b6117a3565b34801561059757600080fd5b5061033d6105a6366004613918565b611817565b60007f000000000000000000000000000000000000000000000000000000000000000073ffffffffffffffffffffffffffffffffffffffff16633850c7bd6040518163ffffffff1660e01b815260040160e06040518083038186803b15801561061357600080fd5b505afa158015610627573d6000803e3d6000fd5b505050506040513d601f19601f8201168201806040525081019061064b9190613882565b50939695505050505050565b60008281526002602052604090206003015473ffffffffffffffffffffffffffffffffffffffff1633146106c0576040517f08c379a00000000000000000000000000000000000000000000000000000000081526004016106b790613c8e565b60405180910390fd5b60008281526002602052604090206003015474010000000000000000000000000000000000000000900460ff16610723576040517f08c379a00000000000000000000000000000000000000000000000000000000081526004016106b790613c57565b600061072e8361182c565b905061075273ffffffffffffffffffffffffffffffffffffffff821633308561188f565b61079373ffffffffffffffffffffffffffffffffffffffff82167f00000000000000000000000000000000000000000000000000000000000000008461192a565b60008060006107a3868587611a77565b919450925090506107b48282611cbb565b600087815260026020819052604091829020600181018490550180547fffffffffffffffffffffffffffffffff00000000000000000000000000000000166fffffffffffffffffffffffffffffffff8716179055517f7d1114a92a206d9f21c8d18a4861689f9c82fad6213ca107aa3e11406a119bb89161083791899190613ec3565b60405180910390a1505050505050565b60008181526002602052604090206003015473ffffffffffffffffffffffffffffffffffffffff1633146108a7576040517f08c379a00000000000000000000000000000000000000000000000000000000081526004016106b790613c8e565b60008181526002602052604090206003015474010000000000000000000000000000000000000000900460ff1661090a576040517f08c379a00000000000000000000000000000000000000000000000000000000081526004016106b790613c57565b6000818152600260205260409020600101546109268282611087565b5050565b7f150b7a020000000000000000000000000000000000000000000000000000000095945050505050565b7f000000000000000000000000000000000000000000000000000000000000000081565b6040517f99fbab8800000000000000000000000000000000000000000000000000000000815260009073ffffffffffffffffffffffffffffffffffffffff7f000000000000000000000000000000000000000000000000000000000000000016906399fbab88906109ed908590600401613e89565b6101806040518083038186803b158015610a0657600080fd5b505afa158015610a1a573d6000803e3d6000fd5b505050506040513d601f19601f82011682018060405250810190610a3e91906139da565b50929c9b505050505050505050505050565b7f000000000000000000000000000000000000000000000000000000000000000081565b60015481565b6000610a8582611d38565b90505b919050565b60009081526002602052604090206003015474010000000000000000000000000000000000000000900460ff1690565b60009081526002602052604090206001015490565b7f000000000000000000000000000000000000000000000000000000000000000081565b60008084610b24577f0000000000000000000000000000000000000000000000000000000000000000610b46565b7f00000000000000000000000000000000000000000000000000000000000000005b9050610b6a73ffffffffffffffffffffffffffffffffffffffff821633308661188f565b610bab73ffffffffffffffffffffffffffffffffffffffff82167f00000000000000000000000000000000000000000000000000000000000000008561192a565b600080610bb88787610f68565b9250905060008080610bcc8a85878b6120cb565b6040805160e0810182528f1515815260028a810b60208301528b900b91810191909152939a509195509350915060608101610c078484611cbb565b81526fffffffffffffffffffffffffffffffff8581166020808401919091523360408085018290526001606095860181905260008e815260028086529083902088518154968a0151948a01517fffffffffffffffffffffffffffffffffffffffffffffffffffffffffffffff00909716901515177fffffffffffffffffffffffffffffffffffffffffffffffffffffffff000000ff1661010094830b62ffffff90811695909502177fffffffffffffffffffffffffffffffffffffffffffffffffff000000ffffffff1664010000000096830b94909416959095029290921784559486015194830194909455608085015193820180547fffffffffffffffffffffffffffffffff0000000000000000000000000000000016949093169390931790915560a08301516003909101805460c0909401517fffffffffffffffffffffffff000000000000000000000000000000000000000090941673ffffffffffffffffffffffffffffffffffffffff909216919091177fffffffffffffffffffffff00ffffffffffffffffffffffffffffffffffffffff167401000000000000000000000000000000000000000093151593909302929092179091557f6c40f5ef74fd79b0dad7fa3da61f0a6a8ef8bf63b75eae10782c62baa2baf1bb888c610def888a6114f6565b60008c81526002602052604090819020600101549051610e129493929190613e92565b60405180910390a25050505050509392505050565b3373ffffffffffffffffffffffffffffffffffffffff7f00000000000000000000000000000000000000000000000000000000000000001614610e96576040517f08c379a00000000000000000000000000000000000000000000000000000000081526004016106b790613c20565b600055565b6000908152600260208190526040909120546401000000009004900b90565b6000807f000000000000000000000000000000000000000000000000000000000000000073ffffffffffffffffffffffffffffffffffffffff16633850c7bd6040518163ffffffff1660e01b815260040160e06040518083038186803b158015610f2357600080fd5b505afa158015610f37573d6000803e3d6000fd5b505050506040513d601f19601f82011682018060405250810190610f5b9190613882565b5094965050505050505090565b60008060007f000000000000000000000000000000000000000000000000000000000000000073ffffffffffffffffffffffffffffffffffffffff1663d0c93a7c6040518163ffffffff1660e01b815260040160206040518083038186803b158015610fd357600080fd5b505afa158015610fe7573d6000803e3d6000fd5b505050506040513d601f19601f8201168201806040525081019061100b9190613805565b9050600061101885612381565b9050851561103e578160020b8160020b8161102f57fe5b0781039250818303935061105a565b818260020b8260020b8161104e57fe5b07820301935081840192505b50509250929050565b7f000000000000000000000000000000000000000000000000000000000000000081565b60008281526002602052604090206003015473ffffffffffffffffffffffffffffffffffffffff1633146110e7576040517f08c379a00000000000000000000000000000000000000000000000000000000081526004016106b790613c8e565b600082815260026020526040902060010154811115611132576040517f08c379a00000000000000000000000000000000000000000000000000000000081526004016106b790613b7b565b60008281526002602052604090206003015474010000000000000000000000000000000000000000900460ff16611195576040517f08c379a00000000000000000000000000000000000000000000000000000000081526004016106b790613c57565b6000806111a2848461274d565b600088815260026020526040902060010180548383019003905590945092506111ce9150859050610978565b60008581526002602081905260409091200180547fffffffffffffffffffffffffffffffff00000000000000000000000000000000166fffffffffffffffffffffffffffffffff92909216919091179055818181156112685761126873ffffffffffffffffffffffffffffffffffffffff7f00000000000000000000000000000000000000000000000000000000000000001633846127eb565b82156112af576112af73ffffffffffffffffffffffffffffffffffffffff7f00000000000000000000000000000000000000000000000000000000000000001633836127eb565b600086815260026020819052604090912001546fffffffffffffffffffffffffffffffff1661134c576000868152600260205260409081902060030180547fffffffffffffffffffffff00ffffffffffffffffffffffffffffffffffffffff169055517fbf67515a38ee520223d32c1266d52101c30d936ed1f3e436c8caeb0a43cb06bf9061133f908890613e89565b60405180910390a1611390565b600086815260026020526040908190206001015490517f7d1114a92a206d9f21c8d18a4861689f9c82fad6213ca107aa3e11406a119bb89161083791899190613ec3565b505050505050565b6000908152600260208190526040909120546101009004900b90565b6000807f000000000000000000000000000000000000000000000000000000000000000073ffffffffffffffffffffffffffffffffffffffff166399fbab88846040518263ffffffff1660e01b81526004016114109190613e89565b6101806040518083038186803b15801561142957600080fd5b505afa15801561143d573d6000803e3d6000fd5b505050506040513d601f19601f8201168201806040525081019061146191906139da565b50949d939c50929a5050505050505050505050565b60008381526002602052604081205460ff166114ad576000848152600260205260409020600101546114a8908361287d565b6114ca565b6000848152600260205260409020600101546114ca90849061287d565b949350505050565b7f000000000000000000000000000000000000000000000000000000000000000081565b60008061150284611d38565b9050600061150f84611d38565b6002920173ffffffffffffffffffffffffffffffffffffffff1691909104949350505050565b60005481565b60006115456105ab565b60008381526002602052604090205490915060ff16611586576000828152600260208190526040909120546401000000009004810b810b9082900b136115a7565b6000828152600260208190526040909120546101009004810b810b9082900b125b6115dd576040517f08c379a00000000000000000000000000000000000000000000000000000000081526004016106b790613be9565b60008281526002602052604090206003015474010000000000000000000000000000000000000000900460ff16611640576040517f08c379a00000000000000000000000000000000000000000000000000000000081526004016106b790613c57565b600082815260026020526040812060010154819061165f90859061274d565b9094509250611673915085905083836128fe565b600084815260026020526040812060030180547fffffffffffffffffffffff00ffffffffffffffffffffffffffffffffffffffff1690556116b5858484611476565b6000868152600260205260409081902060038101548154600190920154925193945073ffffffffffffffffffffffffffffffffffffffff16927f7e953f96ae54ab2378a31227b9077cac6e9fa627cb10e333065cb7883c1df776926117219260ff16918a918791613b0f565b60405180910390a25050505050565b60009081526002602052604090206003015473ffffffffffffffffffffffffffffffffffffffff1690565b7f000000000000000000000000000000000000000000000000000000000000000081565b7f000000000000000000000000000000000000000000000000000000000000000081565b3373ffffffffffffffffffffffffffffffffffffffff7f00000000000000000000000000000000000000000000000000000000000000001614611812576040517f08c379a00000000000000000000000000000000000000000000000000000000081526004016106b790613c20565b600155565b60009081526002602052604090205460ff1690565b60008181526002602052604081205460ff16611868577f0000000000000000000000000000000000000000000000000000000000000000610a85565b507f0000000000000000000000000000000000000000000000000000000000000000919050565b6040805173ffffffffffffffffffffffffffffffffffffffff80861660248301528416604482015260648082018490528251808303909101815260849091019091526020810180517bffffffffffffffffffffffffffffffffffffffffffffffffffffffff167f23b872dd00000000000000000000000000000000000000000000000000000000179052611924908590612c8e565b50505050565b60006119e7828573ffffffffffffffffffffffffffffffffffffffff1663dd62ed3e30876040518363ffffffff1660e01b8152600401808373ffffffffffffffffffffffffffffffffffffffff1681526020018273ffffffffffffffffffffffffffffffffffffffff1681526020019250505060206040518083038186803b1580156119b557600080fd5b505afa1580156119c9573d6000803e3d6000fd5b505050506040513d60208110156119df57600080fd5b505190611cbb565b6040805173ffffffffffffffffffffffffffffffffffffffff8616602482015260448082018490528251808303909101815260649091019091526020810180517bffffffffffffffffffffffffffffffffffffffffffffffffffffffff167f095ea7b300000000000000000000000000000000000000000000000000000000179052909150611924908590612c8e565b6000806000806000611a88886113b4565b915091506000611a966105ab565b90508060020b8260020b14158015611ab457508060020b8360020b14155b611aea576040517f08c379a00000000000000000000000000000000000000000000000000000000081526004016106b790613bb2565b60008981526002602052604081205460ff16611b065787611b09565b60005b60008b8152600260205260408120549192509060ff16611b2a576000611b2c565b885b90507f000000000000000000000000000000000000000000000000000000000000000073ffffffffffffffffffffffffffffffffffffffff1663219f5d176040518060c001604052808e8152602001858152602001848152602001611ba5611b9e60c88861287d90919063ffffffff16565b8790612d66565b8152602001611bbf611bb88660c861287d565b8690612d66565b8152602001428152506040518263ffffffff1660e01b8152600401611be49190613d6a565b606060405180830381600087803b158015611bfe57600080fd5b505af1158015611c12573d6000803e3d6000fd5b505050506040513d601f19601f82011682018060405250810190611c36919061384e565b60008e815260026020526040812054939b5091995097509060ff16611c715760008c8152600260205260409020600101548301889003611c89565b60008c81526002602052604090206001015482018790035b9050611cac73ffffffffffffffffffffffffffffffffffffffff8c1633836127eb565b50505050505093509350939050565b600082820183811015611d2f57604080517f08c379a000000000000000000000000000000000000000000000000000000000815260206004820152601b60248201527f536166654d6174683a206164646974696f6e206f766572666c6f770000000000604482015290519081900360640190fd5b90505b92915050565b60008060008360020b12611d4f578260020b611d57565b8260020b6000035b9050620d89e8811115611dcb57604080517f08c379a000000000000000000000000000000000000000000000000000000000815260206004820152600160248201527f5400000000000000000000000000000000000000000000000000000000000000604482015290519081900360640190fd5b600060018216611dec57700100000000000000000000000000000000611dfe565b6ffffcb933bd6fad37aa2d162d1a5940015b70ffffffffffffffffffffffffffffffffff1690506002821615611e32576ffff97272373d413259a46990580e213a0260801c5b6004821615611e51576ffff2e50f5f656932ef12357cf3c7fdcc0260801c5b6008821615611e70576fffe5caca7e10e4e61c3624eaa0941cd00260801c5b6010821615611e8f576fffcb9843d60f6159c9db58835c9266440260801c5b6020821615611eae576fff973b41fa98c081472e6896dfb254c00260801c5b6040821615611ecd576fff2ea16466c96a3843ec78b326b528610260801c5b6080821615611eec576ffe5dee046a99a2a811c461f1969c30530260801c5b610100821615611f0c576ffcbe86c7900a88aedcffc83b479aa3a40260801c5b610200821615611f2c576ff987a7253ac413176f2b074cf7815e540260801c5b610400821615611f4c576ff3392b0822b70005940c7a398e4b70f30260801c5b610800821615611f6c576fe7159475a2c29b7443b29c7fa6e889d90260801c5b611000821615611f8c576fd097f3bdfd2022b8845ad8f792aa58250260801c5b612000821615611fac576fa9f746462d870fdf8a65dc1f90e061e50260801c5b614000821615611fcc576f70d869a156d2a1b890bb3df62baf32f70260801c5b618000821615611fec576f31be135f97d08fd981231505542fcfa60260801c5b6201000082161561200d576f09aa508b5b7a84e1c677de54f3e99bc90260801c5b6202000082161561202d576e5d6af8dedb81196699c329225ee6040260801c5b6204000082161561204c576d2216e584f5fa1ea926041bedfe980260801c5b62080000821615612069576b048a170391f7dc42444e8fa20260801c5b60008460020b13156120a257807fffffffffffffffffffffffffffffffffffffffffffffffffffffffffffffffff8161209e57fe5b0490505b6401000000008106156120b65760016120b9565b60005b60ff16602082901c0192505050919050565b6000806000806000886120de57856120e1565b60005b90506000896120f15760006120f3565b865b90507f000000000000000000000000000000000000000000000000000000000000000073ffffffffffffffffffffffffffffffffffffffff1663883164566040518061016001604052807f000000000000000000000000000000000000000000000000000000000000000073ffffffffffffffffffffffffffffffffffffffff1681526020017f000000000000000000000000000000000000000000000000000000000000000073ffffffffffffffffffffffffffffffffffffffff1681526020017f000000000000000000000000000000000000000000000000000000000000000062ffffff1681526020018c60020b81526020018b60020b815260200185815260200184815260200161221c61221560c88a61287d90919063ffffffff16565b8990612d66565b815260200161223661222f8860c861287d565b8890612d66565b815230602082015242604091820152517fffffffff0000000000000000000000000000000000000000000000000000000060e084901b16815261227c9190600401613dae565b608060405180830381600087803b15801561229657600080fd5b505af11580156122aa573d6000803e3d6000fd5b505050506040513d601f19601f820116820180604052508101906122ce9190613930565b92985090965094509250838211156123265783820361232473ffffffffffffffffffffffffffffffffffffffff7f00000000000000000000000000000000000000000000000000000000000000001633836127eb565b505b828111156123745782810361237273ffffffffffffffffffffffffffffffffffffffff7f00000000000000000000000000000000000000000000000000000000000000001633836127eb565b505b5050945094509450949050565b60006401000276a373ffffffffffffffffffffffffffffffffffffffff8316108015906123d7575073fffd8963efd1fc6a506488495d951d5263988d2673ffffffffffffffffffffffffffffffffffffffff8316105b61244257604080517f08c379a000000000000000000000000000000000000000000000000000000000815260206004820152600160248201527f5200000000000000000000000000000000000000000000000000000000000000604482015290519081900360640190fd5b77ffffffffffffffffffffffffffffffffffffffff00000000602083901b166fffffffffffffffffffffffffffffffff811160071b81811c67ffffffffffffffff811160061b90811c63ffffffff811160051b90811c61ffff811160041b90811c60ff8111600390811b91821c600f811160021b90811c918211600190811b92831c979088119617909417909217179091171717608081106124ec57607f810383901c91506124f6565b80607f0383901b91505b908002607f81811c60ff83811c9190911c800280831c81831c1c800280841c81841c1c800280851c81851c1c800280861c81861c1c800280871c81871c1c800280881c81881c1c800280891c81891c1c8002808a1c818a1c1c8002808b1c818b1c1c8002808c1c818c1c1c8002808d1c818d1c1c8002808e1c9c81901c9c909c1c80029c8d901c9e9d7fffffffffffffffffffffffffffffffffffffffffffffffffffffffffffffff808f0160401b60c09190911c678000000000000000161760c19b909b1c674000000000000000169a909a1760c29990991c672000000000000000169890981760c39790971c671000000000000000169690961760c49590951c670800000000000000169490941760c59390931c670400000000000000169290921760c69190911c670200000000000000161760c79190911c670100000000000000161760c89190911c6680000000000000161760c99190911c6640000000000000161760ca9190911c6620000000000000161760cb9190911c6610000000000000161760cc9190911c6608000000000000161760cd9190911c66040000000000001617693627a301d71055774c8581027ffffffffffffffffffffffffffffffffffd709b7e5480fba5a50fed5e62ffc5568101608090811d906fdb2df09e81959a81455e260799a0632f8301901d600281810b9083900b1461273e578873ffffffffffffffffffffffffffffffffffffffff1661271582611d38565b73ffffffffffffffffffffffffffffffffffffffff1611156127375781612739565b805b612740565b815b9998505050505050505050565b600080600080600061275f8787612ddd565b905061276a87610978565b6fffffffffffffffffffffffffffffffff16816fffffffffffffffffffffffffffffffff1611156127c7576040517f08c379a00000000000000000000000000000000000000000000000000000000081526004016106b790613b7b565b6127d18782612e24565b90955093506127df87612f6a565b95989497509550505050565b6040805173ffffffffffffffffffffffffffffffffffffffff8416602482015260448082018490528251808303909101815260649091019091526020810180517bffffffffffffffffffffffffffffffffffffffffffffffffffffffff167fa9059cbb00000000000000000000000000000000000000000000000000000000179052612878908490612c8e565b505050565b60008082116128ed57604080517f08c379a000000000000000000000000000000000000000000000000000000000815260206004820152601a60248201527f536166654d6174683a206469766973696f6e206279207a65726f000000000000604482015290519081900360640190fd5b8183816128f657fe5b049392505050565b6000838152600260205260408120546127109160ff909116908161294e57612949612942612939600154600054611cbb90919063ffffffff16565b6000549061287d565b8690612f92565b612965565b6000546129659061295f878661287d565b90612f92565b90506000826129845760005461297f9061295f878761287d565b6129a1565b6129a1612942612939600154600054611cbb90919063ffffffff16565b90506000836129dc576129d76129d06129c7600154600054611cbb90919063ffffffff16565b6001549061287d565b8890612f92565b6129ed565b6001546129ed9061295f898861287d565b9050600084612a0c57600154612a079061295f898961287d565b612a29565b612a296129d06129c7600154600054611cbb90919063ffffffff16565b9050600085612a39576000612a4d565b612a4d612a468685611cbb565b8a90612d66565b9050600086612a6857612a63612a468685611cbb565b612a6b565b60005b90508115612ac95760008b815260026020526040902060030154612ac99073ffffffffffffffffffffffffffffffffffffffff7f000000000000000000000000000000000000000000000000000000000000000081169116846127eb565b8015612b255760008b815260026020526040902060030154612b259073ffffffffffffffffffffffffffffffffffffffff7f000000000000000000000000000000000000000000000000000000000000000081169116836127eb565b8515612b8c57612b8c73ffffffffffffffffffffffffffffffffffffffff7f0000000000000000000000000000000000000000000000000000000000000000167f0000000000000000000000000000000000000000000000000000000000000000886127eb565b8415612bf357612bf373ffffffffffffffffffffffffffffffffffffffff7f0000000000000000000000000000000000000000000000000000000000000000167f0000000000000000000000000000000000000000000000000000000000000000876127eb565b8315612c3a57612c3a73ffffffffffffffffffffffffffffffffffffffff7f00000000000000000000000000000000000000000000000000000000000000001633866127eb565b8215612c8157612c8173ffffffffffffffffffffffffffffffffffffffff7f00000000000000000000000000000000000000000000000000000000000000001633856127eb565b5050505050505050505050565b6000612cf0826040518060400160405280602081526020017f5361666545524332303a206c6f772d6c6576656c2063616c6c206661696c65648152508573ffffffffffffffffffffffffffffffffffffffff166130059092919063ffffffff16565b80519091501561287857808060200190516020811015612d0f57600080fd5b5051612878576040517f08c379a000000000000000000000000000000000000000000000000000000000815260040180806020018281038252602a815260200180613f5b602a913960400191505060405180910390fd5b600082821115612dd757604080517f08c379a000000000000000000000000000000000000000000000000000000000815260206004820152601e60248201527f536166654d6174683a207375627472616374696f6e206f766572666c6f770000604482015290519081900360640190fd5b50900390565b600082815260026020819052604082206001810154910154612e1d9190612e179085906fffffffffffffffffffffffffffffffff16612f92565b9061287d565b9392505050565b600080600080612e33866113b4565b91509150600080612e5d612e45610eba565b612e4e86610a7a565b612e5786610a7a565b8a613014565b6040805160a0810182528b81526fffffffffffffffffffffffffffffffff8b1660208201528082018490526060810183905242608082015290517f0c49ccbe00000000000000000000000000000000000000000000000000000000815292945090925073ffffffffffffffffffffffffffffffffffffffff7f00000000000000000000000000000000000000000000000000000000000000001691630c49ccbe91612f0a91600401613d1e565b6040805180830381600087803b158015612f2357600080fd5b505af1158015612f37573d6000803e3d6000fd5b505050506040513d601f19601f82011682018060405250810190612f5b919061398c565b90999098509650505050505050565b600080612f886fffffffffffffffffffffffffffffffff80856130fe565b9094909350915050565b600082612fa157506000611d32565b82820282848281612fae57fe5b0414611d2f576040517f08c379a0000000000000000000000000000000000000000000000000000000008152600401808060200182810382526021815260200180613f3a6021913960400191505060405180910390fd5b60606114ca8484600085613202565b6000808373ffffffffffffffffffffffffffffffffffffffff168573ffffffffffffffffffffffffffffffffffffffff16111561304f579293925b8473ffffffffffffffffffffffffffffffffffffffff168673ffffffffffffffffffffffffffffffffffffffff16116130945761308d8585856133bc565b91506130f5565b8373ffffffffffffffffffffffffffffffffffffffff168673ffffffffffffffffffffffffffffffffffffffff1610156130e7576130d38685856133bc565b91506130e085878561346f565b90506130f5565b6130f285858561346f565b90505b94509492505050565b604080516080810182528281523060208201526fffffffffffffffffffffffffffffffff808616828401528416606082015290517ffc6f7865000000000000000000000000000000000000000000000000000000008152600091829173ffffffffffffffffffffffffffffffffffffffff7f0000000000000000000000000000000000000000000000000000000000000000169163fc6f7865916131a59190600401613cc5565b6040805180830381600087803b1580156131be57600080fd5b505af11580156131d2573d6000803e3d6000fd5b505050506040513d601f19601f820116820180604052508101906131f6919061398c565b90969095509350505050565b60608247101561325d576040517f08c379a0000000000000000000000000000000000000000000000000000000008152600401808060200182810382526026815260200180613f146026913960400191505060405180910390fd5b613266856134eb565b6132d157604080517f08c379a000000000000000000000000000000000000000000000000000000000815260206004820152601d60248201527f416464726573733a2063616c6c20746f206e6f6e2d636f6e7472616374000000604482015290519081900360640190fd5b6000808673ffffffffffffffffffffffffffffffffffffffff1685876040518082805190602001908083835b6020831061333a57805182527fffffffffffffffffffffffffffffffffffffffffffffffffffffffffffffffe090920191602091820191016132fd565b6001836020036101000a03801982511681845116808217855250505050505090500191505060006040518083038185875af1925050503d806000811461339c576040519150601f19603f3d011682016040523d82523d6000602084013e6133a1565b606091505b50915091506133b18282866134f1565b979650505050505050565b60008273ffffffffffffffffffffffffffffffffffffffff168473ffffffffffffffffffffffffffffffffffffffff1611156133f6579192915b8373ffffffffffffffffffffffffffffffffffffffff1661345f606060ff16846fffffffffffffffffffffffffffffffff16901b86860373ffffffffffffffffffffffffffffffffffffffff168673ffffffffffffffffffffffffffffffffffffffff166135af565b8161346657fe5b04949350505050565b60008273ffffffffffffffffffffffffffffffffffffffff168473ffffffffffffffffffffffffffffffffffffffff1611156134a9579192915b6114ca826fffffffffffffffffffffffffffffffff1685850373ffffffffffffffffffffffffffffffffffffffff166c010000000000000000000000006135af565b3b151590565b60608315613500575081612e1d565b8251156135105782518084602001fd5b816040517f08c379a00000000000000000000000000000000000000000000000000000000081526004018080602001828103825283818151815260200191508051906020019080838360005b8381101561357457818101518382015260200161355c565b50505050905090810190601f1680156135a15780820380516001836020036101000a031916815260200191505b509250505060405180910390fd5b600080807fffffffffffffffffffffffffffffffffffffffffffffffffffffffffffffffff8587098686029250828110908390030390508061360357600084116135f857600080fd5b508290049050612e1d565b80841161360f57600080fd5b6000848688096000868103871696879004966002600389028118808a02820302808a02820302808a02820302808a02820302808a02820302808a02909103029181900381900460010186841190950394909402919094039290920491909117919091029150509392505050565b8051610a8881613ed1565b8051610a8881613f04565b80516fffffffffffffffffffffffffffffffff81168114610a8857600080fd5b805161ffff81168114610a8857600080fd5b805162ffffff81168114610a8857600080fd5b6000806000806000608086880312156136ee578081fd5b85356136f981613ed1565b9450602086013561370981613ed1565b935060408601359250606086013567ffffffffffffffff8082111561372c578283fd5b818801915088601f83011261373f578283fd5b81358181111561374d578384fd5b89602082850101111561375e578384fd5b9699959850939650602001949392505050565b60008060408385031215613783578182fd5b823561378e81613ef6565b9150602083013561379e81613ed1565b809150509250929050565b6000806000606084860312156137bd578283fd5b83356137c881613ef6565b925060208401356137d881613ed1565b929592945050506040919091013590565b6000602082840312156137fa578081fd5b8135611d2f81613f04565b600060208284031215613816578081fd5b8151611d2f81613f04565b60008060408385031215613833578182fd5b823561383e81613f04565b9150602083013561379e81613f04565b600080600060608486031215613862578283fd5b61386b84613692565b925060208401519150604084015190509250925092565b600080600080600080600060e0888a03121561389c578182fd5b87516138a781613ed1565b60208901519097506138b881613f04565b95506138c6604089016136b2565b94506138d4606089016136b2565b93506138e2608089016136b2565b925060a088015160ff811681146138f7578283fd5b60c089015190925061390881613ef6565b8091505092959891949750929550565b600060208284031215613929578081fd5b5035919050565b60008060008060808587031215613945578182fd5b8451935061395560208601613692565b6040860151606090960151949790965092505050565b6000806040838503121561397d578182fd5b50508035926020909101359150565b6000806040838503121561399e578182fd5b505080516020909101519092909150565b6000806000606084860312156139c3578081fd5b505081359360208301359350604090920135919050565b6000806000806000806000806000806000806101808d8f0312156139fc578586fd5b8c516bffffffffffffffffffffffff81168114613a17578687fd5b9b50613a2560208e0161367c565b9a50613a3360408e0161367c565b9950613a4160608e0161367c565b9850613a4f60808e016136c4565b9750613a5d60a08e01613687565b9650613a6b60c08e01613687565b9550613a7960e08e01613692565b94506101008d015193506101208d01519250613a986101408e01613692565b9150613aa76101608e01613692565b90509295989b509295989b509295989b565b73ffffffffffffffffffffffffffffffffffffffff169052565b60020b9052565b62ffffff169052565b73ffffffffffffffffffffffffffffffffffffffff91909116815260200190565b901515815260200190565b931515845260208401929092526040830152606082015260800190565b7fffffffff0000000000000000000000000000000000000000000000000000000091909116815260200190565b60029190910b815260200190565b600292830b8152910b602082015260400190565b60208082526003908201527f4e45460000000000000000000000000000000000000000000000000000000000604082015260600190565b60208082526003908201527f4c50410000000000000000000000000000000000000000000000000000000000604082015260600190565b60208082526003908201527f4f4e460000000000000000000000000000000000000000000000000000000000604082015260600190565b6020808252600d908201527f4e6f7420746865206f776e657200000000000000000000000000000000000000604082015260600190565b60208082526002908201527f4e41000000000000000000000000000000000000000000000000000000000000604082015260600190565b60208082526003908201527f4e544f0000000000000000000000000000000000000000000000000000000000604082015260600190565b8151815260208083015173ffffffffffffffffffffffffffffffffffffffff16908201526040808301516fffffffffffffffffffffffffffffffff90811691830191909152606092830151169181019190915260800190565b600060a082019050825182526fffffffffffffffffffffffffffffffff602084015116602083015260408301516040830152606083015160608301526080830151608083015292915050565b600060c082019050825182526020830151602083015260408301516040830152606083015160608301526080830151608083015260a083015160a083015292915050565b600061016082019050613dc2828451613ab9565b6020830151613dd46020840182613ab9565b506040830151613de76040840182613ada565b506060830151613dfa6060840182613ad3565b506080830151613e0d6080840182613ad3565b5060a083015160a083015260c083015160c083015260e083015160e083015261010080840151818401525061012080840151613e4b82850182613ab9565b505061014092830151919092015290565b6fffffffffffffffffffffffffffffffff91909116815260200190565b62ffffff91909116815260200190565b90815260200190565b938452911515602084015273ffffffffffffffffffffffffffffffffffffffff166040830152606082015260800190565b918252602082015260400190565b73ffffffffffffffffffffffffffffffffffffffff81168114613ef357600080fd5b50565b8015158114613ef357600080fd5b8060020b8114613ef357600080fdfe416464726573733a20696e73756666696369656e742062616c616e636520666f722063616c6c536166654d6174683a206d756c7469706c69636174696f6e206f766572666c6f775361666545524332303a204552433230206f7065726174696f6e20646964206e6f742073756363656564a2646970667358221220e295f3a79d044cc7f295884a666635de1287bba1b1775fdf0d0d509a64de0d5c64736f6c63430007060033",
  "immutableReferences": {
    "3133": [
      {
        "length": 32,
        "start": 3647
      },
      {
        "length": 32,
        "start": 4197
      },
      {
        "length": 32,
        "start": 6075
      }
    ],
    "3135": [
      {
        "length": 32,
        "start": 2816
      },
      {
        "length": 32,
        "start": 4673
      },
      {
        "length": 32,
        "start": 5332
      },
      {
        "length": 32,
        "start": 6212
      },
      {
        "length": 32,
        "start": 8511
      },
      {
        "length": 32,
        "start": 8957
      },
      {
        "length": 32,
        "start": 10912
      },
      {
        "length": 32,
        "start": 11077
      },
      {
        "length": 32,
        "start": 11283
      }
    ],
    "3137": [
      {
        "length": 32,
        "start": 2642
      },
      {
        "length": 32,
        "start": 2854
      },
      {
        "length": 32,
        "start": 4744
      },
      {
        "length": 32,
        "start": 6251
      },
      {
        "length": 32,
        "start": 8571
      },
      {
        "length": 32,
        "start": 9035
      },
      {
        "length": 32,
        "start": 11004
      },
      {
        "length": 32,
        "start": 11180
      },
      {
        "length": 32,
        "start": 11354
      }
    ],
    "3139": [
      {
        "length": 32,
        "start": 5981
      },
      {
        "length": 32,
        "start": 8631
      }
    ],
    "3141": [
      {
        "length": 32,
        "start": 2772
      },
      {
        "length": 32,
        "start": 11111
      },
      {
        "length": 32,
        "start": 11214
      }
    ],
    "3152": [
      {
        "length": 32,
        "start": 1902
      },
      {
        "length": 32,
        "start": 2488
      },
      {
        "length": 32,
        "start": 2950
      },
      {
        "length": 32,
        "start": 5049
      },
      {
        "length": 32,
        "start": 6017
      },
      {
        "length": 32,
        "start": 6960
      },
      {
        "length": 32,
        "start": 8439
      },
      {
        "length": 32,
        "start": 11991
      },
      {
        "length": 32,
        "start": 12657
      }
    ],
    "3154": [
      {
        "length": 32,
        "start": 1455
      },
      {
        "length": 32,
        "start": 2390
      },
      {
        "length": 32,
        "start": 3775
      },
      {
        "length": 32,
        "start": 3951
      }
    ]
  },
  "source": "// SPDX-License-Identifier: MIT\npragma solidity 0.7.6;\npragma abicoder v2; \n\nimport \"@openzeppelin/contracts/math/SafeMath.sol\";\nimport \"@openzeppelin/contracts/token/ERC20/SafeERC20.sol\";\nimport \"@openzeppelin/contracts/token/ERC20/IERC20.sol\";\n\n//import \"@openzeppelin/contracts/token/ERC20/ERC20.sol\";\nimport \"@uniswap/v3-periphery/contracts/interfaces/INonfungiblePositionManager.sol\";\nimport \"@uniswap/v3-periphery/contracts/libraries/LiquidityAmounts.sol\";\n\nimport \"@uniswap/v3-core/contracts/interfaces/IUniswapV3Factory.sol\";\nimport \"@uniswap/v3-core/contracts/interfaces/IUniswapV3Pool.sol\";\nimport \"@uniswap/v3-core/contracts/libraries/TickMath.sol\";\n\nimport \"@openzeppelin/contracts/token/ERC721/IERC721Receiver.sol\";\n/*import \"@openzeppelin/contracts/token/ERC721/IERC721.sol\";\nimport \"@openzeppelin/contracts/token/ERC721/ERC721Holder.sol\";\n\nimport \"@openzeppelin/master/contracts/introspection/ERC165.sol\";*/\n\ncontract UniV3TradingPair is IERC721Receiver {\n    \n    //using SafeMath for uint160;\n    using SafeMath for uint256;\n    using SafeERC20 for IERC20;\n\n    address public immutable owner;\n    address public immutable poolToken0;\n    address public immutable poolToken1;\n    uint24 public immutable FEE;\n    address public immutable treasury;\n\n    uint256 private constant MINT_BURN_SLIPPAGE = 200; // .5% max slippage on order creation\n    \n    uint256 public protocolFee = 5; //protocol fee share in bps\n    uint256 public settlerFee = 0; //settlerFee in bps\n\n    INonfungiblePositionManager public immutable nftManager;\n    IUniswapV3Pool public immutable pool;\n\n    struct Order {\n        bool side; // true buy 0 for 1, false buy 1 for 0\n        int24 tickLower; // lower price tick for position\n        int24 tickUpper; // higher price tick for position\n        uint256 quantity;\n        uint128 liquidity;\n        address owner;\n        bool active;\n    }\n\n    mapping(uint256 => Order) orders;\n    \n    constructor(\n        address pool_address,\n        address _nftManager,\n        address _treasury\n    ) {\n        //pool = _pool;\n        //nftManager = _nftManager;\n        pool = IUniswapV3Pool(pool_address);\n        nftManager = INonfungiblePositionManager(_nftManager);\n        owner = msg.sender;\n        poolToken0 = IUniswapV3Pool(pool_address).token0();\n        poolToken1 = IUniswapV3Pool(pool_address).token1();\n        FEE = IUniswapV3Pool(pool_address).fee();\n        treasury = _treasury;\n    }\n\n    /*----------------------------------------------------------*/\n    /*                     ERC721 ENABLER                       */\n    /*----------------------------------------------------------*/\n\n    function onERC721Received(\n        address operator,\n        address from,\n        uint256 tokenId,\n        bytes calldata\n    ) public override returns (bytes4) {\n        return this.onERC721Received.selector;\n    }\n\n    /*----------------------------------------------------------*/\n    /*                          EVENTS                          */\n    /*----------------------------------------------------------*/\n\n    event Open(\n        uint256 positionId,\n        address indexed trader,\n        bool side,\n        uint160 sqrtPriceX96,\n        uint256 quantity\n    );\n\n    event Close(\n        uint256 positionId\n    );\n\n    event SizeChanged(\n        uint256 positionId,\n        uint256 newQuantity\n    );\n\n    event Settled(\n            bool side,\n            uint256 positionId,\n            address indexed trader,\n            uint256 executionPrice,\n            uint256 quantity\n    );\n\n    /*----------------------------------------------------------*/\n    /*                  USER FACING FUNCTIONS                   */\n    /*----------------------------------------------------------*/\n\n    /// Opens a limit order my minting a LP position on the Uniswap v3 Pair\n    /// params: \n    /// - side: true if you buy token0 for token1, false if you buy token1 for token0\n    /// - sqrtPriceX96: sqrt(tokenRatio) * 2 ** 96 ::see uniswap doc\n    /// - quantity: the number of tokens in the position\n    function createOrder(\n        bool side,\n        uint160 sqrtPriceX96, \n        uint256 quantity\n    ) public payable returns (uint256 positionId) {\n\n        address token = side ? poolToken1 : poolToken0; \n\n        IERC20(token).safeTransferFrom(\n            msg.sender,\n            address(this),\n            quantity\n        );\n\n        IERC20(token).safeIncreaseAllowance(\n            address(nftManager),\n            quantity\n        );\n\n        int24 tickUpper;\n        int24 tickLower;\n        ( tickLower, tickUpper) = getTicksFromPrice(side, sqrtPriceX96);\n\n        uint128 _liquidity;\n        uint256 _amount0;\n        uint256 _amount1;\n\n        (\n            positionId,\n            _liquidity,\n            _amount0,\n            _amount1\n        ) = mintNewPosition(side, tickLower, tickUpper, quantity);\n\n        orders[positionId] = Order({\n            side: side,\n            tickLower: tickLower,\n            tickUpper: tickUpper,\n            quantity: _amount0.add(_amount1),\n            liquidity: _liquidity,\n            owner: msg.sender,\n            active: true\n        });\n\n        emit Open(\n            positionId,\n            msg.sender,\n            side,\n            getPriceFromTicks(tickLower, tickUpper),\n            orders[positionId].quantity\n        );\n    }\n\n    function increaseSize(\n        uint256 positionId,\n        uint256 quantity\n    ) external {\n        require(\n            orders[positionId].owner == msg.sender,\n            \"NTO\" //not the owner\n        );\n        require(\n            orders[positionId].active,\n            \"NA\" //not active\n        );\n\n        address token = getLiquidityToken(positionId);\n        \n        IERC20(token).safeTransferFrom(\n            msg.sender,\n            address(this),\n            quantity\n        );\n\n        IERC20(token).safeIncreaseAllowance(\n            address(nftManager),\n            quantity\n        );\n        \n        uint128 _liquidity;\n        uint256 _amount0;\n        uint256 _amount1;\n\n        (_liquidity, _amount0, _amount1) = increaseLiquidityCurrentRange(positionId, token, quantity);\n        \n        orders[positionId].quantity = _amount0.add(_amount1);\n        orders[positionId].liquidity = _liquidity;\n        \n        emit SizeChanged(\n            positionId,\n            orders[positionId].quantity\n        );\n    }\n\n    /// notice: Decreases the order size of a limit order position\n    function decreaseSize(\n        uint256 positionId,\n        uint256 quantity\n    ) public {\n        require(\n            orders[positionId].owner == msg.sender,\n            \"NTO\" //not the owner\n        );\n        require(\n            orders[positionId].quantity >= quantity,\n            \"NEF\" //not enough funds\n        );\n        require(\n            orders[positionId].active,\n            \"NA\" //not active\n        );\n        \n        uint256 amount0;\n        uint256 amount1;\n        //uint256 fees0;\n        //uint256 fees1;\n\n        (, ,amount0, amount1) = withdraw(positionId, quantity);\n\n        //update liquidity values\n        orders[positionId].quantity -= amount0 + amount1;\n        orders[positionId].liquidity = getPositionLiquidity(positionId);\n        \n        \n        //transfer back the tokens to the msg.sender\n        uint256 refund0 = amount0;\n        uint256 refund1 = amount1;\n\n        if(amount0 > 0) {\n            IERC20(poolToken0).safeTransfer(msg.sender, refund0);\n        }\n        if(amount1 > 0) {\n            IERC20(poolToken1).safeTransfer(msg.sender, refund1);\n        }\n        \n        //decrease position to zero and emit events\n        if(orders[positionId].liquidity==0) {\n            orders[positionId].active = false;\n            emit Close(positionId);\n        }\n        else{\n            emit SizeChanged(\n                positionId,\n                orders[positionId].quantity\n            );\n        }\n        \n    }\n\n    /// notice: Closes a limit order position, has to be triggered by the owner of the position\n    function closePositionOwner(uint256 positionId) external {\n        require(orders[positionId].owner == msg.sender, \"NTO\");\n        require(orders[positionId].active, \"NA\");\n\n        uint256 _quantity = orders[positionId].quantity;\n        decreaseSize(positionId,_quantity); //decrease by the total position Size\n    }\n\n    /// Settle order can be called by anyone once a position is closeable.\n    function settleOrder(\n        uint256 positionId\n    ) public {\n        int24 poolTick = getCurrentPoolTick();\n\n        //Check that the position is fully out of range\n        require(\n            orders[positionId].side ? \n            poolTick < orders[positionId].tickLower :\n            poolTick > orders[positionId].tickUpper\n            ,\"ONF\" // order not filled\n        );\n\n        //check that the position is active\n        require(\n            orders[positionId].active,\n            \"NA\" //not active\n        );\n\n        //uint256 _amount0;\n        //uint256 _amount1;\n        uint256 amount0;\n        uint256 amount1;\n\n        (, , amount0, amount1) = withdraw(\n            positionId\n            ,orders[positionId].quantity //withdraw function handles conversion of quantity to liquidity --> no worries\n        );\n\n        //handles tokens distribution between user, treasury and settler\n        settle(positionId, amount0, amount1);\n\n        //update position\n        orders[positionId].active = false;\n\n        //calculate executionPrice as token0/token1 -- for USDC/WETH pool: amount of USDC sent/received divided by amount of WETH sent/received\n        uint256 executionPrice = getExecutionPrice(positionId, amount0, amount1);\n\n        emit Settled(\n            orders[positionId].side,\n            positionId,\n            orders[positionId].owner,\n            executionPrice,\n            orders[positionId].quantity\n        );\n    }\n\n    function settle(\n        uint256 positionId,\n        uint256 amount0,\n        uint256 amount1\n    ) private {\n        \n        //Gas optimisation possibility: keep settler fees and add a claimFees() function\n        uint256 bpsDivide = 10000; // 100*100\n        bool _side = orders[positionId].side;\n\n        //calc protocol + settler fees\n        uint256 protocolFees0 = _side ? amount0.div(bpsDivide).mul(protocolFee) : amount0.mul(protocolFee.div(protocolFee.add(settlerFee)));\n        uint256 protocolFees1 = _side ? amount1.mul(protocolFee.div(protocolFee.add(settlerFee))) : amount1.div(bpsDivide).mul(protocolFee);\n        uint256 settlerFees0 = _side ? amount0.div(bpsDivide).mul(settlerFee) : amount0.mul(settlerFee.div(protocolFee.add(settlerFee)));\n        uint256 settlerFees1 = _side ? amount1.mul(settlerFee.div(protocolFee.add(settlerFee))) : amount1.div(bpsDivide).mul(settlerFee);\n\n        //all that remains goes to the user\n        uint256 userAmount0 = _side ? amount0.sub(protocolFees0.add(settlerFees0)) : 0 ;\n        uint256 userAmount1 = _side ? 0 : amount1.sub(protocolFees1.add(settlerFees1)) ;\n\n        //settle user amounts, we chose not to send dust (accumulated Uniswap fees on the other side of the trade) to the user\n        if (userAmount0 > 0) {\n            IERC20(poolToken0).safeTransfer(orders[positionId].owner, userAmount0);\n        }\n        if (userAmount1 > 0) {\n            IERC20(poolToken1).safeTransfer(orders[positionId].owner, userAmount1);\n        }\n\n        //settle treasury amounts\n        if(protocolFees0 > 0) {\n            IERC20(poolToken0).safeTransfer(treasury, protocolFees0);\n        }\n        if(protocolFees1 > 0) {\n            IERC20(poolToken1).safeTransfer(treasury, protocolFees1);\n        }\n\n        //settle settler amounts\n        if(settlerFees0 > 0) {\n            IERC20(poolToken0).safeTransfer(msg.sender, settlerFees0);\n        }\n        if(settlerFees1 > 0) {\n            IERC20(poolToken1).safeTransfer(msg.sender, settlerFees1);\n        }\n    }\n\n    /*----------------------------------------------------------*/\n    /*          UNISWAP POSITION MANAGER FUNCTIONS              */\n    /*----------------------------------------------------------*/\n\n    function mintNewPosition(\n        bool side,\n        int24 tickLower,\n        int24 tickUpper,\n        uint256 quantity\n    ) private returns(\n        uint256 tokenId,\n        uint128 liquidity,\n        uint256 amount0,\n        uint256 amount1\n    ){\n        \n        uint256 amount0ToMint = side ? 0 : quantity;\n        uint256 amount1ToMint = side ? quantity : 0;\n        \n        (tokenId, liquidity, amount0, amount1) = nftManager.mint(\n            INonfungiblePositionManager.MintParams({\n                token0: poolToken0,\n                token1: poolToken1,\n                fee: FEE,\n                tickLower: tickLower,\n                tickUpper: tickUpper,\n                amount0Desired: amount0ToMint,\n                amount1Desired: amount1ToMint,\n                amount0Min: amount0.sub(amount0.div(MINT_BURN_SLIPPAGE)),\n                amount1Min: amount1.sub(amount1.div(MINT_BURN_SLIPPAGE)),\n                recipient: address(this),\n                deadline: block.timestamp\n            })\n        );\n\n        //refund unused tokens -- this should be optimized for gas: first calculated the amount to send, then take it from the user\n        if(amount0ToMint > amount0){\n            uint256 refund0 = amount0ToMint - amount0;\n            IERC20(poolToken0).safeTransfer(msg.sender, refund0);\n        }\n\n        if(amount1ToMint > amount1){\n            uint256 refund1 = amount1ToMint - amount1;\n            IERC20(poolToken1).safeTransfer(msg.sender, refund1);\n        }\n\n    }\n\n    function increaseLiquidityCurrentRange(\n        uint256 positionId,\n        address token,\n        uint256 quantity\n    ) private returns(\n        uint128 newLiquidity,\n        uint256 newAmount0,\n        uint256 newAmount1\n    ){\n        (int24 tickLower, int24 tickUpper) = getTicks(positionId);\n\n        //require that pool price is outside of order range\n        int24 currentTick = getCurrentPoolTick();\n        require(\n            tickUpper != currentTick && tickLower != currentTick, // ticks are always next to each other so that's enough\n            \"LPA\" // Liquidity position is active\n        );\n\n        uint256 amount0toAdd = orders[positionId].side ? 0 : quantity;\n        uint256 amount1toAdd = orders[positionId].side ? quantity : 0;\n\n        //add liquidity\n        (newLiquidity, newAmount0, newAmount1) = nftManager.increaseLiquidity(\n            INonfungiblePositionManager.IncreaseLiquidityParams({\n                tokenId: positionId,\n                amount0Desired: amount0toAdd,\n                amount1Desired: amount1toAdd,\n                amount0Min: amount0toAdd.sub(\n                    amount0toAdd.div(MINT_BURN_SLIPPAGE)\n                ),\n                amount1Min: amount1toAdd.sub(\n                    amount1toAdd.div(MINT_BURN_SLIPPAGE)\n                ),\n                deadline: block.timestamp\n            })\n        );\n\n        //refund unspent tokens to the user\n        uint256 refund = orders[positionId].side ? amount1toAdd + orders[positionId].quantity - newAmount1 : amount0toAdd + orders[positionId].quantity - newAmount0; \n        IERC20(token).safeTransfer(msg.sender, refund);\n    }\n\n    function decreaseLiquidityCurrentRange(\n        uint256 positionId,\n        uint128 liquidity\n    ) private returns (uint256 amount0, uint256 amount1){\n        \n        (int24 tickLower, int24 tickUpper) = getTicks(positionId);\n\n        uint256 _amount0;\n        uint256 _amount1;\n\n        (_amount0, _amount1) = LiquidityAmounts.getAmountsForLiquidity(\n            getPoolPrice(),\n            getPriceFromTick(tickLower),\n            getPriceFromTick(tickUpper),\n            liquidity\n        );\n\n        (amount0, amount1) = nftManager.decreaseLiquidity(\n            INonfungiblePositionManager.DecreaseLiquidityParams({\n                tokenId: positionId,\n                liquidity: liquidity,\n                amount0Min: _amount0,\n                amount1Min: _amount1,\n                deadline: block.timestamp\n            })\n        );\n    }\n\n    function withdraw(\n        uint256 positionId,\n        uint256 amount \n    ) private returns (\n        uint256 _amount0,\n        uint256 _amount1,\n        uint256 totalCollected0,\n        uint256 totalCollected1\n    ) {\n        //translate amount requested into Uni pool's liquidity value\n        uint128 _liquidity = getLiquidityFromAmount(positionId, amount);\n        require(_liquidity <= getPositionLiquidity(positionId), \"NEF\"); \n\n        //decrease Liq\n        (_amount0, _amount1) = decreaseLiquidityCurrentRange(positionId,_liquidity);\n\n        //collect fees + liq\n        (totalCollected0, totalCollected1) = collect(positionId); // collected by the contract\n\n        // !!! At the end of the operation, the position's tokens are still held by the contract\n        // If the withdraw function is triggered from decreaseSize() or closePositionOwner(), the \n        // full balance is returned to the user (see each functions).\n        // If the withdraw function is triggered from settleOrder(), the balance harvested is returned\n        // to the user minus service fee. \n    }\n\n    function burn(uint256 tokenId) private {\n        nftManager.burn(tokenId);\n    }\n    \n    // Collect fees\n    function collect(\n        uint256 positionId\n    ) private returns (uint256 collected0, uint256 collected1) {\n        (collected0, collected1) = collectPosition(\n            type(uint128).max,\n            type(uint128).max,\n            positionId\n        );\n    }\n\n    //Collect token amounts from pool position -- tokens need to have been withdrawn with decreaseLiquidity\n    function collectPosition(\n        uint128 amount0,\n        uint128 amount1,\n        uint256 positionId\n    ) private returns (uint256 collected0, uint256 collected1) {\n\n        (collected0, collected1) = nftManager.collect(\n            INonfungiblePositionManager.CollectParams({\n                tokenId: positionId,\n                recipient: address(this),\n                amount0Max: amount0,\n                amount1Max: amount1\n            })\n        );\n    }\n    \n    /*----------------------------------------------------------*/\n    /*                  TRADING PAIR UTILS                      */\n    /*----------------------------------------------------------*/\n\n    function getLiquidityToken(uint256 positionId) private view returns(address token) {\n        return orders[positionId].side ? poolToken1 : poolToken0;\n    }\n\n    function getLiquidityFromAmount(uint256 positionId, uint256 amount) private view returns (uint128 _liquidity) {\n        _liquidity = uint128(amount.mul(orders[positionId].liquidity).div(orders[positionId].quantity));\n    }\n\n    function getExecutionPrice(\n        uint256 positionId,\n        uint256 userAmount0,\n        uint256 userAmount1\n    ) public view returns(\n        uint256 price\n    ) {\n        price = orders[positionId].side ? userAmount0.div(orders[positionId].quantity) : orders[positionId].quantity.div(userAmount1);\n    }\n\n    /*----------------------------------------------------------*/\n    /*                      UNISWAP UTILS                       */\n    /*----------------------------------------------------------*/\n\n    function getPriceFromTick(int24 tick) public pure returns (uint160) {\n        return TickMath.getSqrtRatioAtTick(tick);\n    }\n\n    function getCurrentPoolTick() public view returns (int24 tick){\n        (, tick , , , , , ) = pool.slot0();\n    }\n\n    function getPositionLiquidity(\n        uint256 positionId\n    ) public view returns (uint128 liquidity) {\n        (, , , , , , , liquidity, , , , ) = nftManager.positions(positionId);\n    }\n\n    function getPoolPrice() public view returns (uint160 price) {\n        (uint160 sqrtRatioX96, , , , , , ) = pool.slot0();\n        return sqrtRatioX96;\n    }\n\n    function getTicks(\n        uint256 positionId\n    ) public view returns (int24 tickLower, int24 tickUpper) {\n        (, , , , , tickLower, tickUpper, , , , , ) = nftManager.positions(\n            positionId\n        );\n    }\n\n    function getPriceFromTicks(\n        int24 tickLower,\n        int24 tickUpper\n    ) public view returns(uint160 sqrtPriceX96){\n        uint160 p1 = TickMath.getSqrtRatioAtTick(tickLower);\n        uint160 p2 = TickMath.getSqrtRatioAtTick(tickUpper);\n        sqrtPriceX96 = (p1 + p2) / 2;\n    }\n\n    function getTicksFromPrice(\n        bool side,\n        uint160 sqrtPriceX96\n    ) public view returns(\n        int24 tickLower,\n        int24 tickUpper\n    ) {\n        int24 tickSpacing = pool.tickSpacing();\n        int24 closestTick = TickMath.getTickAtSqrtRatio(sqrtPriceX96);\n\n        if(side) {\n            tickUpper = closestTick - (closestTick % tickSpacing);\n            tickLower = tickUpper - tickSpacing;\n        } else {\n            tickLower = closestTick - (closestTick % tickSpacing) + tickSpacing;\n            tickUpper = tickLower + tickSpacing;\n        }\n    }\n\n    /*----------------------------------------------------------*/\n    /*                    POSITION GETTERS                      */\n    /*----------------------------------------------------------*/\n\n   function getSide(uint256 positionId) public view returns (bool side) {\n        side = orders[positionId].side;\n    }\n    function getTickLower(uint256 positionId) public view returns (int24 tickLower) {\n        tickLower = orders[positionId].tickLower;\n    }\n    function getTickUpper(uint256 positionId) public view returns (int24 tickUpper) {\n        tickUpper = orders[positionId].tickUpper;\n    }\n    function getQuantity(uint256 positionId) public view returns (uint256 quantity) {\n        quantity = orders[positionId].quantity;\n    }\n    function getOwner(uint256 positionId) public view returns (address _owner) {\n        _owner = orders[positionId].owner;\n    }\n    function getActivityStatus(uint256 positionId) public view returns (bool active) {\n        active = orders[positionId].active;\n    }\n\n    /*----------------------------------------------------------*/\n    /*                         SETTERS                          */\n    /*----------------------------------------------------------*/\n\n    function setProtocolFee(uint256 feeBips) public {\n        require(msg.sender == owner, \"Not the owner\");\n        protocolFee = feeBips;\n    }\n\n    function setSettlerFee(uint256 feeBips) public {\n        require(msg.sender == owner, \"Not the owner\");\n        settlerFee = feeBips;\n    }\n}",
  "sourcePath": "C:\\Users\\LeoDu\\Documents\\UniLimit\\contracts\\UniV3TradingPair.sol",
  "compiler": {
    "name": "solc",
    "version": "0.7.6+commit.7338295f.Emscripten.clang"
  },
  "schemaVersion": "3.4.10",
  "updatedAt": "2022-12-13T13:54:03.470Z",
  "networkType": "ethereum",
  "devdoc": {
    "kind": "dev",
    "methods": {},
    "version": 1
  },
  "userdoc": {
    "kind": "user",
    "methods": {
      "closePositionOwner(uint256)": {
        "notice": "notice: Closes a limit order position, has to be triggered by the owner of the position"
      },
      "createOrder(bool,uint160,uint256)": {
        "notice": "Opens a limit order my minting a LP position on the Uniswap v3 Pair params:  - side: true if you buy token0 for token1, false if you buy token1 for token0 - sqrtPriceX96: sqrt(tokenRatio) * 2 ** 96 ::see uniswap doc - quantity: the number of tokens in the position"
      },
      "decreaseSize(uint256,uint256)": {
        "notice": "notice: Decreases the order size of a limit order position"
      },
      "settleOrder(uint256)": {
        "notice": "Settle order can be called by anyone once a position is closeable."
      }
    },
    "version": 1
  }
}