{
  "contractName": "UniV3TradingPair",
  "abi": [
    {
      "inputs": [
        {
          "internalType": "address",
          "name": "pool_address",
          "type": "address"
        },
        {
          "internalType": "address",
          "name": "_nftManager",
          "type": "address"
        },
        {
          "internalType": "address",
          "name": "_treasury",
          "type": "address"
        },
        {
          "internalType": "address",
          "name": "_settlerInit",
          "type": "address"
        }
      ],
      "stateMutability": "nonpayable",
      "type": "constructor"
    },
    {
      "anonymous": false,
      "inputs": [],
      "name": "Close",
      "type": "event"
    },
    {
      "anonymous": false,
      "inputs": [],
      "name": "Decrease",
      "type": "event"
    },
    {
      "anonymous": false,
      "inputs": [],
      "name": "Increase",
      "type": "event"
    },
    {
      "anonymous": false,
      "inputs": [],
      "name": "Open",
      "type": "event"
    },
    {
      "anonymous": false,
      "inputs": [
        {
          "indexed": false,
          "internalType": "bool",
          "name": "side",
          "type": "bool"
        },
        {
          "indexed": false,
          "internalType": "uint256",
          "name": "positionId",
          "type": "uint256"
        },
        {
          "indexed": false,
          "internalType": "address",
          "name": "trader",
          "type": "address"
        },
        {
          "indexed": false,
          "internalType": "uint256",
          "name": "executionPrice",
          "type": "uint256"
        },
        {
          "indexed": false,
          "internalType": "uint256",
          "name": "quantity",
          "type": "uint256"
        }
      ],
      "name": "Settled",
      "type": "event"
    },
    {
      "inputs": [],
      "name": "FEE",
      "outputs": [
        {
          "internalType": "uint24",
          "name": "",
          "type": "uint24"
        }
      ],
      "stateMutability": "view",
      "type": "function"
    },
    {
      "inputs": [],
      "name": "nftManager",
      "outputs": [
        {
          "internalType": "contract INonfungiblePositionManager",
          "name": "",
          "type": "address"
        }
      ],
      "stateMutability": "view",
      "type": "function"
    },
    {
      "inputs": [],
      "name": "owner",
      "outputs": [
        {
          "internalType": "address",
          "name": "",
          "type": "address"
        }
      ],
      "stateMutability": "view",
      "type": "function"
    },
    {
      "inputs": [],
      "name": "pairName",
      "outputs": [
        {
          "internalType": "string",
          "name": "",
          "type": "string"
        }
      ],
      "stateMutability": "view",
      "type": "function"
    },
    {
      "inputs": [],
      "name": "pool",
      "outputs": [
        {
          "internalType": "contract IUniswapV3Pool",
          "name": "",
          "type": "address"
        }
      ],
      "stateMutability": "view",
      "type": "function"
    },
    {
      "inputs": [],
      "name": "poolToken0",
      "outputs": [
        {
          "internalType": "address",
          "name": "",
          "type": "address"
        }
      ],
      "stateMutability": "view",
      "type": "function"
    },
    {
      "inputs": [],
      "name": "poolToken1",
      "outputs": [
        {
          "internalType": "address",
          "name": "",
          "type": "address"
        }
      ],
      "stateMutability": "view",
      "type": "function"
    },
    {
      "inputs": [],
      "name": "protocolFee",
      "outputs": [
        {
          "internalType": "uint256",
          "name": "",
          "type": "uint256"
        }
      ],
      "stateMutability": "view",
      "type": "function"
    },
    {
      "inputs": [],
      "name": "settlerFee",
      "outputs": [
        {
          "internalType": "uint256",
          "name": "",
          "type": "uint256"
        }
      ],
      "stateMutability": "view",
      "type": "function"
    },
    {
      "inputs": [],
      "name": "settlerInit",
      "outputs": [
        {
          "internalType": "address",
          "name": "",
          "type": "address"
        }
      ],
      "stateMutability": "view",
      "type": "function"
    },
    {
      "inputs": [],
      "name": "treasury",
      "outputs": [
        {
          "internalType": "address",
          "name": "",
          "type": "address"
        }
      ],
      "stateMutability": "view",
      "type": "function"
    },
    {
      "inputs": [
        {
          "internalType": "address",
          "name": "operator",
          "type": "address"
        },
        {
          "internalType": "address",
          "name": "from",
          "type": "address"
        },
        {
          "internalType": "uint256",
          "name": "tokenId",
          "type": "uint256"
        },
        {
          "internalType": "bytes",
          "name": "",
          "type": "bytes"
        }
      ],
      "name": "onERC721Received",
      "outputs": [
        {
          "internalType": "bytes4",
          "name": "",
          "type": "bytes4"
        }
      ],
      "stateMutability": "nonpayable",
      "type": "function"
    },
    {
      "inputs": [
        {
          "internalType": "bytes",
          "name": "checkData",
          "type": "bytes"
        }
      ],
      "name": "checkUpkeep",
      "outputs": [
        {
          "internalType": "bool",
          "name": "upkeepNeeded",
          "type": "bool"
        },
        {
          "internalType": "bytes",
          "name": "performData",
          "type": "bytes"
        }
      ],
      "stateMutability": "view",
      "type": "function"
    },
    {
      "inputs": [
        {
          "internalType": "bool",
          "name": "side",
          "type": "bool"
        },
        {
          "internalType": "uint160",
          "name": "sqrtPriceX96",
          "type": "uint160"
        },
        {
          "internalType": "uint256",
          "name": "quantity",
          "type": "uint256"
        }
      ],
      "name": "createOrder",
      "outputs": [
        {
          "internalType": "uint256",
          "name": "positionId",
          "type": "uint256"
        }
      ],
      "stateMutability": "payable",
      "type": "function"
    },
    {
      "inputs": [
        {
          "internalType": "uint256",
          "name": "positionId",
          "type": "uint256"
        },
        {
          "internalType": "uint256",
          "name": "quantity",
          "type": "uint256"
        }
      ],
      "name": "increaseSize",
      "outputs": [],
      "stateMutability": "nonpayable",
      "type": "function"
    },
    {
      "inputs": [
        {
          "internalType": "uint256",
          "name": "positionId",
          "type": "uint256"
        },
        {
          "internalType": "uint256",
          "name": "quantity",
          "type": "uint256"
        }
      ],
      "name": "decreaseSize",
      "outputs": [],
      "stateMutability": "nonpayable",
      "type": "function"
    },
    {
      "inputs": [
        {
          "internalType": "uint256",
          "name": "positionId",
          "type": "uint256"
        }
      ],
      "name": "closePositionOwner",
      "outputs": [],
      "stateMutability": "nonpayable",
      "type": "function"
    },
    {
      "inputs": [
        {
          "internalType": "uint256",
          "name": "positionId",
          "type": "uint256"
        },
        {
          "internalType": "uint256",
          "name": "userAmount0",
          "type": "uint256"
        },
        {
          "internalType": "uint256",
          "name": "userAmount1",
          "type": "uint256"
        }
      ],
      "name": "getExecutionPrice",
      "outputs": [
        {
          "internalType": "uint256",
          "name": "price",
          "type": "uint256"
        }
      ],
      "stateMutability": "view",
      "type": "function"
    },
    {
      "inputs": [
        {
          "internalType": "uint256",
          "name": "positionId",
          "type": "uint256"
        }
      ],
      "name": "getTicks",
      "outputs": [
        {
          "internalType": "int24",
          "name": "tickLower",
          "type": "int24"
        },
        {
          "internalType": "int24",
          "name": "tickUpper",
          "type": "int24"
        }
      ],
      "stateMutability": "view",
      "type": "function"
    },
    {
      "inputs": [
        {
          "internalType": "bool",
          "name": "side",
          "type": "bool"
        },
        {
          "internalType": "uint160",
          "name": "sqrtPriceX96",
          "type": "uint160"
        }
      ],
      "name": "getTicksFromPrice",
      "outputs": [
        {
          "internalType": "int24",
          "name": "tickLower",
          "type": "int24"
        },
        {
          "internalType": "int24",
          "name": "tickUpper",
          "type": "int24"
        }
      ],
      "stateMutability": "view",
      "type": "function"
    },
    {
      "inputs": [
        {
          "internalType": "int24",
          "name": "tick",
          "type": "int24"
        }
      ],
      "name": "getPriceFromTick",
      "outputs": [
        {
          "internalType": "uint160",
          "name": "",
          "type": "uint160"
        }
      ],
      "stateMutability": "pure",
      "type": "function"
    },
    {
      "inputs": [],
      "name": "getCurrentPoolTick",
      "outputs": [
        {
          "internalType": "int24",
          "name": "tick",
          "type": "int24"
        }
      ],
      "stateMutability": "view",
      "type": "function"
    },
    {
      "inputs": [
        {
          "internalType": "uint256",
          "name": "positionId",
          "type": "uint256"
        }
      ],
      "name": "getPositionLiquidity",
      "outputs": [
        {
          "internalType": "uint128",
          "name": "liquidity",
          "type": "uint128"
        }
      ],
      "stateMutability": "view",
      "type": "function"
    },
    {
      "inputs": [],
      "name": "getPoolPrice",
      "outputs": [
        {
          "internalType": "uint160",
          "name": "price",
          "type": "uint160"
        }
      ],
      "stateMutability": "view",
      "type": "function"
    },
    {
      "inputs": [
        {
          "internalType": "uint256",
          "name": "positionId",
          "type": "uint256"
        }
      ],
      "name": "getSide",
      "outputs": [
        {
          "internalType": "bool",
          "name": "side",
          "type": "bool"
        }
      ],
      "stateMutability": "view",
      "type": "function"
    },
    {
      "inputs": [
        {
          "internalType": "uint256",
          "name": "positionId",
          "type": "uint256"
        }
      ],
      "name": "getTickLower",
      "outputs": [
        {
          "internalType": "int24",
          "name": "tickLower",
          "type": "int24"
        }
      ],
      "stateMutability": "view",
      "type": "function"
    },
    {
      "inputs": [
        {
          "internalType": "uint256",
          "name": "positionId",
          "type": "uint256"
        }
      ],
      "name": "getTickUpper",
      "outputs": [
        {
          "internalType": "int24",
          "name": "tickUpper",
          "type": "int24"
        }
      ],
      "stateMutability": "view",
      "type": "function"
    },
    {
      "inputs": [
        {
          "internalType": "uint256",
          "name": "positionId",
          "type": "uint256"
        }
      ],
      "name": "getQuantity",
      "outputs": [
        {
          "internalType": "uint256",
          "name": "quantity",
          "type": "uint256"
        }
      ],
      "stateMutability": "view",
      "type": "function"
    },
    {
      "inputs": [
        {
          "internalType": "uint256",
          "name": "positionId",
          "type": "uint256"
        }
      ],
      "name": "getOwner",
      "outputs": [
        {
          "internalType": "address",
          "name": "_owner",
          "type": "address"
        }
      ],
      "stateMutability": "view",
      "type": "function"
    },
    {
      "inputs": [
        {
          "internalType": "uint256",
          "name": "positionId",
          "type": "uint256"
        }
      ],
      "name": "getActivityStatus",
      "outputs": [
        {
          "internalType": "bool",
          "name": "active",
          "type": "bool"
        }
      ],
      "stateMutability": "view",
      "type": "function"
    },
    {
      "inputs": [
        {
          "internalType": "uint256",
          "name": "feeBips",
          "type": "uint256"
        }
      ],
      "name": "setProtocolFee",
      "outputs": [],
      "stateMutability": "nonpayable",
      "type": "function"
    },
    {
      "inputs": [
        {
          "internalType": "uint256",
          "name": "feeBips",
          "type": "uint256"
        }
      ],
      "name": "setSettlerFee",
      "outputs": [],
      "stateMutability": "nonpayable",
      "type": "function"
    },
    {
      "inputs": [
        {
          "internalType": "string",
          "name": "_name",
          "type": "string"
        }
      ],
      "name": "setPairName",
      "outputs": [],
      "stateMutability": "nonpayable",
      "type": "function"
    }
  ],
  "bytecode": "0x610180604052600560005560006001553480156200001c57600080fd5b5060405162003e9f38038062003e9f8339810160408190526200003f9162000312565b606084811b6001600160601b03199081166101605284821b166101405233901b60805260408051630dfe168160e01b815290516001600160a01b03861691630dfe1681916004808301926020929190829003018186803b158015620000a357600080fd5b505afa158015620000b8573d6000803e3d6000fd5b505050506040513d601f19601f82011682018060405250810190620000de9190620002ec565b6001600160a01b031660a0816001600160a01b031660601b81525050836001600160a01b031663d21220a76040518163ffffffff1660e01b815260040160206040518083038186803b1580156200013457600080fd5b505afa15801562000149573d6000803e3d6000fd5b505050506040513d601f19601f820116820180604052508101906200016f9190620002ec565b6001600160a01b031660c0816001600160a01b031660601b81525050836001600160a01b031663ddca3f436040518163ffffffff1660e01b815260040160206040518083038186803b158015620001c557600080fd5b505afa158015620001da573d6000803e3d6000fd5b505050506040513d601f19601f8201168201806040525081019062000200919062000425565b60e81b6001600160e81b03191660e0908152606083811b6001600160601b0319908116610100529083901b166101205260408051633850c7bd60e01b815290516001600160a01b03871692633850c7bd9260048082019391829003018186803b1580156200026d57600080fd5b505afa15801562000282573d6000803e3d6000fd5b505050506040513d601f19601f82011682018060405250810190620002a8919062000379565b50506002805494810b62ffffff1662ffffff199095169490941790935550620004639650505050505050565b805161ffff81168114620002e757600080fd5b919050565b600060208284031215620002fe578081fd5b81516200030b816200044a565b9392505050565b6000806000806080858703121562000328578283fd5b845162000335816200044a565b602086015190945062000348816200044a565b60408601519093506200035b816200044a565b60608601519092506200036e816200044a565b939692955090935050565b600080600080600080600060e0888a03121562000394578283fd5b8751620003a1816200044a565b8097505060208801518060020b8114620003b9578384fd5b9550620003c960408901620002d4565b9450620003d960608901620002d4565b9350620003e960808901620002d4565b925060a088015160ff81168114620003ff578283fd5b60c0890151909250801515811462000415578182fd5b8091505092959891949750929550565b60006020828403121562000437578081fd5b815162ffffff811681146200030b578182fd5b6001600160a01b03811681146200046057600080fd5b50565b60805160601c60a05160601c60c05160601c60e05160e81c6101005160601c6101205160601c6101405160601c6101605160601c613949620005566000398061061a528061086f5280610d44528061116652806112095250806108c45280610b2a5280611514528061168e52806118a25280611eb352806128d852806129d1525080610a16525080610a9252508061166a5280611f4c5250806109ec5280610ae4528061149b52806117515280611f1d52806120c6525080610abe52806114675280611622528061172a5280611eee52806120855250806110a952806110f652806112f252806116bb52506139496000f3fe6080604052600436106101fe5760003560e01c8063787dce3d1161011d5780639d4ad6f1116100b0578063c41a360a1161007f578063e88b91ea11610064578063e88b91ea146105c1578063ec12ff4f146105d6578063f9a1f17f146105f6576101fe565b8063c41a360a1461057f578063c57981b51461059f576101fe565b80639d4ad6f114610515578063a6068b3b14610535578063a73bf6df14610555578063b0e21e8a1461056a576101fe565b80638c5a9281116100ec5780638c5a9281146104925780638da5cb5b146104c05780639859f805146104d55780639ce288cb146104f5576101fe565b8063787dce3d1461041d5780638438f2b01461043d57806386991a1d1461045d578063885a08e01461047d576101fe565b80634e9e3252116101955780635ebd9ded116101645780635ebd9ded146103a757806361d027b3146103c7578063623efcbe146103dc5780636e04ff0d146103ef576101fe565b80634e9e325214610323578063592a16791461034557806359e0fe181461035a5780635cc1a5d01461037a576101fe565b806316f0115b116101d157806316f0115b1461029d5780631efeed33146102bf57806340794c3b146102ec5780634758af8a1461030e576101fe565b80630159d8471461020357806304f8fe9b1461022e5780630965182714610250578063150b7a0214610270575b600080fd5b34801561020f57600080fd5b50610218610616565b6040516102259190613565565b60405180910390f35b34801561023a57600080fd5b5061024e6102493660046132d2565b6106b5565b005b34801561025c57600080fd5b5061024e61026b36600461327f565b6107fa565b34801561027c57600080fd5b5061029061028b366004613060565b610843565b6040516102259190613538565b3480156102a957600080fd5b506102b261086d565b60405161022591906134a6565b3480156102cb57600080fd5b506102df6102da36600461327f565b610891565b6040516102259190613837565b3480156102f857600080fd5b5061030161095c565b6040516102259190613587565b34801561031a57600080fd5b506102b26109ea565b34801561032f57600080fd5b50610338610a0e565b6040516102259190613864565b34801561035157600080fd5b506102b2610a14565b34801561036657600080fd5b506102b261037536600461317d565b610a38565b34801561038657600080fd5b5061039a61039536600461327f565b610a4b565b6040516102259190613512565b3480156103b357600080fd5b506103386103c236600461327f565b610a7b565b3480156103d357600080fd5b506102b2610a90565b6103386103ea366004613109565b610ab4565b3480156103fb57600080fd5b5061040f61040a366004613149565b610d30565b60405161022592919061351d565b34801561042957600080fd5b5061024e61043836600461327f565b61109e565b34801561044957600080fd5b5061024e610458366004613149565b6110eb565b34801561046957600080fd5b5061021861047836600461327f565b611144565b34801561048957600080fd5b506102b2611161565b34801561049e57600080fd5b506104b26104ad3660046130d1565b611202565b604051610225929190613573565b3480156104cc57600080fd5b506102b26112f0565b3480156104e157600080fd5b5061024e6104f03660046132d2565b611314565b34801561050157600080fd5b5061021861051036600461327f565b6114f5565b34801561052157600080fd5b506104b261053036600461327f565b61150f565b34801561054157600080fd5b50610338610550366004613316565b6115c4565b34801561056157600080fd5b506102b2611620565b34801561057657600080fd5b50610338611644565b34801561058b57600080fd5b506102b261059a36600461327f565b61164a565b3480156105ab57600080fd5b506105b4611668565b6040516102259190613854565b3480156105cd57600080fd5b506102b261168c565b3480156105e257600080fd5b5061024e6105f136600461327f565b6116b0565b34801561060257600080fd5b5061039a61061136600461327f565b6116fd565b60007f00000000000000000000000000000000000000000000000000000000000000006001600160a01b0316633850c7bd6040518163ffffffff1660e01b815260040160e06040518083038186803b15801561067157600080fd5b505afa158015610685573d6000803e3d6000fd5b505050506040513d601f19601f820116820180604052508101906106a991906131e9565b50939695505050505050565b6000828152600660205260409020600301546001600160a01b031633146106f75760405162461bcd60e51b81526004016106ee90613676565b60405180910390fd5b60008281526006602052604090206003015474010000000000000000000000000000000000000000900460ff166107405760405162461bcd60e51b81526004016106ee9061363f565b600061074b83611712565b90506107626001600160a01b038216333085611775565b6000806000610772868587611803565b600089815260066020526040808220838501600182015560020180547fffffffffffffffffffffffffffffffff00000000000000000000000000000000166fffffffffffffffffffffffffffffffff87161790555193965091945092507ffb6f95793acddecbd4d3f540d5911124eb784ff932424125184b6050209cc2f191a1505050505050565b6000818152600660205260409020600101546108168282611314565b6040517fc35789ccff76271dc0efa6bfde2f4d4a32cd48dd86278f75f8648cb068c86e3b90600090a15050565b7f150b7a020000000000000000000000000000000000000000000000000000000095945050505050565b7f000000000000000000000000000000000000000000000000000000000000000081565b6040517f99fbab880000000000000000000000000000000000000000000000000000000081526000906001600160a01b037f000000000000000000000000000000000000000000000000000000000000000016906399fbab88906108f9908590600401613864565b6101806040518083038186803b15801561091257600080fd5b505afa158015610926573d6000803e3d6000fd5b505050506040513d601f19601f8201168201806040525081019061094a9190613341565b50929c9b505050505050505050505050565b6005805460408051602060026001851615610100026000190190941693909304601f810184900484028201840190925281815292918301828280156109e25780601f106109b7576101008083540402835291602001916109e2565b820191906000526020600020905b8154815290600101906020018083116109c557829003601f168201915b505050505081565b7f000000000000000000000000000000000000000000000000000000000000000081565b60015481565b7f000000000000000000000000000000000000000000000000000000000000000081565b6000610a4382611a13565b90505b919050565b60009081526006602052604090206003015474010000000000000000000000000000000000000000900460ff1690565b60009081526006602052604090206001015490565b7f000000000000000000000000000000000000000000000000000000000000000081565b60008084610ae2577f0000000000000000000000000000000000000000000000000000000000000000610b04565b7f00000000000000000000000000000000000000000000000000000000000000005b9050610b1b6001600160a01b038216333086611775565b610b4f6001600160a01b0382167f000000000000000000000000000000000000000000000000000000000000000085611d6e565b600080610b5c8787611202565b9250905060008080610b708a85878b611e87565b809450819550829650839a50505050506040518060e001604052808b151581526020018560020b81526020018660020b81526020018284018152602001846fffffffffffffffffffffffffffffffff168152602001336001600160a01b03168152602001600115158152506006600089815260200190815260200160002060008201518160000160006101000a81548160ff02191690831515021790555060208201518160000160016101000a81548162ffffff021916908360020b62ffffff16021790555060408201518160000160046101000a81548162ffffff021916908360020b62ffffff1602179055506060820151816001015560808201518160020160006101000a8154816fffffffffffffffffffffffffffffffff02191690836fffffffffffffffffffffffffffffffff16021790555060a08201518160030160006101000a8154816001600160a01b0302191690836001600160a01b0316021790555060c08201518160030160146101000a81548160ff0219169083151502179055509050507f59ebeb90bc63057b6515673c3ecf9438e5058bca0f92585014eced636878c9a560405160405180910390a15050505050509392505050565b600060606000610d3e610616565b905060007f00000000000000000000000000000000000000000000000000000000000000006001600160a01b031663d0c93a7c6040518163ffffffff1660e01b815260040160206040518083038186803b158015610d9b57600080fd5b505afa158015610daf573d6000803e3d6000fd5b505050506040513d601f19601f82011682018060405250810190610dd39190613199565b60028054919250606091810b810b9084900b1415610df057600094505b6002805484820b90820b90910b1215610f3e5760028054600091610e1791900b85856120fc565b91505080610e285760009550610f3c565b6001955060008167ffffffffffffffff81118015610e4557600080fd5b50604051908082528060200260200182016040528015610e6f578160200160208202803683370190505b5060028054919250600091900b5b8660020b8160020b1215610f0d5760005b600282810b900b600090815260046020526040902054811015610f055784831015610efd57600282810b900b6000908152600460205260409020805482908110610ed457fe5b9060005260206000200154848481518110610eeb57fe5b60209081029190910101526001909201915b600101610e8e565b508501610e7d565b5060028054604051610f28928592900b9089906020016134ba565b604051602081830303815290604052935050505b505b6002805484820b90820b90910b13156110915760028054600091610f6991868601910b8501856120fc565b50905080610f7a576000955061108f565b6001955060008167ffffffffffffffff81118015610f9757600080fd5b50604051908082528060200260200182016040528015610fc1578160200160208202803683370190505b50905060008585015b60028054810b8701810b9082900b12156110605760005b600282810b900b600090815260036020526040902054811015611058578483101561105057600282810b900b600090815260036020526040902080548290811061102757fe5b906000526020600020015484848151811061103e57fe5b60209081029190910101526001909201915b600101610fe1565b508501610fca565b506002805460405161107b928592900b9089906020016134ba565b604051602081830303815290604052935050505b505b8093505050509250929050565b336001600160a01b037f000000000000000000000000000000000000000000000000000000000000000016146110e65760405162461bcd60e51b81526004016106ee90613608565b600055565b336001600160a01b037f000000000000000000000000000000000000000000000000000000000000000016146111335760405162461bcd60e51b81526004016106ee90613608565b61113f60058383612eff565b505050565b600090815260066020526040902054640100000000900460020b90565b6000807f00000000000000000000000000000000000000000000000000000000000000006001600160a01b0316633850c7bd6040518163ffffffff1660e01b815260040160e06040518083038186803b1580156111bd57600080fd5b505afa1580156111d1573d6000803e3d6000fd5b505050506040513d601f19601f820116820180604052508101906111f591906131e9565b5094965050505050505090565b60008060007f00000000000000000000000000000000000000000000000000000000000000006001600160a01b031663d0c93a7c6040518163ffffffff1660e01b815260040160206040518083038186803b15801561126057600080fd5b505afa158015611274573d6000803e3d6000fd5b505050506040513d601f19601f820116820180604052508101906112989190613199565b905060006112a58561215f565b905085156112cb578160020b8160020b816112bc57fe5b078103925081830393506112e7565b818260020b8260020b816112db57fe5b07820301935081840192505b50509250929050565b7f000000000000000000000000000000000000000000000000000000000000000081565b6000828152600660205260409020600301546001600160a01b0316331461134d5760405162461bcd60e51b81526004016106ee90613676565b60008281526006602052604090206001015481111561137e5760405162461bcd60e51b81526004016106ee9061359a565b60008281526006602052604090206003015474010000000000000000000000000000000000000000900460ff166113c75760405162461bcd60e51b81526004016106ee9061363f565b6000806000806113d786866124dd565b60008a81526006602052604090206001018054858501900390559296509094509250905061140486610891565b600087815260066020526040902060020180547fffffffffffffffffffffffffffffffff00000000000000000000000000000000166fffffffffffffffffffffffffffffffff9290921691909117905583820183820161148e6001600160a01b037f0000000000000000000000000000000000000000000000000000000000000000163384612571565b6114c26001600160a01b037f0000000000000000000000000000000000000000000000000000000000000000163383612571565b6040517f3530a1451b172db538d3a925b0b5d3bd0a25e8c51bb572d53b25248e5921041c90600090a15050505050505050565b600090815260066020526040902054610100900460020b90565b6000807f00000000000000000000000000000000000000000000000000000000000000006001600160a01b03166399fbab88846040518263ffffffff1660e01b815260040161155e9190613864565b6101806040518083038186803b15801561157757600080fd5b505afa15801561158b573d6000803e3d6000fd5b505050506040513d601f19601f820116820180604052508101906115af9190613341565b50949d939c50929a5050505050505050505050565b60008381526006602052604081205460ff166115fb576000848152600660205260409020600101546115f690836125f1565b611618565b6000848152600660205260409020600101546116189084906125f1565b949350505050565b7f000000000000000000000000000000000000000000000000000000000000000081565b60005481565b6000908152600660205260409020600301546001600160a01b031690565b7f000000000000000000000000000000000000000000000000000000000000000081565b7f000000000000000000000000000000000000000000000000000000000000000081565b336001600160a01b037f000000000000000000000000000000000000000000000000000000000000000016146116f85760405162461bcd60e51b81526004016106ee90613608565b600155565b60009081526006602052604090205460ff1690565b60008181526006602052604081205460ff1661174e577f0000000000000000000000000000000000000000000000000000000000000000610a43565b507f0000000000000000000000000000000000000000000000000000000000000000919050565b604080516001600160a01b0380861660248301528416604482015260648082018490528251808303909101815260849091019091526020810180517bffffffffffffffffffffffffffffffffffffffffffffffffffffffff167f23b872dd000000000000000000000000000000000000000000000000000000001790526117fd90859061265a565b50505050565b60008060008060006118148861150f565b915091506000611822610616565b90508060020b8260020b1415801561184057508060020b8360020b14155b61185c5760405162461bcd60e51b81526004016106ee906135d1565b60008981526006602052604081205460ff16611878578761187b565b60005b60008b8152600660205260408120549192509060ff1661189c57600061189e565b885b90507f00000000000000000000000000000000000000000000000000000000000000006001600160a01b031663219f5d176040518060c001604052808e815260200185815260200184815260200161190a61190360c8886125f190919063ffffffff16565b879061270b565b815260200161192461191d8660c86125f1565b869061270b565b8152602001428152506040518263ffffffff1660e01b81526004016119499190613745565b606060405180830381600087803b15801561196357600080fd5b505af1158015611977573d6000803e3d6000fd5b505050506040513d601f19601f8201168201806040525081019061199b91906131b5565b60008e815260066020526040812054939b5091995097509060ff166119d65760008c81526006602052604090206001015483018890036119ee565b60008c81526006602052604090206001015482018790035b9050611a046001600160a01b038c163383612571565b50505050505093509350939050565b60008060008360020b12611a2a578260020b611a32565b8260020b6000035b9050620d89e8811115611a8c576040805162461bcd60e51b815260206004820152600160248201527f5400000000000000000000000000000000000000000000000000000000000000604482015290519081900360640190fd5b600060018216611aad57700100000000000000000000000000000000611abf565b6ffffcb933bd6fad37aa2d162d1a5940015b70ffffffffffffffffffffffffffffffffff1690506002821615611af3576ffff97272373d413259a46990580e213a0260801c5b6004821615611b12576ffff2e50f5f656932ef12357cf3c7fdcc0260801c5b6008821615611b31576fffe5caca7e10e4e61c3624eaa0941cd00260801c5b6010821615611b50576fffcb9843d60f6159c9db58835c9266440260801c5b6020821615611b6f576fff973b41fa98c081472e6896dfb254c00260801c5b6040821615611b8e576fff2ea16466c96a3843ec78b326b528610260801c5b6080821615611bad576ffe5dee046a99a2a811c461f1969c30530260801c5b610100821615611bcd576ffcbe86c7900a88aedcffc83b479aa3a40260801c5b610200821615611bed576ff987a7253ac413176f2b074cf7815e540260801c5b610400821615611c0d576ff3392b0822b70005940c7a398e4b70f30260801c5b610800821615611c2d576fe7159475a2c29b7443b29c7fa6e889d90260801c5b611000821615611c4d576fd097f3bdfd2022b8845ad8f792aa58250260801c5b612000821615611c6d576fa9f746462d870fdf8a65dc1f90e061e50260801c5b614000821615611c8d576f70d869a156d2a1b890bb3df62baf32f70260801c5b618000821615611cad576f31be135f97d08fd981231505542fcfa60260801c5b62010000821615611cce576f09aa508b5b7a84e1c677de54f3e99bc90260801c5b62020000821615611cee576e5d6af8dedb81196699c329225ee6040260801c5b62040000821615611d0d576d2216e584f5fa1ea926041bedfe980260801c5b62080000821615611d2a576b048a170391f7dc42444e8fa20260801c5b60008460020b1315611d45578060001981611d4157fe5b0490505b640100000000810615611d59576001611d5c565b60005b60ff16602082901c0192505050919050565b6000611e0482856001600160a01b031663dd62ed3e30876040518363ffffffff1660e01b815260040180836001600160a01b03168152602001826001600160a01b031681526020019250505060206040518083038186803b158015611dd257600080fd5b505afa158015611de6573d6000803e3d6000fd5b505050506040513d6020811015611dfc57600080fd5b505190612768565b604080516001600160a01b038616602482015260448082018490528251808303909101815260649091019091526020810180517bffffffffffffffffffffffffffffffffffffffffffffffffffffffff167f095ea7b3000000000000000000000000000000000000000000000000000000001790529091506117fd90859061265a565b600080600080600088611e9a5785611e9d565b60005b9050600089611ead576000611eaf565b865b90507f00000000000000000000000000000000000000000000000000000000000000006001600160a01b031663883164566040518061016001604052807f00000000000000000000000000000000000000000000000000000000000000006001600160a01b031681526020017f00000000000000000000000000000000000000000000000000000000000000006001600160a01b031681526020017f000000000000000000000000000000000000000000000000000000000000000062ffffff1681526020018c60020b81526020018b60020b8152602001858152602001848152602001611fb1611faa60c88a6125f190919063ffffffff16565b899061270b565b8152602001611fcb611fc48860c86125f1565b889061270b565b815230602082015242604091820152517fffffffff0000000000000000000000000000000000000000000000000000000060e084901b1681526120119190600401613789565b608060405180830381600087803b15801561202b57600080fd5b505af115801561203f573d6000803e3d6000fd5b505050506040513d601f19601f820116820180604052508101906120639190613297565b92985090965094509250838211156120ae578382036120ac6001600160a01b037f0000000000000000000000000000000000000000000000000000000000000000163383612571565b505b828111156120ef578281036120ed6001600160a01b037f0000000000000000000000000000000000000000000000000000000000000000163383612571565b505b5050945094509450949050565b6000808360020b8560020b131561210f57fe5b506000905080845b8460020b8160020b121561215657600281810b900b60009081526003602090815260408083205460049092529091205493019291909101908301612117565b50935093915050565b60006401000276a36001600160a01b0383161080159061219b575073fffd8963efd1fc6a506488495d951d5263988d266001600160a01b038316105b6121ec576040805162461bcd60e51b815260206004820152600160248201527f5200000000000000000000000000000000000000000000000000000000000000604482015290519081900360640190fd5b77ffffffffffffffffffffffffffffffffffffffff00000000602083901b166fffffffffffffffffffffffffffffffff811160071b81811c67ffffffffffffffff811160061b90811c63ffffffff811160051b90811c61ffff811160041b90811c60ff8111600390811b91821c600f811160021b90811c918211600190811b92831c9790881196179094179092171790911717176080811061229657607f810383901c91506122a0565b80607f0383901b91505b908002607f81811c60ff83811c9190911c800280831c81831c1c800280841c81841c1c800280851c81851c1c800280861c81861c1c800280871c81871c1c800280881c81881c1c800280891c81891c1c8002808a1c818a1c1c8002808b1c818b1c1c8002808c1c818c1c1c8002808d1c818d1c1c8002808e1c9c81901c9c909c1c80029c8d901c9e9d7fffffffffffffffffffffffffffffffffffffffffffffffffffffffffffffff808f0160401b60c09190911c678000000000000000161760c19b909b1c674000000000000000169a909a1760c29990991c672000000000000000169890981760c39790971c671000000000000000169690961760c49590951c670800000000000000169490941760c59390931c670400000000000000169290921760c69190911c670200000000000000161760c79190911c670100000000000000161760c89190911c6680000000000000161760c99190911c6640000000000000161760ca9190911c6620000000000000161760cb9190911c6610000000000000161760cc9190911c6608000000000000161760cd9190911c66040000000000001617693627a301d71055774c8581027ffffffffffffffffffffffffffffffffffd709b7e5480fba5a50fed5e62ffc5568101608090811d906fdb2df09e81959a81455e260799a0632f8301901d600281810b9083900b146124ce57886001600160a01b03166124b282611a13565b6001600160a01b031611156124c757816124c9565b805b6124d0565b815b9998505050505050505050565b60008060008060006124ef87876127c9565b90506124fa87610891565b6fffffffffffffffffffffffffffffffff16816fffffffffffffffffffffffffffffffff16111561253d5760405162461bcd60e51b81526004016106ee9061359a565b6125468761280a565b90935091506125558782612832565b909550935061256585858961296b565b50505092959194509250565b604080516001600160a01b038416602482015260448082018490528251808303909101815260649091019091526020810180517bffffffffffffffffffffffffffffffffffffffffffffffffffffffff167fa9059cbb0000000000000000000000000000000000000000000000000000000017905261113f90849061265a565b6000808211612647576040805162461bcd60e51b815260206004820152601a60248201527f536166654d6174683a206469766973696f6e206279207a65726f000000000000604482015290519081900360640190fd5b81838161265057fe5b0490505b92915050565b60006126af826040518060400160405280602081526020017f5361666545524332303a206c6f772d6c6576656c2063616c6c206661696c6564815250856001600160a01b0316612a629092919063ffffffff16565b80519091501561113f578080602001905160208110156126ce57600080fd5b505161113f5760405162461bcd60e51b815260040180806020018281038252602a8152602001806138ea602a913960400191505060405180910390fd5b600082821115612762576040805162461bcd60e51b815260206004820152601e60248201527f536166654d6174683a207375627472616374696f6e206f766572666c6f770000604482015290519081900360640190fd5b50900390565b6000828201838110156127c2576040805162461bcd60e51b815260206004820152601b60248201527f536166654d6174683a206164646974696f6e206f766572666c6f770000000000604482015290519081900360640190fd5b9392505050565b600082815260066020526040812060018101546002909101546127c291906128049085906fffffffffffffffffffffffffffffffff16612a71565b906125f1565b6000806128286fffffffffffffffffffffffffffffffff808561296b565b9094909350915050565b6000806000806128418661150f565b9150915060008061286b612853611161565b61285c86610a38565b61286586610a38565b8a612aca565b6040805160a0810182528b81526fffffffffffffffffffffffffffffffff8b1660208201528082018490526060810183905242608082015290517f0c49ccbe0000000000000000000000000000000000000000000000000000000081529294509092506001600160a01b037f00000000000000000000000000000000000000000000000000000000000000001691630c49ccbe9161290b916004016136f9565b6040805180830381600087803b15801561292457600080fd5b505af1158015612938573d6000803e3d6000fd5b505050506040513d601f19601f8201168201806040525081019061295c91906132f3565b90999098509650505050505050565b604080516080810182528281523060208201526fffffffffffffffffffffffffffffffff808616828401528416606082015290517ffc6f786500000000000000000000000000000000000000000000000000000000815260009182916001600160a01b037f0000000000000000000000000000000000000000000000000000000000000000169163fc6f786591612a0591906004016136ad565b6040805180830381600087803b158015612a1e57600080fd5b505af1158015612a32573d6000803e3d6000fd5b505050506040513d601f19601f82011682018060405250810190612a5691906132f3565b90969095509350505050565b60606116188484600085612b66565b600082612a8057506000612654565b82820282848281612a8d57fe5b04146127c25760405162461bcd60e51b81526004018080602001828103825260218152602001806138c96021913960400191505060405180910390fd5b600080836001600160a01b0316856001600160a01b03161115612aeb579293925b846001600160a01b0316866001600160a01b031611612b1657612b0f858585612cdf565b9150612b5d565b836001600160a01b0316866001600160a01b03161015612b4f57612b3b868585612cdf565b9150612b48858785612d51565b9050612b5d565b612b5a858585612d51565b90505b94509492505050565b606082471015612ba75760405162461bcd60e51b81526004018080602001828103825260268152602001806138a36026913960400191505060405180910390fd5b612bb085612da6565b612c01576040805162461bcd60e51b815260206004820152601d60248201527f416464726573733a2063616c6c20746f206e6f6e2d636f6e7472616374000000604482015290519081900360640190fd5b600080866001600160a01b031685876040518082805190602001908083835b60208310612c5d57805182527fffffffffffffffffffffffffffffffffffffffffffffffffffffffffffffffe09092019160209182019101612c20565b6001836020036101000a03801982511681845116808217855250505050505090500191505060006040518083038185875af1925050503d8060008114612cbf576040519150601f19603f3d011682016040523d82523d6000602084013e612cc4565b606091505b5091509150612cd4828286612dac565b979650505050505050565b6000826001600160a01b0316846001600160a01b03161115612cff579192915b836001600160a01b0316612d41606060ff16846fffffffffffffffffffffffffffffffff16901b8686036001600160a01b0316866001600160a01b0316612e50565b81612d4857fe5b04949350505050565b6000826001600160a01b0316846001600160a01b03161115612d71579192915b611618826fffffffffffffffffffffffffffffffff168585036001600160a01b03166c01000000000000000000000000612e50565b3b151590565b60608315612dbb5750816127c2565b825115612dcb5782518084602001fd5b8160405162461bcd60e51b81526004018080602001828103825283818151815260200191508051906020019080838360005b83811015612e15578181015183820152602001612dfd565b50505050905090810190601f168015612e425780820380516001836020036101000a031916815260200191505b509250505060405180910390fd5b6000808060001985870986860292508281109083900303905080612e865760008411612e7b57600080fd5b5082900490506127c2565b808411612e9257600080fd5b6000848688096000868103871696879004966002600389028118808a02820302808a02820302808a02820302808a02820302808a02820302808a02909103029181900381900460010186841190950394909402919094039290920491909117919091029150509392505050565b828054600181600116156101000203166002900490600052602060002090601f016020900481019282612f355760008555612f99565b82601f10612f6c578280017fffffffffffffffffffffffffffffffffffffffffffffffffffffffffffffff00823516178555612f99565b82800160010185558215612f99579182015b82811115612f99578235825591602001919060010190612f7e565b50612fa5929150612fa9565b5090565b5b80821115612fa55760008155600101612faa565b8051610a468161386d565b60008083601f840112612fda578182fd5b50813567ffffffffffffffff811115612ff1578182fd5b60208301915083602082850101111561300957600080fd5b9250929050565b8051610a4681613893565b80516fffffffffffffffffffffffffffffffff81168114610a4657600080fd5b805161ffff81168114610a4657600080fd5b805162ffffff81168114610a4657600080fd5b600080600080600060808688031215613077578081fd5b85356130828161386d565b945060208601356130928161386d565b935060408601359250606086013567ffffffffffffffff8111156130b4578182fd5b6130c088828901612fc9565b969995985093965092949392505050565b600080604083850312156130e3578182fd5b82356130ee81613885565b915060208301356130fe8161386d565b809150509250929050565b60008060006060848603121561311d578283fd5b833561312881613885565b925060208401356131388161386d565b929592945050506040919091013590565b6000806020838503121561315b578182fd5b823567ffffffffffffffff811115613171578283fd5b612a5685828601612fc9565b60006020828403121561318e578081fd5b81356127c281613893565b6000602082840312156131aa578081fd5b81516127c281613893565b6000806000606084860312156131c9578283fd5b6131d28461301b565b925060208401519150604084015190509250925092565b600080600080600080600060e0888a031215613203578182fd5b875161320e8161386d565b602089015190975061321f81613893565b955061322d6040890161303b565b945061323b6060890161303b565b93506132496080890161303b565b925060a088015160ff8116811461325e578283fd5b60c089015190925061326f81613885565b8091505092959891949750929550565b600060208284031215613290578081fd5b5035919050565b600080600080608085870312156132ac578182fd5b845193506132bc6020860161301b565b6040860151606090960151949790965092505050565b600080604083850312156132e4578182fd5b50508035926020909101359150565b60008060408385031215613305578182fd5b505080516020909101519092909150565b60008060006060848603121561332a578081fd5b505081359360208301359350604090920135919050565b6000806000806000806000806000806000806101808d8f031215613363578586fd5b8c516bffffffffffffffffffffffff8116811461337e578687fd5b9b5061338c60208e01612fbe565b9a5061339a60408e01612fbe565b99506133a860608e01612fbe565b98506133b660808e0161304d565b97506133c460a08e01613010565b96506133d260c08e01613010565b95506133e060e08e0161301b565b94506101008d015193506101208d015192506133ff6101408e0161301b565b915061340e6101608e0161301b565b90509295989b509295989b509295989b565b6001600160a01b03169052565b60008151808452815b8181101561345257602081850181015186830182015201613436565b818111156134635782602083870101525b50601f017fffffffffffffffffffffffffffffffffffffffffffffffffffffffffffffffe0169290920160200192915050565b60020b9052565b62ffffff169052565b6001600160a01b0391909116815260200190565b606080825284519082018190526000906020906080840190828801845b828110156134f3578151845292840192908401906001016134d7565b505050600295860b918401919091529290930b60409091015292915050565b901515815260200190565b6000831515825260406020830152611618604083018461342d565b7fffffffff0000000000000000000000000000000000000000000000000000000091909116815260200190565b60029190910b815260200190565b600292830b8152910b602082015260400190565b6000602082526127c2602083018461342d565b60208082526003908201527f4e45460000000000000000000000000000000000000000000000000000000000604082015260600190565b60208082526003908201527f4c50410000000000000000000000000000000000000000000000000000000000604082015260600190565b6020808252600d908201527f4e6f7420746865206f776e657200000000000000000000000000000000000000604082015260600190565b60208082526002908201527f4e41000000000000000000000000000000000000000000000000000000000000604082015260600190565b60208082526003908201527f4e544f0000000000000000000000000000000000000000000000000000000000604082015260600190565b815181526020808301516001600160a01b0316908201526040808301516fffffffffffffffffffffffffffffffff90811691830191909152606092830151169181019190915260800190565b600060a082019050825182526fffffffffffffffffffffffffffffffff602084015116602083015260408301516040830152606083015160608301526080830151608083015292915050565b600060c082019050825182526020830151602083015260408301516040830152606083015160608301526080830151608083015260a083015160a083015292915050565b60006101608201905061379d828451613420565b60208301516137af6020840182613420565b5060408301516137c2604084018261349d565b5060608301516137d56060840182613496565b5060808301516137e86080840182613496565b5060a083015160a083015260c083015160c083015260e083015160e08301526101008084015181840152506101208084015161382682850182613420565b505061014092830151919092015290565b6fffffffffffffffffffffffffffffffff91909116815260200190565b62ffffff91909116815260200190565b90815260200190565b6001600160a01b038116811461388257600080fd5b50565b801515811461388257600080fd5b8060020b811461388257600080fdfe416464726573733a20696e73756666696369656e742062616c616e636520666f722063616c6c536166654d6174683a206d756c7469706c69636174696f6e206f766572666c6f775361666545524332303a204552433230206f7065726174696f6e20646964206e6f742073756363656564a2646970667358221220d28795035f17bb2ddd7a9bacc2508f38915cae5e86156a01ac1d11a0f55cf7a564736f6c63430007060033",
  "immutableReferences": {
    "3133": [
      {
        "length": 32,
        "start": 4265
      },
      {
        "length": 32,
        "start": 4342
      },
      {
        "length": 32,
        "start": 4850
      },
      {
        "length": 32,
        "start": 5819
      }
    ],
    "3135": [
      {
        "length": 32,
        "start": 2750
      },
      {
        "length": 32,
        "start": 5223
      },
      {
        "length": 32,
        "start": 5666
      },
      {
        "length": 32,
        "start": 5930
      },
      {
        "length": 32,
        "start": 7918
      },
      {
        "length": 32,
        "start": 8325
      }
    ],
    "3137": [
      {
        "length": 32,
        "start": 2540
      },
      {
        "length": 32,
        "start": 2788
      },
      {
        "length": 32,
        "start": 5275
      },
      {
        "length": 32,
        "start": 5969
      },
      {
        "length": 32,
        "start": 7965
      },
      {
        "length": 32,
        "start": 8390
      }
    ],
    "3139": [
      {
        "length": 32,
        "start": 5738
      },
      {
        "length": 32,
        "start": 8012
      }
    ],
    "3141": [
      {
        "length": 32,
        "start": 2706
      }
    ],
    "3143": [
      {
        "length": 32,
        "start": 2582
      }
    ],
    "3168": [
      {
        "length": 32,
        "start": 2244
      },
      {
        "length": 32,
        "start": 2858
      },
      {
        "length": 32,
        "start": 5396
      },
      {
        "length": 32,
        "start": 5774
      },
      {
        "length": 32,
        "start": 6306
      },
      {
        "length": 32,
        "start": 7859
      },
      {
        "length": 32,
        "start": 10456
      },
      {
        "length": 32,
        "start": 10705
      }
    ],
    "3170": [
      {
        "length": 32,
        "start": 1562
      },
      {
        "length": 32,
        "start": 2159
      },
      {
        "length": 32,
        "start": 3396
      },
      {
        "length": 32,
        "start": 4454
      },
      {
        "length": 32,
        "start": 4617
      }
    ]
  },
  "source": "// SPDX-License-Identifier: MIT\npragma solidity 0.7.6;\npragma abicoder v2; \n\nimport \"@openzeppelin/contracts/math/SafeMath.sol\";\nimport \"@openzeppelin/contracts/token/ERC20/SafeERC20.sol\";\nimport \"@openzeppelin/contracts/token/ERC20/IERC20.sol\";\n\n//import \"@openzeppelin/contracts/token/ERC20/ERC20.sol\";\nimport \"@uniswap/v3-periphery/contracts/interfaces/INonfungiblePositionManager.sol\";\nimport \"@uniswap/v3-periphery/contracts/libraries/LiquidityAmounts.sol\";\n\nimport \"@uniswap/v3-core/contracts/interfaces/IUniswapV3Factory.sol\";\nimport \"@uniswap/v3-core/contracts/interfaces/IUniswapV3Pool.sol\";\nimport \"@uniswap/v3-core/contracts/libraries/TickMath.sol\";\n\nimport \"@openzeppelin/contracts/token/ERC721/IERC721Receiver.sol\";\n/*import \"@openzeppelin/contracts/token/ERC721/IERC721.sol\";\nimport \"@openzeppelin/contracts/token/ERC721/ERC721Holder.sol\";\n\nimport \"@openzeppelin/master/contracts/introspection/ERC165.sol\";*/\n\ncontract UniV3TradingPair is IERC721Receiver {\n    \n    using SafeMath for uint256;\n    using SafeERC20 for IERC20;\n\n    address public immutable owner;\n    address public immutable poolToken0;\n    address public immutable poolToken1;\n    uint24 public immutable FEE;\n    address public immutable treasury;\n    address public immutable settlerInit;\n\n    uint256 private constant MINT_BURN_SLIPPAGE = 200; // .5% max slippage on order creation\n    \n    uint256 public protocolFee = 5; //protocol fee share in bps\n    uint256 public settlerFee = 0; //settlerFee in bps\n\n    //Upkeep variables\n    int24 private lastCheckedTick; \n    mapping(int24 => uint256[]) activeBuys;\n    mapping(int24 => uint256[]) activeSells;\n    //! Upkeep variables \n\n    string public pairName;\n\n    INonfungiblePositionManager public immutable nftManager;\n    IUniswapV3Pool public immutable pool;\n\n    struct Order {\n        bool side; // true buy 0 for 1, false buy 1 for 0\n        int24 tickLower; // lower price tick for position\n        int24 tickUpper; // higher price tick for position\n        uint256 quantity;\n        uint128 liquidity;\n        address owner;\n        bool active;\n    }\n\n    mapping(uint256 => Order) orders;\n    \n    constructor(\n        address pool_address,\n        address _nftManager,\n        address _treasury,\n        address _settlerInit\n    ) {\n        //pool = _pool;\n        //nftManager = _nftManager;\n        pool = IUniswapV3Pool(pool_address);\n        nftManager = INonfungiblePositionManager(_nftManager);\n        owner = msg.sender;\n        poolToken0 = IUniswapV3Pool(pool_address).token0();\n        poolToken1 = IUniswapV3Pool(pool_address).token1();\n        FEE = IUniswapV3Pool(pool_address).fee();\n        treasury = _treasury;\n        settlerInit = _settlerInit;\n        (, lastCheckedTick , , , , , ) = IUniswapV3Pool(pool_address).slot0();\n    }\n\n    /*----------------------------------------------------------*/\n    /*                     ERC721 ENABLER                       */\n    /*----------------------------------------------------------*/\n\n    function onERC721Received(\n        address operator,\n        address from,\n        uint256 tokenId,\n        bytes calldata\n    ) public override returns (bytes4) {\n        return this.onERC721Received.selector;\n    }\n\n    /*----------------------------------------------------------*/\n    /*                          EVENTS                          */\n    /*----------------------------------------------------------*/\n\n    event Open();\n    event Close();\n    event Increase();\n    event Decrease();\n    event Settled(\n            bool side,\n            uint256 positionId,\n            address trader,\n            uint256 executionPrice,\n            uint256 quantity\n    );\n\n\n    /*----------------------------------------------------------*/\n    /*                     CHAINLINK KEEPER                     */\n    /*----------------------------------------------------------*/\n\n    function checkUpkeep(\n        bytes calldata checkData\n    ) public view returns (\n        bool upkeepNeeded,\n        bytes memory performData\n    ){\n        \n        int24 currentTick = getCurrentPoolTick();\n        int24 tickSpacing = pool.tickSpacing(); \n\n        bytes memory pos;\n\n        if(lastCheckedTick == currentTick) {\n            // Price didn't change since last time >> No need to check orders\n            upkeepNeeded = false;\n        }\n        \n        if(lastCheckedTick < currentTick) {\n            // Price is higher than last check: \n            //  We need to check if there are ticks \n            //  with active sell orders to settle\n\n            //Check the number of active positions between our ticks\n            ( ,uint256 totalSellPositions) = noActivePositionsBetweenTicks(lastCheckedTick, currentTick, tickSpacing);\n\n            if (totalSellPositions == 0){\n                //If no position => no upkeep needed\n                upkeepNeeded = false;\n            }\n            else{\n                //Else, upkeep needed and initiate an array to store all positions\n                upkeepNeeded = true;\n                uint256[] memory positions = new uint256[](totalSellPositions);\n\n                //Fill in the array\n                uint256 iter = 0;\n                for (int24 i = lastCheckedTick; i < currentTick; i += tickSpacing){\n                    for (uint j = 0; j < activeSells[i].length; j++){\n                        if(iter < totalSellPositions){ //to avoid array overflow\n                            positions[iter] = activeSells[i][j];\n                            iter++;\n                        }\n                    }\n                }\n\n                pos = abi.encode(positions, lastCheckedTick, currentTick);\n            }       \n        }\n\n        if(lastCheckedTick > currentTick) {\n            // Price is lower than last check: \n            //  We need to check if there are ticks \n            //  with active sell orders to settle\n\n            //Check the number of active positions between our ticks\n            (uint256 totalBuyPositions, ) = noActivePositionsBetweenTicks(currentTick + tickSpacing, lastCheckedTick + tickSpacing, tickSpacing);\n\n            if (totalBuyPositions == 0){\n                //If no position => no upkeep needed\n                upkeepNeeded = false;\n            }\n            else{\n                //Else, upkeep needed and initiate an array to store all positions\n                upkeepNeeded = true;\n                uint256[] memory positions = new uint256[](totalBuyPositions);\n\n                //Fill in the array\n                uint256 iter = 0;\n                for (int24 i = currentTick + tickSpacing; i < lastCheckedTick + tickSpacing; i += tickSpacing){\n                    for (uint j = 0; j < activeBuys[i].length; j++){\n                        if(iter < totalBuyPositions){ //to avoid array overflow\n                            positions[iter] = activeBuys[i][j];\n                            iter++;\n                        }\n                    }\n                }\n\n                pos = abi.encode(positions, lastCheckedTick, currentTick);\n            }  \n        }\n\n        performData = pos;\n\n    }\n\n    function noActivePositionsBetweenTicks(\n        int24 tickLower, \n        int24 tickUpper,\n        int24 tickSpacing\n    ) \n    private \n    view\n    returns (\n        uint256 noBuyPositions,\n        uint256 noSellPositions\n    ){\n        assert(tickLower <= tickUpper);\n\n        noBuyPositions = 0;\n        noSellPositions = 0;\n\n        for(int24 i = tickLower; i < tickUpper; i += tickSpacing) {\n            noBuyPositions += activeBuys[i].length;\n            noSellPositions += activeSells[i].length;\n        }\n    }\n\n    /*function performUpkeep() {\n        \n    }*/\n\n    /*----------------------------------------------------------*/\n    /*                  USER FACING FUNCTIONS                   */\n    /*----------------------------------------------------------*/\n\n    /// notice: Opens a limit order my minting a LP position on the 0.3% Uniswap v3 Pair\n    function createOrder(\n        bool side,\n        uint160 sqrtPriceX96, \n        uint256 quantity\n    ) public payable returns (uint256 positionId) {\n\n        address token = side ? poolToken1 : poolToken0; \n\n        IERC20(token).safeTransferFrom(\n            msg.sender,\n            address(this),\n            quantity\n        );\n\n        IERC20(token).safeIncreaseAllowance(\n            address(nftManager),\n            quantity\n        );\n\n        int24 tickUpper;\n        int24 tickLower;\n        ( tickLower, tickUpper) = getTicksFromPrice(side, sqrtPriceX96);\n\n        uint128 _liquidity;\n        uint256 _amount0;\n        uint256 _amount1;\n\n        (\n            positionId,\n            _liquidity,\n            _amount0,\n            _amount1\n        ) = mintNewPosition(side, tickLower, tickUpper, quantity);\n\n        orders[positionId] = Order({\n            side: side,\n            tickLower: tickLower,\n            tickUpper: tickUpper,\n            quantity: _amount0 + _amount1,\n            liquidity: _liquidity,\n            owner: msg.sender,\n            active: true\n        });\n\n        emit Open();\n    }\n\n    function increaseSize(\n        uint256 positionId,\n        uint256 quantity\n    ) external {\n        require(\n            orders[positionId].owner == msg.sender,\n            \"NTO\" //not the owner\n        );\n        require(\n            orders[positionId].active,\n            \"NA\" //not active\n        );\n\n        address token = getLiquidityToken(positionId);\n        \n        IERC20(token).safeTransferFrom(\n            msg.sender,\n            address(this),\n            quantity\n        );\n\n        uint128 _liquidity;\n        uint256 _amount0;\n        uint256 _amount1;\n\n        (_liquidity, _amount0, _amount1) = increaseLiquidityCurrentRange(positionId, token, quantity);\n        \n        orders[positionId].quantity = _amount0 + _amount1;\n        orders[positionId].liquidity = _liquidity;\n        \n        emit Increase();\n    }\n\n    /// notice: Decreases the order size of a limit order position\n    function decreaseSize(\n        uint256 positionId,\n        uint256 quantity\n    ) public {\n        require(\n            orders[positionId].owner == msg.sender,\n            \"NTO\" //not the owner\n        );\n        require(\n            orders[positionId].quantity >= quantity,\n            \"NEF\" //not enough funds\n        );\n        require(\n            orders[positionId].active,\n            \"NA\" //not active\n        );\n        \n        uint256 _amount0;\n        uint256 _amount1;\n        uint256 fees0;\n        uint256 fees1;\n\n        (_amount0, _amount1, fees0, fees1) = withdraw(positionId, quantity);\n\n        //update liquidity values\n        orders[positionId].quantity -= _amount0 + _amount1;\n        orders[positionId].liquidity = getPositionLiquidity(positionId);\n        if(orders[positionId].liquidity<0) {\n            orders[positionId].active = false;\n            //burn(positionId);\n        }\n        \n        //transfer back the tokens to the msg.sender\n        uint256 refund0 = _amount0 + fees0;\n        uint256 refund1 = _amount1 + fees1;\n\n        IERC20(poolToken0).safeTransfer(msg.sender, refund0);\n        IERC20(poolToken1).safeTransfer(msg.sender, refund1);\n\n        emit Decrease();\n    }\n\n    /// notice: Closes a limit order position, has to be triggered by the owner of the position\n    function closePositionOwner(\n        uint256 positionId\n    )\n    external {\n        uint256 _quantity = orders[positionId].quantity;\n        decreaseSize(positionId,_quantity); //decrease by the total position Size\n\n        emit Close();\n    }\n\n    function settleOrder(\n        uint256 positionId\n    ) private {\n        int24 poolTick = getCurrentPoolTick();\n\n        //Check that the position is fully out of range\n        require(\n            orders[positionId].side ? \n            poolTick < orders[positionId].tickLower :\n            poolTick > orders[positionId].tickUpper\n            ,\"ONF\" // order not filled\n        );\n\n        //check that the position is active\n        require(\n            orders[positionId].active,\n            \"NA\" //not active\n        );\n\n        uint256 _amount0;\n        uint256 _amount1;\n        uint256 positionFee0;\n        uint256 positionFee1;\n\n        (_amount0, _amount1, positionFee0, positionFee1) = withdraw(\n            positionId\n            ,orders[positionId].quantity //withdraw function handles conversion of quantity to liquidity --> no worries\n        );\n\n        //handles tokens distribution between user, treasury and settler\n        settle(positionId, _amount0, _amount1, positionFee0, positionFee1);\n\n        //update position\n        orders[positionId].active = false;\n\n        //calculate executionPrice as token0/token1 -- for USDC/WETH pool: amount of USDC sent/received divided by amount of WETH sent/received\n        uint256 executionPrice = getExecutionPrice(positionId, _amount0 + positionFee0, _amount1 + positionFee1);\n\n        emit Settled(\n            orders[positionId].side,\n            positionId,\n            orders[positionId].owner,\n            executionPrice,\n            orders[positionId].quantity\n        );\n    }\n\n    function settle(\n        uint256 positionId,\n        uint256 amount0,\n        uint256 amount1,\n        uint256 positionFee0,\n        uint256 positionFee1\n    ) private {\n        //Gas optimisation possibility: keep settler fees and add a claimFees() function\n        uint256 bpsDivide = 10000; // 100*100\n        \n        /*uint256 userAmount0;\n        uint256 userAmount1;\n        uint256 protocolFees0;\n        uint256 protocolFees1;\n        uint256 settlerFees0;\n        uint256 settlerFees1;\n        */\n\n        //calc protocol + settler fees\n        uint256 protocolFees0 = orders[positionId].side ? (amount0.add(positionFee0)).div(bpsDivide).mul(protocolFee) : positionFee0.mul(protocolFee.div(protocolFee.add(settlerFee)));\n        uint256 protocolFees1 = orders[positionId].side ? positionFee1.mul(protocolFee.div(protocolFee.add(settlerFee))) : (amount1.add(positionFee1)).div(bpsDivide).mul(protocolFee);\n        uint256 settlerFees0 = orders[positionId].side ? (amount0.add(positionFee0)).div(bpsDivide).mul(settlerFee) : positionFee0.mul(settlerFee.div(protocolFee.add(settlerFee)));\n        uint256 settlerFees1 = orders[positionId].side ? positionFee1.mul(settlerFee.div(protocolFee.add(settlerFee))) : (amount1.add(positionFee1)).div(bpsDivide).mul(settlerFee);\n\n        //all that remains goes to the user\n        uint256 userAmount0 = orders[positionId].side ? (amount0.add(positionFee0)).sub(protocolFees0.add(settlerFees0)) : 0 ;\n        uint256 userAmount1 = orders[positionId].side ? 0 : (amount1.add(positionFee1)).sub(protocolFees1.add(settlerFees1)) ;\n\n        //settle user amounts, here we choose not to send dust (accumulated Uniswap fees on the other side of the trade) to the user\n        if (userAmount0 > 0) {\n            IERC20(poolToken0).safeTransfer(orders[positionId].owner, userAmount0);\n        }\n        \n        if (userAmount1 > 0) {\n            IERC20(poolToken1).safeTransfer(orders[positionId].owner, userAmount1);\n        }\n\n        //settle treasury amounts\n        IERC20(poolToken0).safeTransfer(treasury, protocolFees0);\n        IERC20(poolToken1).safeTransfer(treasury, protocolFees1);\n\n        //settle settler amounts\n        IERC20(poolToken0).safeTransfer(msg.sender, settlerFees0);\n        IERC20(poolToken1).safeTransfer(msg.sender, settlerFees1);\n\n    }\n\n    function getExecutionPrice(\n        uint256 positionId,\n        uint256 userAmount0,\n        uint256 userAmount1\n    ) public view returns(\n        uint256 price\n    ) {\n        price = orders[positionId].side ? userAmount0.div(orders[positionId].quantity) : orders[positionId].quantity.div(userAmount1);\n    }\n\n    /*----------------------------------------------------------*/\n    /*          UNISWAP POSITION MANAGER FUNCTIONS              */\n    /*----------------------------------------------------------*/\n\n    function mintNewPosition(\n        bool side,\n        int24 tickLower,\n        int24 tickUpper,\n        uint256 quantity\n    ) private returns(\n        uint256 tokenId,\n        uint128 liquidity,\n        uint256 amount0,\n        uint256 amount1\n    ){\n        \n        uint256 amount0ToMint = side ? 0 : quantity;\n        uint256 amount1ToMint = side ? quantity : 0;\n        \n        (tokenId, liquidity, amount0, amount1) = nftManager.mint(\n            INonfungiblePositionManager.MintParams({\n                token0: poolToken0,\n                token1: poolToken1,\n                fee: FEE,\n                tickLower: tickLower,\n                tickUpper: tickUpper,\n                amount0Desired: amount0ToMint,\n                amount1Desired: amount1ToMint,\n                amount0Min: amount0.sub(amount0.div(MINT_BURN_SLIPPAGE)),\n                amount1Min: amount1.sub(amount1.div(MINT_BURN_SLIPPAGE)),\n                recipient: address(this),\n                deadline: block.timestamp\n            })\n        );\n\n        //refund unused tokens -- this should be optimized for gas: first calculated the amount to send, then take it from the user\n        if(amount0ToMint > amount0){\n            uint256 refund0 = amount0ToMint - amount0;\n            IERC20(poolToken0).safeTransfer(msg.sender, refund0);\n        }\n\n        if(amount1ToMint > amount1){\n            uint256 refund1 = amount1ToMint - amount1;\n            IERC20(poolToken1).safeTransfer(msg.sender, refund1);\n        }\n\n    }\n\n    function increaseLiquidityCurrentRange(\n        uint256 positionId,\n        address token,\n        uint256 quantity\n    ) private returns(\n        uint128 newLiquidity,\n        uint256 newAmount0,\n        uint256 newAmount1\n    ){\n        (int24 tickLower, int24 tickUpper) = getTicks(positionId);\n\n        //require that pool price is outside of order range\n        int24 currentTick = getCurrentPoolTick();\n        require(\n            tickUpper != currentTick && tickLower != currentTick, // ticks are always next to each other so that's enough\n            \"LPA\" // Liquidity position is active\n        );\n\n        uint256 amount0toAdd = orders[positionId].side ? 0 : quantity;\n        uint256 amount1toAdd = orders[positionId].side ? quantity : 0;\n\n        //add liquidity\n        (newLiquidity, newAmount0, newAmount1) = nftManager.increaseLiquidity(\n            INonfungiblePositionManager.IncreaseLiquidityParams({\n                tokenId: positionId,\n                amount0Desired: amount0toAdd,\n                amount1Desired: amount1toAdd,\n                amount0Min: amount0toAdd.sub(\n                    amount0toAdd.div(MINT_BURN_SLIPPAGE)\n                ),\n                amount1Min: amount1toAdd.sub(\n                    amount1toAdd.div(MINT_BURN_SLIPPAGE)\n                ),\n                deadline: block.timestamp\n            })\n        );\n\n        //refund unspent tokens to the user\n        uint256 refund = orders[positionId].side ? amount1toAdd + orders[positionId].quantity - newAmount1 : amount0toAdd + orders[positionId].quantity - newAmount0; \n        IERC20(token).safeTransfer(msg.sender, refund);\n    }\n\n\n    function withdraw(\n        uint256 positionId,\n        uint256 amount \n    ) private returns (\n        uint256 _amount0,\n        uint256 _amount1,\n        uint256 feesCollected0,\n        uint256 feesCollected1\n    ) {\n        //translate amount requested into Uni pool's liquidity value\n        uint128 _liquidity = getLiquidityFromAmount(positionId,amount);\n        require(_liquidity<=getPositionLiquidity(positionId), \"NEF\"); \n\n        //collect accrued fees\n        (feesCollected0, feesCollected1) = collect(positionId); // collected by the contract\n\n        //decrease Liq\n        (_amount0, _amount1) = decreaseLiquidityCurrentRange(positionId,_liquidity);\n\n        //harvest total position\n        collectPosition(uint128(_amount0), uint128(_amount1), positionId);\n\n        // !!! At the end of the operation, the position's tokens are still held by the contract\n        // If the withdraw function is triggered from decreaseSize() or closePositionOwner(), the \n        // full balance is returned to the user (see each functions).\n        // If the withdraw function is triggered from settleOrder(), the balance harvested is returned\n        // to the user minus service fee. \n    }\n\n\n\n    function getLiquidityFromAmount(uint256 positionId, uint256 amount) private view returns (uint128 _liquidity) {\n        _liquidity = uint128(amount.mul(orders[positionId].liquidity).div(orders[positionId].quantity));\n    }\n\n    function decreaseLiquidityCurrentRange(\n        uint256 positionId,\n        uint128 liquidity\n    ) private returns (uint256 amount0, uint256 amount1){\n        \n        (int24 tickLower, int24 tickUpper) = getTicks(positionId);\n\n        uint256 _amount0;\n        uint256 _amount1;\n\n        (_amount0, _amount1) = LiquidityAmounts.getAmountsForLiquidity(\n            getPoolPrice(),\n            getPriceFromTick(tickLower),\n            getPriceFromTick(tickUpper),\n            liquidity\n        );\n\n        (amount0, amount1) = nftManager.decreaseLiquidity(\n            INonfungiblePositionManager.DecreaseLiquidityParams({\n                tokenId: positionId,\n                liquidity: liquidity,\n                amount0Min: _amount0,\n                amount1Min: _amount1,\n                deadline: block.timestamp\n            })\n        );\n    }\n\n\n    function getTicks(\n        uint256 positionId\n    ) public view returns (int24 tickLower, int24 tickUpper) {\n        (, , , , , tickLower, tickUpper, , , , , ) = nftManager.positions(\n            positionId\n        );\n    }\n\n    function burn(uint256 tokenId) private {\n        nftManager.burn(tokenId);\n    }\n    \n    // Collect fees\n    function collect(\n        uint256 positionId\n    ) private returns (uint256 collected0, uint256 collected1) {\n        (collected0, collected1) = collectPosition(\n            type(uint128).max,\n            type(uint128).max,\n            positionId\n        );\n    }\n\n    function getLiquidityToken(uint256 positionId) private view returns(address token) {\n        return orders[positionId].side ? poolToken1 : poolToken0;\n    }\n\n    //Collect token amounts from pool position -- tokens need to have been withdrawn with decreaseLiquidity\n    function collectPosition(\n        uint128 amount0,\n        uint128 amount1,\n        uint256 positionId\n    ) private returns (uint256 collected0, uint256 collected1) {\n\n        (collected0, collected1) = nftManager.collect(\n            INonfungiblePositionManager.CollectParams({\n                tokenId: positionId,\n                recipient: address(this),\n                amount0Max: amount0,\n                amount1Max: amount1\n            })\n        );\n    }\n\n    function getTicksFromPrice(bool side, uint160 sqrtPriceX96) public view returns(\n        int24 tickLower,\n        int24 tickUpper\n    ) {\n        int24 tickSpacing = pool.tickSpacing();\n        int24 closestTick = TickMath.getTickAtSqrtRatio(sqrtPriceX96);\n\n        if(side) {\n            tickUpper = closestTick - (closestTick % tickSpacing);\n            tickLower = tickUpper - tickSpacing;\n        } else {\n            tickLower = closestTick - (closestTick % tickSpacing) + tickSpacing;\n            tickUpper = tickLower + tickSpacing;\n        }\n    }\n\n\n    /*----------------------------------------------------------*/\n    /*                      UNISWAP UTILS                       */\n    /*----------------------------------------------------------*/\n\n    function getPriceFromTick(int24 tick) public pure returns (uint160) {\n        return TickMath.getSqrtRatioAtTick(tick);\n    }\n\n    function getCurrentPoolTick() public view returns (int24 tick){\n        (, tick , , , , , ) = pool.slot0();\n    }\n\n    function getPositionLiquidity(\n        uint256 positionId\n    ) public view returns (uint128 liquidity) {\n        (, , , , , , , liquidity, , , , ) = nftManager.positions(positionId);\n    }\n\n    function getPoolPrice() public view returns (uint160 price) {\n        (uint160 sqrtRatioX96, , , , , , ) = pool.slot0();\n        return sqrtRatioX96;\n    }\n\n\n    /*----------------------------------------------------------*/\n    /*                    POSITION GETTERS                      */\n    /*----------------------------------------------------------*/\n\n   function getSide(uint256 positionId) public view returns (bool side) {\n        side = orders[positionId].side;\n    }\n    function getTickLower(uint256 positionId) public view returns (int24 tickLower) {\n        tickLower = orders[positionId].tickLower;\n    }\n    function getTickUpper(uint256 positionId) public view returns (int24 tickUpper) {\n        tickUpper = orders[positionId].tickUpper;\n    }\n    function getQuantity(uint256 positionId) public view returns (uint256 quantity) {\n        quantity = orders[positionId].quantity;\n    }\n    function getOwner(uint256 positionId) public view returns (address _owner) {\n        _owner = orders[positionId].owner;\n    }\n    function getActivityStatus(uint256 positionId) public view returns (bool active) {\n        active = orders[positionId].active;\n    }\n    \n    /*function getPosition(uint256 positionId) public view returns(Order order) {\n        order = orders[positionId];\n    }*/\n\n    \n    /*receive() external payable {\n        //If someone sends gas to the contract, account it uner their address\n        gasProvision[msg.sender]+=msg.value; \n    }*/\n\n    /*----------------------------------------------------------*/\n    /*                         SETTERS                          */\n    /*----------------------------------------------------------*/\n\n    function setProtocolFee(uint256 feeBips) public {\n        require(msg.sender == owner, \"Not the owner\");\n        protocolFee = feeBips;\n    }\n\n    function setSettlerFee(uint256 feeBips) public {\n        require(msg.sender == owner, \"Not the owner\");\n        settlerFee = feeBips;\n    }\n\n    function setPairName(string calldata _name) public {\n        require(msg.sender == owner, \"Not the owner\");\n        pairName = _name;\n    }\n}",
  "sourcePath": "C:\\Users\\LeoDu\\Documents\\UniLimit\\contracts\\UniV3TradingPair.sol",
  "compiler": {
    "name": "solc",
    "version": "0.7.6+commit.7338295f.Emscripten.clang"
  },
  "schemaVersion": "3.4.10",
  "updatedAt": "2022-11-26T08:54:52.946Z",
  "devdoc": {
    "kind": "dev",
    "methods": {},
    "version": 1
  },
  "userdoc": {
    "kind": "user",
    "methods": {
      "closePositionOwner(uint256)": {
        "notice": "notice: Closes a limit order position, has to be triggered by the owner of the position"
      },
      "createOrder(bool,uint160,uint256)": {
        "notice": "notice: Opens a limit order my minting a LP position on the 0.3% Uniswap v3 Pair"
      },
      "decreaseSize(uint256,uint256)": {
        "notice": "notice: Decreases the order size of a limit order position"
      }
    },
    "version": 1
  }
}